:020000040800F2
:1000000028140020E1000008E5010008DD010008D7
:10001000E1010008D50100086D040008000000009F
:10002000000000000000000000000000B502000811
:10003000D901000800000000B1020008B902000860
:10004000FB000008FB000008FB000008FB000008A4
:10005000FB000008FB000008FB000008FB00000894
:1000600000000000FB000008FB000008FB00000887
:10007000FB000008FB000008FB0000080000000077
:1000800069030008FB00000800000000FB000008F6
:10009000FB000008FB000008FB000008FB00000854
:1000A000FB000008FB000008FB000008D903000863
:1000B000FB0000080000000000000000000000003D
:1000C000FB00000800000000FB000008DFF80CD077
:1000D00000F018F8004800475D17000828140020B9
:1000E0000648804706480047FEE7FEE7FEE7FEE7D2
:1000F000FEE7FEE7FEE7FEE7FEE7FEE7BD020008DB
:10010000CD0000081CB5094800900948019005463B
:10011000009C06E0E06840F0010394E8070098477F
:100120001034AC42F6D3FFF7D5FF00005C22000884
:100130007C2200082DE9F05F0546002092469B4690
:1001400088460646814640241BE0284641464746ED
:10015000224600F02FF853465A46C01A914110D358
:1001600011461846224600F016F82D1A67EB0108D2
:100170004F4622460120002100F00DF817EB000940
:100180004E41201EA4F10104DFDC484631462A46D8
:100190004346BDE8F09F202A04DB203A00FA02F132
:1001A000002070479140C2F1200320FA03F3194365
:1001B00090407047202A04DB203A21FA02F0002107
:1001C000704721FA02F3D040C2F120029140084367
:1001D00019467047FFE7FEE770470000FFE7FEE7BC
:1001E000FFE7FEE77047000086B00590049100200D
:1001F0000390059800F0070002900298C0F10700F4
:10020000052802D3FFE7042003E00298C0F10700AD
:10021000FFE7019002980430062802D8FFE700208B
:1002200002E002980338FFE7009004980199012248
:1002300002FA01F10139084000998840039B02FA53
:1002400001F101391940084306B0704786B00590A6
:1002500004910392059800F0070002900298C0F103
:100260000700052802D3FFE7042003E00298C0F14D
:100270000700FFE7019002980430062802D8FFE744
:10028000002002E002980338FFE7009004980199EB
:10029000012202FA01F10139084000998840039BCC
:1002A00002FA01F101391940084306B07047000015
:1002B00070470000704700007047000041F20000E6
:1002C000C4F20200016841F001010160FFE741F260
:1002D0000000C4F202000068C0F34000012801D011
:1002E000FFE7F4E741F20400C4F20200016821F0E4
:1002F00003010160FFE741F20400C4F2020000685C
:100300008008800708B1FFE7F5E741F20000C4F27A
:10031000020001684FF6FF72CFF6F26211400160F1
:1003200041F20400C4F202000021016041F22C00FD
:10033000C4F2020041F61071016041F23000C4F2D3
:1003400002004FF48011016041F20800C4F2020083
:100350004FF41F0101604EF60850CEF200004FF03E
:10036000006101607047000080B501F0CDFB0128FD
:1003700031D1FFE701F0BAFB40F61700C2F20000EE
:100380000078012826D1FFE740F61C00C2F20000E9
:10039000017801310170080638B9FFE740F61C000A
:1003A000C2F20000FF210170FFE740F61C00C2F21C
:1003B00000000078032803DBFFE700F057FAFFE7AF
:1003C00040F61C00C2F200000078062801DBFFE7BF
:1003D000FFE7FFE7FFE780BD80B582B040F61C0075
:1003E000C2F200000021017001F024FDE0B3FFE73C
:1003F00001F0F0FBADF8060040F61E00C2F200006E
:10040000B0F80408B0F5806F0CDBFFE740F61E0083
:10041000C2F200000021A0F80418A0F80018A0F80B
:10042000021820E040F61E00C2F20000B0F80418E6
:100430000131A0F80418BDF80610B0F80028531CCC
:10044000A0F8003820F81210B0F80008B0F5806F5E
:1004500008DBFFE740F61E00C2F200000021A0F812
:100460000018FFE7FFE7FFE702B080BDFFE7FEE708
:1004700081B08DF803009DF9030000280FD4FFE739
:100480009DF9030000F01F01012202FA01F1400969
:100490004EF28022CEF2000242F82010FFE701B0B7
:1004A0007047000081B08DF803009DF9030000281B
:1004B00013D4FFE79DF9030000F01F01012202FAA7
:1004C00001F140094EF28012CEF2000242F82010F3
:1004D000BFF34F8FBFF36F8FFFE701B0704700008E
:1004E00081B08DF803009DF9030000280FD4FFE7C9
:1004F0009DF9030000F01F01012202FA01F14009F9
:100500004EF20012CEF2000242F82010FFE701B0D6
:10051000704700004EF60C50CEF200000068C0F3A9
:10052000022070474EF60C50CEF200000068C0F377
:100530000220704782B08DF8070000919DF90700F6
:1005400000280AD4FFE7009800019DF907104EF239
:100550000042CEF2000288540BE0009800019DF8A2
:10056000071001F00F014EF61452CEF2000288542B
:10057000FFE702B07047000082B08DF807000091DD
:100580009DF9070000280AD4FFE7009800019DF9B3
:1005900007104EF20042CEF2000288540BE00098A1
:1005A00000019DF8071001F00F014EF61452CEF233
:1005B00000028854FFE702B07047000083B0029049
:1005C000029800F0070000904EF60C50CEF20000AA
:1005D0000168019101994FF6FF02114001910199C3
:1005E000009A41EA02210022C0F2FA52114301911D
:1005F0000199016003B0704780B582B044F20000F9
:10060000C0F6000000900098006800F16040B0F56E
:10061000804F2ED8FFE70120C0F21C00002100F01F
:10062000E5FC0E20C0F21800002100F0DFFC1120D4
:10063000C0F21400002100F0D9FC1B2001F0BAF830
:10064000102001F0B7F81B20FFF712FF1020FFF772
:100650000FFF0098406840F61801C2F200010860E0
:10066000009800680190019880F308880868804726
:10067000FFE702B080BD000080B582B0002001908D
:1006800040F61D00C2F200000078D0BBFFE740F248
:100690000900C2F20000007802280DD1FFE740F205
:1006A0000900C2F200000021017040F61D00C2F2F4
:1006B00000000121017023E040F20900C2F20000B5
:1006C0000078042809D1FFE740F20900C2F20000D7
:1006D0000021017000F002F911E040F20900C2F2BD
:1006E00000000078032809D1FFE740F20900C2F2B8
:1006F00000000021017000F0B9F8FFE7FFE7FFE715
:10070000B1E040F61D00C2F20000007801280FD1D0
:10071000FFE740F61700C2F200000121017040F629
:100720001D00C2F200000221017000F0D7F899E02C
:1007300040F61D00C2F20000007802284DD1FFE70C
:1007400040F61600C2F200000078042832D1FFE71C
:1007500040F21000C2F20000D0F8010000BA01908F
:10076000019844F20001C0F60001884218D3FFE767
:1007700001984FF2E071C1F6FF71096801F500318F
:10078000B0EB812F0CD2FFE7019800F0F3FD40F6AB
:100790001600C2F200000021017000F09FF808E08E
:1007A00040F61600C2F200000021017000F05EF871
:1007B000FFE711E040F61600C2F2000000780528BD
:1007C00009D1FFE740F61600C2F2000000210170D7
:1007D00000F04CF8FFE7FFE743E040F61D00C2F2EF
:1007E0000000007803283BD1FFE740F20900C2F285
:1007F00000000078022820D1FFE740F20900C2F291
:1008000000000021017000F069F844F20700C0F612
:10081000000000784FF00061B1EB006F05D1FFE7F9
:1008200000F002FDFFF7E8FE06E040F20900C2F228
:10083000000003210170FFE711E040F20900C2F25D
:1008400000000078032809D1FFE740F20900C2F256
:1008500000000021017000F009F8FFE7FFE7FFE763
:10086000FFE7FFE7FFE702B080BD000080B5EE20A4
:1008700001F0BCF9FFE701F0DFF908B9FFE7FAE79B
:10088000FF2001F0B3F9FFE701F0D6F908B9FFE75F
:10089000FAE740F61600C2F200000021017040F2B3
:1008A0000900C2F20000017040F61D00C2F2000013
:1008B000017040F20800C2F20000017040F20C002A
:1008C000C2F20000016040F61C00C2F2000001709C
:1008D00040F61700C2F20000017080BD80B5CC2048
:1008E00001F084F9FFE701F0A7F908B9FFE7FAE79B
:1008F000DD2001F07BF9FFE701F09EF908B9FFE781
:10090000FAE780BD80B582B040F61E00C2F200005A
:10091000B0F80408012805DBFFE700F0FFFC8DF8C4
:10092000070000E063E140F61D00C2F2000000781D
:1009300000283FD1FFE740F20900C2F20000007832
:1009400068B9FFE79DF807005A2807D1FFE740F292
:100950000900C2F2000001210170FFE729E040F226
:100960000900C2F200000078012821D1FFE79DF8BC
:100970000700012807D1FFE740F20900C2F200009A
:100980000221017013E09DF80700A52807D1FFE7B9
:1009900040F20900C2F200000421017006E040F2BA
:1009A0000900C2F2000003210170FFE7FFE7FFE743
:1009B000FFE71CE140F61D00C2F2000000780228AB
:1009C00040F0D980FFE740F61600C2F20000007840
:1009D000032800F2CE80DFE800F0023456799DF85B
:1009E0000700312812D1FFE740F61600C2F20000DE
:1009F0000121017040F20800C2F2000000210170E4
:100A000040F20C00C2F200000160FFE79DF8070011
:100A10005A2815D1FFE740F20900C2F20000007821
:100A200068B9FFE740F20900C2F20000012101703D
:100A300040F61D00C2F2000003210170FFE7FFE74E
:100A400098E09DF8070040F20801C2F200010A7820
:100A500040F21003C2F200031A44507008780130CB
:100A60000870087804280DDBFFE740F20800C2F2A6
:100A700000000021017040F61600C2F200000221C1
:100A80000170FFE776E09DF8070040F20C01C2F22A
:100A900000010A6840F21003C2F200031A445071C8
:100AA0000868013008600868B0F5006F0DD3FFE7F3
:100AB00040F20C00C2F200000021016040F6160076
:100AC000C2F2000003210170FFE753E000208DF81F
:100AD0000600ADF80400FFE7BDF80400032814DCAD
:100AE000FFE7BDF8040040F21001C2F20001084423
:100AF00040789DF8061008448DF80600FFE7BDF821
:100B000004000130ADF80400E6E70020ADF8040071
:100B1000FFE7BDF80400B0F5006F14DAFFE7BDF899
:100B2000040040F21001C2F20001084440799DF82F
:100B3000061008448DF80600FFE7BDF804000130F8
:100B4000ADF80400E5E79DF806009DF8071088421F
:100B500007D1FFE740F61600C2F200000421017041
:100B600006E040F61600C2F2000005210170FFE722
:100B700000E0FFE73AE040F61D00C2F20000007816
:100B8000032832D1FFE740F20900C2F200000078EA
:100B900068B9FFE79DF807005A2807D1FFE740F240
:100BA0000900C2F2000001210170FFE71CE040F2E1
:100BB0000900C2F200000078012814D1FFE79DF877
:100BC0000700022807D1FFE740F20900C2F2000047
:100BD0000221017006E040F20900C2F20000032188
:100BE0000170FFE7FFE7FFE7FFE7FFE7FFE702B07E
:100BF00080BD000081B000208DF803009DF8030047
:100C000041F20401C4F202010A6800F00F0022F070
:100C1000F00242EA0010086001B0704781B0002085
:100C20008DF803009DF8030041F20401C4F20201B3
:100C30000A6800F0070022F4E06242EA002008603F
:100C400001B0704781B000208DF803009DF80300CB
:100C500041F20401C4F202010A6800F0070022F424
:100C6000605242EAC020086001B0704781B08DF840
:100C700003009DF80300012809D1FFE741F2540069
:100C8000C4F20200016841F03001016008E041F265
:100C90005400C4F20200016821F030010160FFE756
:100CA00001B0704781B08DF8030001208DF802007B
:100CB0009DF80300042843D8DFE800F0030E1D2C44
:100CC00037009DF8020041F20001C4F202010A68F7
:100CD00060F300020A6034E09DF8020041F2000176
:100CE000C4F202010A6800F0010022F4803242EAF4
:100CF0000040086025E09DF8020041F20001C4F2C6
:100D000002010A6800F0010022F0807242EA0060ED
:100D1000086016E09DF8020041F22001C4F20201D1
:100D20000A6860F300020A600BE09DF8020041F2DD
:100D30002401C4F202010A6860F300020A6000E0C4
:100D4000FFE701B07047000080B58CB00B90002029
:100D50000A900990089007900690059004900390DF
:100D6000029000F0D3FA8DF807009DF8070030B12B
:100D7000FFE7012824D0FFE7022828D0C1E041F294
:100D80005400C4F202000068400AC00780B1FFE7C7
:100D900041F23000C4F202000068400EC00738B1D2
:100DA000FFE70B9846F60041C0F2DC21016006E047
:100DB0000B9841F20021C0F27A010160FFE7A7E041
:100DC0000B9841F20021C0F27A010160A0E041F2EB
:100DD0000400C4F202000068C0F30040089041F231
:100DE0002C00C4F2020000680021B1EBD07F47D193
:100DF000FFE741F20400C4F202000168C1F383413D
:100E00000A910068C0F341700990099820B9FFE782
:100E10000A980F2807D1FFE709980A9901EB0010FB
:100E200001300A9003E00A9802300A90FFE7089820
:100E300048B9FFE70A9840F60011C0F23D01484367
:100E40000B9908601BE041F20400C4F20200006844
:100E5000400CC00748B1FFE70A9840F60011C0F205
:100E60003D0148430B99086008E00A9841F20021CF
:100E7000C0F27A0148430B990860FFE7FFE73FE0C3
:100E800041F22C00C4F202000168C1F30311049185
:100E90000168C1F308210391006800F00700029087
:100EA000089830B9FFE740F60010C0F23D00059009
:100EB00015E041F20400C4F202000068400CC007D3
:100EC00030B1FFE740F60010C0F23D00059005E0AC
:100ED00041F20020C0F27A000590FFE7FFE7059895
:100EE0000399A0FB0101DDF810C0029B01229A408A
:100EF0000CFB02F20023FFF71DF90B990860FFE7D6
:100F000006E00B9841F20021C0F27A010160FFE790
:100F100041F20400C4F202000168C1F30311079119
:100F2000079942F23C22C0F60002515C06910B99EF
:100F30000A68069BDA404A600168C1F30221079102
:100F4000079942F24C2CC0F6000C1CF801100691D7
:100F50000B994B68069A23FA02F2CA600168C1F342
:100F6000C221079107991CF8011006910B994A6854
:100F7000069BDA408A600168C1F300710791079906
:100F80000068C0F3813040EA81000790079842F280
:100F90005421C0F60001085C06900B988168069AFF
:100FA000B1FBF2F101610CB080BD000082B0019094
:100FB00000208DF80300BDF8060041F20001C4F2E4
:100FC00002014058019901F01F01C840C00720B933
:100FD000FFE700208DF8030003E001208DF80300F7
:100FE000FFE79DF8030002B07047000082B0019057
:100FF0008DF803109DF8030001280FD1FFE7019839
:1010000000F01F01012202FA01F1000C41F200027E
:10101000C4F202028358194381500FE0019800F096
:101020001F01012202FA01F1000C41F20002C4F298
:101030000202835823EA01018150FFE702B07047A2
:1010400083B000208DF80B001D218DF80A1001904F
:101050008DF803009DF80B00B0B9FFE741F20400E2
:10106000C4F20200016821F48031016040F60010F2
:10107000C0F23D00019041F23000C4F2020001686C
:1010800041F00071016029E041F20400C4F2020065
:10109000016841F4803101609DF80B0001280ED1F8
:1010A000FFE741F20020C0F27A00019041F2040013
:1010B000C4F20200016821F4003101600DE040F645
:1010C0000010C0F23D00019041F20400C4F20200A1
:1010D000016841F400310160FFE7FFE7019848F241
:1010E0006121C0F23B0188420CD3FFE7019844F62E
:1010F0003F31C0F24C01884204D8FFE700208DF850
:10110000030068E0019845F68101C0F24F01884272
:101110000CD3FFE7019845F60F61C0F25F018842EA
:1011200004D8FFE701208DF8030053E0019843F253
:101130009551C0F2770188420CD3FFE7019841F640
:101140000F31C0F27F01884204D8FFE702208DF8FA
:1011500003003EE0019841F61131C0F27F01884260
:101160000CD3FFE701984BF61F41C0F2BE01884245
:1011700004D8FFE703208DF8030029E0019846F624
:101180002931C0F2EE0188420CD3FFE701984DF2FD
:101190002F71C0F23D11884204D8FFE704208DF87A
:1011A000030014E001984DF23171C0F23D11884204
:1011B0000CD3FFE701984EF6D711C0F2DC1188423C
:1011C00004D8FFE705208DF80300FFE7FFE7FFE7FE
:1011D000FFE7FFE7FFE79DF80A0000F00F0041F28C
:1011E0000401C4F202010A6822F4701242EA80404B
:1011F00008609DF80A0000F030000A6822F0C04242
:1012000042EA406008609DF8030041F22C01C4F2FC
:1012100002010A6800F0070022F0E06242EA006082
:10122000086003B07047000041F20000C4F2020001
:10123000016841F001010160FFE741F20000C4F2E2
:1012400002000068C0F34000012801D0FFE7F4E786
:1012500041F20400C4F20200016821F003010160C0
:10126000FFE741F20400C4F2020000688008800732
:1012700008B1FFE7F5E741F20000C4F2020001689F
:101280004FF6FF72CFF6F2621140016041F20400A6
:10129000C4F202000021016041F22C00C4F20200FD
:1012A00041F61071016041F23000C4F202004FF4C7
:1012B0008011016041F20800C4F202004FF41F01E6
:1012C0000160704781B002208DF803009DF8030093
:1012D00041F20401C4F202010A6860F301020A60EB
:1012E00000BF00BF00BF00BF00BF00BF00BF00BF06
:1012F00000BF00BF00BF00BF00BF00BF00BF00BFF6
:1013000000BF00BF00BF00BF01B0704741F2040042
:10131000C4F202000068C0F38100704710B582B0CB
:10132000002000F05BFD40F61E04C2F20004B4F899
:1013300004080138A4F80408012000F04FFDB4F8B7
:101340000208411CA4F8021814F810008DF80700D8
:10135000B4F80208B0F5806F08DBFFE740F61E0026
:10136000C2F200000021A0F80218FFE79DF8070074
:1013700002B010BD80B584B0039040F21000C2F2FC
:1013800000000530029000F0E7F8039800F0C0F884
:101390004FF2E070C1F6FF700068FF2806D8FFE743
:1013A000039800F5806000F0B3F8FFE70020ADF887
:1013B0000600FFE7BDF80600B0F5006F19DAFFE799
:1013C0000298BDF8061042185278405C40EA0220AC
:1013D000ADF804000398BDF8041000F00FF803986E
:1013E00002300390FFE7BDF806000230ADF80600BA
:1013F000E0E700F023F804B080BD000010B582B033
:101400000190ADF8021003208DF8010042F21004A3
:10141000C4F20204206840F001002060BDF8020020
:10142000019908804FF4801000F046F88DF8010013
:10143000206820F00100206002B010BD42F21000D0
:10144000C4F20200016841F08001016070470000B1
:1014500081B003208DF8030042F20C00C4F20200B8
:101460000068C00720B1FFE700208DF803001FE0EF
:1014700042F20C00C4F2020000688008C00720B1EC
:10148000FFE701208DF8030011E042F20C00C4F2E6
:10149000020000680009C00720B1FFE702208DF8B4
:1014A000030003E003208DF80300FFE7FFE7FFE7F9
:1014B0009DF8030001B0704780B582B00190032011
:1014C0008DF80300FFF7C4FF8DF80300FFE79DF8D8
:1014D0000310002029B9FFE70198002818BF012058
:1014E000FFE7C00740B1FFE7FFF7B2FF8DF8030049
:1014F000019801380190EAE7019820B9FFE704203C
:101500008DF80300FFE79DF8030002B080BD0000E6
:1015100010B582B0019003208DF8030042F2100450
:10152000C4F20204206840F002002060019842F2F8
:101530001401C4F202010860206840F040002060FD
:101540004FF08040FFF7B8FF8DF80300206820F0CF
:101550000200206002B010BD42F20400C4F202009A
:1015600040F22311C4F26751016048F6AB11CCF68A
:10157000EF5101607047000081B043F60000C0F6F3
:101580000000006844F63831C4F25411884204D196
:10159000FFE701208DF8030003E000208DF8030031
:1015A000FFE79DF8030001B07047000081B0009094
:1015B00000984FF6FF71016000980021817100983A
:1015C00001710098417100980121C17101B070470B
:1015D00083B04FF09041029101900020ADF80000DF
:1015E00001980068ADF80200FFE7BDF8020001288D
:1015F00061DBFFE7BDF80200C007002850D0FFE71D
:10160000BDF800004100032000FA01F1029A1368BE
:1016100023EA0101116001998979BDF80020520087
:101620009140029A136819431160BDF8001001221D
:1016300002FA01F1029A536823EA0101516001990B
:101640000979BDF800209140029A5368194351600E
:10165000BDF80010490000FA01F1029A936823EAEC
:10166000010191600199C979BDF8002052009140B3
:10167000029A936819439160BDF8001049008840B0
:101680000299CA6822EA0000C86001984079BDF852
:101690000010490088400299CA681043C860FFE7FB
:1016A000BDF802004008ADF80200BDF800000130AE
:1016B000ADF8000099E703B07047000084B04FF028
:1016C000904103918DF80B0001208DF80A00002055
:1016D000019000909DF80A109DF80B2002F007027F
:1016E0009200914001919DF80B10B0EBD10F16D0F4
:1016F000FFE79DF80B0000F0070080000F2101FAC2
:1017000000F003994A6A22EA000048620398406A9E
:1017100001990843009000980399486215E09DF8EC
:101720000B0000F0070080000F2101FA00F0039980
:101730000A6A22EA000008620398006A01990843D5
:101740000090009803990862FFE704B0704700001A
:1017500080B5FFF7D7F8FEF78FFF80BD80B582B068
:101760000020019000F0C8FC00F0B2FC00F05EFC2C
:1017700000F01AFD00F008FDFFF7FEFE78B9FFE764
:1017800044F20700C0F6000000784FF00061B1EBB2
:10179000006F03D1FFE7FEF72FFFFFE7FFE7FFF73B
:1017A000EBFE18B1FFE7FFF799F8FFE7FFE7FFF758
:1017B000CFFFFCE780B582B08DF807009DF90700E8
:1017C000FEF770FE02B080BD80B584B08DF80F00CA
:1017D0000291002001900090FEF7A4FE0299019A68
:1017E000FEF734FD00909DF90F000099FEF7C4FE4E
:1017F0009DF90F00FEF774FE04B080BD80B582B085
:1018000003208DF807009DF80700FEF7D7FE02B011
:1018100080BD000080B58AB0002009900890079034
:10182000069005900490039002900190FFF76EFDE2
:101830008DF803009DF8030030B1FFE701282AD09E
:10184000FFE7022831D0D6E041F25400C4F2020092
:101850000068400AC00798B1FFE741F23000C4F2C7
:1018600002000068400EC00750B1FFE740F20000E0
:10187000C2F2000046F60041C0F2DC21016009E03E
:1018800040F20000C2F2000041F20021C0F27A01F1
:101890000160FFE7B9E040F20000C2F2000041F24F
:1018A0000021C0F27A010160AFE041F20400C4F20D
:1018B00002000068C0F30040079041F22C00C4F21F
:1018C000020000680021B1EBD07F50D1FFE741F268
:1018D0000400C4F202000168C1F383410991006869
:1018E000C0F341700890089820B9FFE709980F28C5
:1018F00007D1FFE70898099901EB00100130099022
:1019000003E0099802300990FFE7079860B9FFE704
:10191000099840F60011C0F23D01484340F2000131
:10192000C2F20001086021E041F20400C4F20200AA
:101930000068400CC00760B1FFE7099840F600114D
:10194000C0F23D01484340F20001C2F200010860CC
:101950000BE0099841F20021C0F27A01484340F2BD
:101960000001C2F200010860FFE7FFE742E041F238
:101970002C00C4F202000168C1F303110391016855
:10198000C1F308210291006800F007000190079858
:1019900030B9FFE740F60010C0F23D00049015E0BA
:1019A00041F20400C4F202000068400CC00730B1EC
:1019B000FFE740F60010C0F23D00049005E041F260
:1019C0000020C0F27A000490FFE7FFE70498029934
:1019D000A0FB0101DDF80CC0019B01229A400CFB29
:1019E00002F20023FEF7A6FB40F20001C2F2000162
:1019F0000860FFE709E040F20000C2F2000041F297
:101A00000021C0F27A010160FFE741F20400C4F254
:101A100002000068C0F303100690069842F23C21D1
:101A2000C0F60001085C059040F20000C2F2000020
:101A30000168059AD14001600AB080BD83B040F2D0
:101A40000040C4F20000029042F21070019042F691
:101A5000DF60009001980299C8620098029988623C
:101A60000298416941F00101416103B070470000F3
:101A700082B040F20040C4F20000019000208DF8D6
:101A800003009DF8030001990A6800F0030022F4A6
:101A9000407242EA0020086002B0704782B040F213
:101AA0000040C4F20000019000208DF803009DF872
:101AB000030001990A6800F0070022F0700242EA70
:101AC0000010086002B0704782B040F20040C4F2DB
:101AD0000000019001208DF803009DF8030001999A
:101AE0000A6860F300020A6002B0704782B040F2F8
:101AF0000040C4F200000190012000900098C04313
:101B00000199086102B0704783B040F20040C4F20E
:101B1000000002900120019000208DF8030002983F
:101B20000069019908420AD0FFE70298C06801994C
:101B3000084204D0FFE701208DF8030003E00020F5
:101B40008DF80300FFE79DF8030003B07047000025
:101B500082B040F20040C4F20000019000208DF8F5
:101B600003009DF8030001990A6800F0010022F0CB
:101B7000800242EAC010086002B0704782B040F2B2
:101B80000040C4F20000019000208DF803009DF891
:101B9000030001994A6800F0070022F0700242EA4F
:101BA0000010486002B0704782B040F20040C4F2BA
:101BB0000000019000208DF803009DF803000199BA
:101BC0008A6800F0010022F0800242EAC0108860BA
:101BD00002B0704781B043F60000C4F201000090EB
:101BE0000098406880B201B07047000082B043F6B0
:101BF0000001C4F201010191ADF80200BDF802003C
:101C00006FF35F200199486002B0704782B043F6DD
:101C10000000C4F20100019001208DF803009DF83E
:101C200003000199CA6800F0010022F4005242EA60
:101C30004030C86002B0704783B043F60000C4F281
:101C4000010001904020009001980068009908422E
:101C500004D0FFE701208DF80B0003E000208DF891
:101C60000B00FFE79DF80B0003B0704782B043F60E
:101C70000000C4F20100019000208DF803009DF8DF
:101C8000030058B9FFE70198416921F4807141616F
:101C90000198416921F40071416132E09DF803002F
:101CA00001280BD1FFE70198416941F4807141613E
:101CB0000198416921F40071416121E09DF8030020
:101CC00002280BD1FFE70198416921F4807141613D
:101CD0000198416941F40071416110E09DF80300F1
:101CE00003280BD1FFE70198416941F480714161FC
:101CF0000198416941F400714161FFE7FFE7FFE7A7
:101D0000FFE702B07047000010B58AB043F6000448
:101D1000C4F2010409944FF4E130089000208DF8DA
:101D20001F008DF81E0002A8FFF70EF80998A042C8
:101D300003D1FFE70498019002E005980190FFE7C6
:101D4000019800EB800040000899B0FBF1F0009092
:101D500000984CF6CD41CCF6CC41A0FB0112D10845
:101D600001EB8101A0EB410004280AD8FFE70098AD
:101D70004CF6CD41CCF6CC41A0FB0101C808009047
:101D80000BE000984CF6CD41CCF6CC41A0FB010114
:101D9000012000EBD1000090FFE7BDF80000099999
:101DA0008A684FF6FF739A43104488609DF81F00BD
:101DB0000999CA6800F0010022F4805242EA00301A
:101DC000C8609DF81E0009990A6900F0030022F41A
:101DD000405242EA003008610AB010BD83B043F6B9
:101DE0000001C4F2010102910521C0F20C01019130
:101DF0008DF803009DF8030001280CD1FFE701983E
:101E000000F01F01012202FA01F1029A000C13589E
:101E1000194311500CE0019800F01F01012202FA51
:101E200001F1029A000C135823EA01011150FFE757
:101E300003B0704784B043F60000C4F20100029082
:101E40002020019000208DF80300019801285FD028
:101E5000FFE7022855D0FFE7042852D0FFE7082803
:101E600037D0FFE7102845D0FFE720282AD0FFE72A
:101E7000402820D0FFE7802816D0FFE7B0F5807F0C
:101E80000BD0FFE7B0F5007F49D1FFE7029840692A
:101E9000C0F380208DF8030045E002980069C0F38C
:101EA00080108DF803003EE00298C068C0F3C010B7
:101EB0008DF8030037E00298C068C0F380108DF8F9
:101EC000030030E00298C068C0F340108DF80300B2
:101ED00029E00298C06841090120C90729B9FFE734
:101EE0000298406900F00100FFE700F001008DF862
:101EF000030018E00298C068C0F300108DF80300DA
:101F000011E00298406900F001008DF803000AE03A
:101F10000298C068C0F300208DF8030003E00020A1
:101F20008DF80300FFE79DF80300012804D0FFE7C8
:101F300000208DF80F000DE002980068019908421A
:101F400004D0FFE701208DF80F0003E000208DF89A
:101F50000F00FFE79DF80F0004B0704782B043F612
:101F60000000C4F20100019000208DF803009DF8EC
:101F7000030058B9FFE70198C16821F40071C160FE
:101F80000198C16821F48061C16021E09DF80300DF
:101F900001280BD1FFE70198C16821F40071C160ED
:101FA0000198C16841F48061C16010E09DF80300B0
:101FB00002280BD1FFE70198C16841F40071C160AC
:101FC0000198C16841F48061C160FFE7FFE7FFE766
:101FD00002B0704782B043F60000C4F201000190E5
:101FE00001208DF803009DF803000199CA6800F0F4
:101FF000010022F0040242EA8000C86002B070478B
:1020000082B043F60000C4F20100019001208DF877
:1020100003009DF803000199CA6800F0010022F056
:10202000080242EAC000C86002B0704780B5FFF7FE
:10203000E5FBFEF76FFA0021FEF7D6F801466FF0D8
:102040000B00FEF777FAFEF765FA0021FEF7CCF8F1
:1020500001466FF00A00FEF76DFAFEF75BFA002109
:10206000FEF7C2F801466FF00900FEF763FAFEF7CB
:1020700051FA0021FEF7B8F801466FF00400FEF7B0
:1020800059FAFEF747FA0021FEF7AEF801466FF065
:102090000300FEF74FFAFEF73DFA0021FEF7A4F821
:1020A00001466FF00100FEF745FAFEF733FA0F2103
:1020B000FEF79AF801464FF0FF30FEF73BFA10208A
:1020C0000121FFF781FB1B200021FFF77DFB80BD75
:1020D00080B51120C0F214000121FEF787FF0E2009
:1020E000C0F218000121FEF781FF0120C0F21C00A0
:1020F0000121FEF77BFF80BD80B5FFF795F842F226
:102100000000C4F2020040F2531101600420FEF707
:10211000C9FDFFE70120C0F22400FEF747FF0128B8
:1021200001D0FFE7F6E70020FEF7BCFDFFE7012046
:10213000FEF73CFF012801D0FFE7F8E7FEF780FF3C
:102140000220FEF7AFFDFFE71920FEF72FFF012861
:1021500001D0FFE7F8E7FEF74DFDFEF773FDFEF750
:102160005DFD0120FEF782FDFFF7ACF8FFE7FFF70A
:10217000CDF8022801D0FFE7F9E70020FEF776FD51
:10218000FFF748FB80BD000080B5FFF787FCFFF735
:102190006FFCFFF7DDFCFFF751FCFFF705FDFFF7D4
:1021A000EDFCFFF791FC80BD70B582B06C46204617
:1021B000FFF7FCF90920FFF781FA02258DF8075097
:1021C00000268DF804608DF806504FF400700090E2
:1021D0008DF805602046FFF7FBF90A20FFF76EFA3D
:1021E0008DF807508DF804608DF806504FF480602C
:1021F00000908DF805602046FFF7EAF9FFF784FDAF
:10220000FFF7FEFEFFF7E6FEFFF7A8FEFFF72EFD45
:10221000FFF7FCFC0120FFF7E1FD02B070BD02E01A
:1022200008C8121F08C1002AFAD170477047002061
:1022300001E001C1121F002AFBD17047000000001D
:102240000000000001020304060708090000000066
:102250000102030402040608020C08108022000890
:1022600000000020080000001E220008882200084C
:1022700008000020201400002E22000800000000AA
:0822800000127A0000000000CA
:04000005080000CD22
:00000001FF
