:020000040800F2
:1000000020140020E1000008D7010008CF010008FB
:10001000D3010008C90100085903000800000000CE
:100020000000000000000000000000001B020008AB
:10003000CD01000800000000190200081D020008A0
:10004000FB000008FB000008FB000008FB000008A4
:10005000FB000008FB000008FB000008FB00000894
:1000600000000000FB000008FB000008FB00000887
:10007000FB000008FB000008FB0000080000000077
:100080008D020008FB00000800000000FB000008D3
:10009000FB000008FB000008FB000008FB00000854
:1000A000FB000008FB000008FB000008D902000864
:1000B000FB0000080000000000000000000000003D
:1000C000FB00000800000000FB000008DFF80CD077
:1000D00000F068F800480047F90E000820140020DE
:1000E0000648804706480047FEE7FEE7FEE7FEE7D2
:1000F000FEE7FEE7FEE7FEE7FEE7FEE72102000877
:10010000CD0000082DE9F05F0546002092469B4691
:1001100088460646814640241BE02846414647461D
:10012000224600F02FF853465A46C01A914110D388
:1001300011461846224600F016F82D1A67EB010802
:100140004F4622460120002100F00DF817EB000970
:100150004E41201EA4F10104DFDC484631462A4608
:100160004346BDE8F09F202A04DB203A00FA02F162
:10017000002070479140C2F1200320FA03F3194395
:1001800090407047202A04DB203A21FA02F0002137
:10019000704721FA02F3D040C2F120029140084397
:1001A00019467047064C074D06E0E06840F0010331
:1001B00094E8070098471034AC42F6D3FFF78AFF63
:1001C0001C1700083C17000800BFFEE7704700BF7F
:1001D000FEE700BFFEE77047F0B503460C4603F0AC
:1001E0000701C1F10700042801D9042001E0C1F191
:1001F00007000646081D072801D2002000E0C81E9F
:1002000005460120B040401E2040A8400127AF40D5
:100210007F1E17403843F0BD70477047704700009D
:100220001748006820F00100401C1549086000BF15
:1002300013480068C0F340000028F9D01048406817
:1002400020F003000E49486000BF0D484068C0F32D
:1002500081000028F9D10A4800680A490840084985
:1002600008600020486041F61070C8624FF48010AA
:1002700008634FF41F008860C80303490860704793
:1002800000100240FFFFF2FE08ED00E010B5012172
:100290000E4800F0A5FF012816D101210B4800F0FF
:1002A0009CFF0B48007878B10A480078401CC0B227
:1002B0000849087008B9FF2008700648007802282D
:1002C00001DD00F05BF900BF10BD0000000400403C
:1002D000010000200000002010B500201B4908701C
:1002E00020211B4801F031F870B3194800F093FF4A
:1002F00004461848B0F80408B0F5806F08DB002009
:100300001449A1F80408A1F80008A1F802081BE0AC
:100310001048B0F80408401C0E49A1F8040808462B
:10032000B0F80018B0F80008401C0A4AA2F800080B
:10033000104620F81140B0F80008B0F5806F03DBDC
:1003400000201146A1F8000810BD000000000020A8
:10035000003801401400002000BFFEE7002807DB42
:1003600000F01F0201219140024A430942F8231084
:100370007047000080E200E002480068C0F30220FD
:10038000704700000CED00E010B5002804DB0A0700
:10039000130E054A135406E00A07140E034A00F030
:1003A0000F031B1FD45410BD00E400E018ED00E063
:1003B00002E008C8121F08C1002AFAD1704770472E
:1003C000002001E001C1121F002AFBD1704700008C
:1003D00010B504462068A0F10050B0F5804F21D838
:1003E0000021114800F030FB0021104800F02CFBE8
:1003F00000210F4800F028FB1B2000F09FFD10207B
:1004000000F09CFD1B20FFF7A9FF1020FFF7A6FFBF
:10041000084960680860206880F3088800BF0846C3
:100420000068804710BD000001001C000E0018008D
:10043000110014000C00002010B50024484800787A
:10044000F0B948480078022806D1002045490870D4
:1004500001204349087081E042480078042805D112
:1004600000204049087000F0C1F877E03D4800786E
:10047000032873D100203B49087000F07FF86DE03D
:1004800037480078012807D13749087002203449DD
:10049000087000F0ABF861E031480078022836D1EE
:1004A00032480078042828D1314840780106304885
:1004B000807801EB00412E48C07801EB00212C48E8
:1004C00000790C182B48844211D32B480068800215
:1004D00000F10060A0420AD92549491D204600F0DC
:1004E000E7FB00202149087000F080F836E000208A
:1004F0001E49087000F042F830E01C4800780528DA
:100500002CD100201949087000F038F826E0144872
:100510000078032822D113480078022815D1002042
:100520001049087000F062F81248406800F07F40FF
:10053000B0F1006F05D100F033FB0E48FFF748FF24
:100540000CE003200749087008E0064800780328FB
:1005500004D100200349087000F010F810BD00001D
:1005600006000020050000200100002004000020FB
:100570001A08002000400008E0F7FF1F10B5EE2128
:10058000124800F04CFE00BF4021104800F050FE21
:100590000028F9D0FF210D4800F041FE00BF4021A6
:1005A0000A4800F045FE0028F9D0002008490870EC
:1005B0000849087008490870084908700849086027
:1005C000084908700849087010BD00000038014053
:1005D0000400002005000020060000200700002085
:1005E00008000020000000200100002010B5CC21F0
:1005F0000A4800F014FE00BF4021084800F018FE31
:100600000028F9D0DD21054800F009FE00BF402197
:10061000024800F00DFE0028F9D010BD003801405E
:1006200070B55A49B1F80418002902DD00F010FB3A
:1006300000E070BD56490978E1B95649097829B9F1
:100640005A2802D10121534A11709CE0514909787E
:100650000129FAD1012803D102214E4A117092E0FA
:10066000A52803D104214B4A11708CE00321494A8B
:10067000117088E04649097802296AD1464909780B
:1006800031B101291AD002292BD003295FD13DE0D5
:10069000312807D10121404A117000213F4A1170D1
:1006A0003F4A11605A2808D13A49097829B90121ED
:1006B000384A11700321364A117049E03949374AE6
:1006C0001278885435490978491C344A117011460A
:1006D0000978042904DB0021117002212E4A1170CF
:1006E00036E03049091D2E4A126888542C490968A1
:1006F000491C2B4A116011460968B1F5006F04D3FB
:10070000002111600321244A117021E000250024FA
:1007100005E02449095D2944CDB2611C8CB2042C4A
:10072000F7DB002406E01F49091D095D2944CDB20D
:10073000611C8CB2B4F5006FF5DB854203D1042156
:10074000154A117002E00521134A117000E000BF44
:1007500019E00F490978032915D10E49097829B9FB
:100760005A2810D101210B4A11700CE0094909786F
:10077000012908D1022803D10221064A117002E0A2
:100780000321044A117000BF53E700001400002049
:1007900006000020050000200400002007000020C3
:1007A000080000201B0800200349496860F3071176
:1007B000014A516070470000001002400349496837
:1007C00060F30A21014A51607047000000100240A6
:1007D0000349496860F3CD21014A51607047000028
:1007E00000100240012807D10749496D21F030016E
:1007F0003031054A516505E00349496D21F030016A
:10080000014A51657047000000100240052827D2B8
:10081000DFE800F0030A11181F00134A126861F3A1
:100820000002114B1A601CE00F4A126861F310427B
:100830000D4B1A6015E00C4A126861F318620A4BFE
:100840001A600EE0084A126A61F30002064B1A624F
:1008500007E0054A526A61F30002034B5A6200E066
:1008600000BF00BF70470000001002402DE9F04FAC
:1008700085B004460025AA46AB460026A9460020BE
:10088000049003900290019000F0DAF90090009833
:1008900020B1012812D0022875D112E05648406DCF
:1008A000C0F3402038B15448006BC0F3406010B131
:1008B0005248206001E05248206067E050482060C4
:1008C00064E04D484068C0F3004B4B48C06AC00F1D
:1008D00030BB49484068C0F3834547484068C0F38F
:1008E000417ABAF1000F01D10F2D04D14FEA0A105D
:1008F000401C054400E0AD1CBBF1000F03D1414892
:10090000684320603DE03C484068C0F3404018B177
:100910003C486843206034E039486843206030E058
:100920003548C06AC0F3031003903348C06AC0F36F
:10093000082002903048C06A00F007000190BBF127
:10094000000F02D12F48049009E02B484068C0F303
:10095000404010B12B48049001E029480490012147
:10096000019801FA00F0039900FB01FC0299049838
:10097000A0FB01700146624600233846FFF7C2FB28
:10098000206003E0FFE71E48206000BF00BF1A4858
:100990004068C0F303161C4810F80690206820FA3F
:1009A00009F0606014484068C0F30226174810F848
:1009B0000690606820FA09F0E0600F484068C0F3D4
:1009C000C226134810F80690606820FA09F0A0606B
:1009D00009484068C0F3007607484068C0F381309A
:1009E00040EA86060B4810F80690A068B0FBF9F0C4
:1009F000206105B0BDE8F08F00100240006CDC0201
:100A000000127A0000093D00E4160008F416000800
:100A1000FC1600080417000810B501460020094B19
:100A200003EB1142126801F01F040123A3401A4096
:100A300001F01F040123A3409A4200D000E00120EE
:100A400010BD00000010024010B501290DD10E4B61
:100A500003EB1042126800F01F040123A3401A4365
:100A6000094C04EB10431A600CE0074B03EB1042F7
:100A7000126800F01F040123A3409A43024C04EBC8
:100A800010431A6010BD00000010024030B502464D
:100A90000020002372B9354C646824F48034334D4F
:100AA0006C6033482C46246B24F0007404F100740D
:100AB0002C6319E02D4C646824F4803404F58034F0
:100AC0002A4D6C60012A06D12A482C46646824F419
:100AD00000346C6008E02648244C646824F4003438
:100AE00004F50034214D6C60234CA04204D9234C02
:100AF000A04201D2002326E0214CA04204D9214C7F
:100B0000A04201D201231EE01F4CA04204D91F4C79
:100B1000A04201D2022316E01C4CA04204D91C4C76
:100B2000A04201D203230EE01A4CA04204D91A4C71
:100B3000A04201D2042306E0174CA04203D9174C6F
:100B4000A04200D20523094C646861F39544074D27
:100B50006C600D09054C646865F35E74034D6C6050
:100B60002C46E46A63F31A64EC6230BD0010024064
:100B700000093D0000127A0060823B00404B4C00AF
:100B800080584F00105E5F0094357700101B7F0087
:100B900020BCBE00286BEE0030D73D01D8E9DC0157
:100BA0001648006820F00100401C1449086000BF8E
:100BB00012480068C0F340000028F9D00F48406890
:100BC00020F003000D49486000BF0C484068C0F3A6
:100BD00081000028F9D109480068094908400749FF
:100BE00008600020486041F61070C8624FF4801021
:100BF00008634FF41F008860704700000010024037
:100C0000FFFFF2FE0D49496860F301010B4A516094
:100C100000BF00BF00BF00BF00BF00BF00BF00BFDC
:100C200000BF00BF00BF00BF00BF00BF00BF00BFCC
:100C300000BF00BF00BF00BF7047000000100240AF
:100C400002484068C0F38100704700000010024075
:100C500010B500221349144800F05CFB1348B0F8AB
:100C60000408401E1149A1F8040801220D490E484C
:100C700000F050FB0D48B0F80218B0F80208401C14
:100C80000A4AA2F80208104610F81140B0F802080B
:100C9000B0F5806F03DB00201146A1F80208204662
:100CA00010BD000005000C000038014014000020B9
:100CB0002DE9F04105460E4600F096F8284600F072
:100CC00073F80F480068FF2803D805F5806000F02E
:100CD0006BF800240CE0315D601C305C01EB0020FF
:100CE00087B23946284600F00DF8AD1CA01C84B22E
:100CF000B4F5006FEFDB00F021F8BDE8F0810000F3
:100D0000E0F7FF1F70B504460D4603260A48006948
:100D100020F00100401C0849086125804FF4801034
:100D200000F030F806460448006920F0010002494E
:100D30000861304670BD0000002002400348006991
:100D400020F0800080300149086170470020024097
:100D500003200B49C96801F0010109B100200EE030
:100D60000749C968C1F3800109B1012007E00449BE
:100D7000C968C1F3001109B1022000E003207047E7
:100D80000020024000B502460323FFF7E1FF0346BF
:100D900003E0FFF7DDFF0346521E0BB9002AF8D12E
:100DA00002B90423184600BD30B5044603250D489A
:100DB000006920F00200801C0A490861084644616D
:100DC000006920F04000403008614804FFF7DAFF76
:100DD00005460448006920F00200024908612846DF
:100DE00030BD00000020024002480349486003482B
:100DF000486070472301674500200240AB89EFCD72
:100E0000044800680449884201D10120704700204D
:100E1000FCE7000000380008384B54414FF6FF71E2
:100E2000016000218171017141710121C17170471F
:100E300070B50A4600211488A3B233E003F0010420
:100E40006CB304684E000325B540AC43046094794C
:100E50004D00AC4005682C430460446801258D407A
:100E6000AC434460446815798D402C4344608468E9
:100E70004E000325B540AC438460D4794D00AC40AE
:100E800085682C438460C4684E000325B540AC439C
:100E9000C46054794D00AC40C5682C43C4605B10FD
:100EA0004C1CA1B2002BC9DC70BDF0B5002300249E
:100EB0004D07ED0E02FA05F3CD105DB1456A4E0700
:100EC000F70E0F26BE40B5434562456A45EA030466
:100ED00044620AE0056A4E07F70E0F26BE40B5438E
:100EE0000562056A45EA03040462F0BD10B5FFF728
:100EF00097FBFFF7A1FA10BD00F02EFB00F018FBE6
:100F000000F0ABFA00F094FB00F06EFBFFF778FF07
:100F100048B90948406800F07F40B0F1006F02D145
:100F20000548FFF755FAFFF76BFF08B1FFF75EFBC7
:100F300001E0FFF7DBFFFCE70040000810B50146C9
:100F4000084600280BDB00F01F0301229A40054BE6
:100F5000440943F82420BFF34F8FBFF36F8F00BFC6
:100F600010BD000080E100E02DE9F0470B4614467B
:100F70004FF0000C00BF2C4A1268C2F302211D463C
:100F800026460A46C2F10709B9F1040F02D94FF00B
:100F9000040901E0C2F10709C84602F10409B9F1E8
:100FA000070F02D24FF0000901E0A2F103094F46FA
:100FB0004FF0010909FA08F9A9F1010909EA05093F
:100FC00009FA07F94FF0010A0AFA07FAAAF1010A29
:100FD0000AEA060A49EA0A09CC460146624600299D
:100FE00004DB15072E0E114D6E5407E015072F0E6A
:100FF0000D4D0C3501F00F06361FAF5500BF0146F1
:1010000000290DDB00BF00BF01F01F050122AA402F
:101010004D09AD0005F1E025C5F8002100BF00BF76
:1010200000BFBDE8F08700000CED00E000E400E048
:1010300000BF00F00702064B19684FF6FF03194086
:10104000044B0B4343EA0221014B196000BF704778
:101050000CED00E00000FA052DE9FF5F00240025FB
:101060000026A146A246A3460020039002900190CC
:10107000FFF7E6FD0090009820B1012814D0022867
:1010800074D115E04348406DC0F3402040B1414861
:10109000006BC0F3406018B13F484049086002E06F
:1010A0003F483E49086065E03D483C49086061E0D2
:1010B00038484068C0F300463648C06AC00F20BBBD
:1010C00034484068C0F3834432484068C0F34175F7
:1010D0000DB90F2C03D12801401C044400E0A41CCE
:1010E00026B9304860432D4908603DE029484068F2
:1010F000C0F3404020B12B4860432849086033E0EA
:1011000027486043254908602EE02248C06AC0F3A2
:10111000031003901F48C06AC0F3082002901D48C6
:10112000C06A00F00700019016B9DFF878B009E056
:1011300018484068C0F3404010B1DFF868B001E0E3
:10114000DFF85CB00121019801FA00F0039900FB7F
:1011500001FC0298ABFB0070014662460023384652
:10116000FEF7D0FF0D49086004E0FFE70C480B498B
:10117000086000BF00BF07484068C0F303190A4871
:1011800010F809A00548006820FA0AF00349086031
:10119000BDE8FF9F00100240006CDC021000002040
:1011A00000127A0000093D000C170008C16282623B
:1011B000436923F001035B1C43617047026861F3DC
:1011C000092202607047026861F3061202607047EC
:1011D000026861F3000202607047CA43026170470F
:1011E0000246002013690B4023B1D3680B400BB1BA
:1011F000012000E000207047026861F3C71202601E
:101200007047426861F3061242607047826861F37A
:10121000C712826070470146486880B27047C1F3C8
:10122000080242607047C26861F34D32C260704785
:1012300002461068084008B1012070470020FCE712
:1012400041B9426922F480724261426922F400721B
:10125000426127E001290AD1426922F4807202F535
:1012600080724261426922F4007242611AE00229EE
:101270000AD1426922F480724261426922F400720A
:1012800002F5007242610DE003290BD1426922F49C
:10129000807202F580724261426922F4007202F5A6
:1012A00000724261704700002DE9F04385B00446AA
:1012B0000F46904699466846FFF7D8FA144884428C
:1012C00001D1029E00E0039E06EB86004000B0FBC9
:1012D000F7F50A20B5FBF0F100FB1150052803D209
:1012E0000A20B5FBF0F503E00A20B5FBF0F0451C41
:1012F000A06865F30F00A060E06868F30C30E06060
:10130000206969F30D30206105B0BDE8F08300006D
:101310000038014030B5012A0BD100EB11431B68A6
:1013200001F01F050124AC40234300EB114423606E
:101330000AE000EB11431B6801F01F050124AC40DB
:10134000A34300EB1144236030BD02460023202953
:1013500027D00CDC042939D004DC01293BD0022938
:101360003DD134E0082920D0102938D12AE0402985
:1013700013D080290DD0B1F5807F06D0B1F5007F64
:101380002DD15069C0F380232BE01069C0F3801386
:1013900027E0D068C0F3C01323E0D068C0F3801307
:1013A0001FE0D068C0F340131BE0D068C0F34010CA
:1013B00018B9506900F0010008B1012000E00020D8
:1013C00003460EE0D068C0F300130AE000BF506986
:1013D00000F0010305E0D068C0F3002301E0002322
:1013E00000BF00BF012B01D00020704710680840EB
:1013F00008B10120F9E70020F7E741B9C26822F4FB
:101400000072C260C26822F48062C2601AE00129E0
:101410000AD1C26822F40072C260C26822F48062FB
:1014200002F58062C2600DE002290BD1C26822F48D
:10143000007202F50072C260C26822F4806202F596
:101440008062C2607047C26861F38202C260704706
:10145000C26861F3C302C260704770B50320FFF732
:10146000E7FDFEF789FF054600221146FEF7B4FEB0
:10147000044621466FF00B00FEF786FFFEF77CFF67
:10148000054600221146FEF7A7FE044621466FF0EE
:101490000A00FEF779FFFEF76FFF054600221146AE
:1014A000FEF79AFE044621466FF00900FEF76CFF36
:1014B000FEF762FF054600221146FEF78DFE044648
:1014C00021466FF00400FEF75FFFFEF755FF05466B
:1014D00000221146FEF780FE044621466FF003000D
:1014E000FEF752FFFEF748FF054600221146FEF7C1
:1014F00073FE044621466FF00100FEF745FFFEF73C
:101500003BFF054600220F21FEF766FE04462146FA
:101510004FF0FF30FEF738FF002201211020FFF7C7
:1015200023FD002211461B20FFF71EFD70BD0000A9
:1015300010B501210548FFF787FA01210448FFF79C
:1015400083FA01210348FFF77FFA10BD1100140050
:101550000E00180001001C0010B5FFF721FB40F23F
:1015600053101F49086001210420FFF74FF900BF05
:101570001C48FFF751FA0128FAD101210020FFF79A
:1015800045F900BF0120FFF747FA0128FAD11D21D4
:101590000020FFF77BFA01210220FFF737F900BF97
:1015A0001920FFF739FA0128FAD10020FFF7FCF8DB
:1015B0000020FFF70DF90020FFF700F90120FFF7E9
:1015C00011F90220FFF71EFB00BFFFF739FB0228CD
:1015D000FBD10020FFF706F9FFF73EFD10BD00002C
:1015E000002002400100240010B500210F48FFF741
:1015F000EAFD00210D48FFF7E1FD00210B48FFF750
:10160000FBFD42F6DF6242F210710848FFF7CEFDA3
:1016100000210648FFF7FAFD00210448FFF7F1FD1D
:1016200001210248FFF7D4FD10BD00000004004076
:101630001CB56846FFF7F2FB01220921C806FFF737
:1016400034FC02208DF8070000208DF804000220F1
:101650008DF806000002009000208DF80500694614
:101660004FF09040FFF7E4FB01220A214FF0904039
:10167000FFF71BFC02208DF8070000208DF8040006
:1016800002208DF806004002009000208DF8050031
:1016900069464FF09040FFF7CBFB00231A464FF40A
:1016A000E1310E48FFF700FE01210C48FFF7D0FEA4
:1016B00001210A48FFF7C7FE00210848FFF79DFEF9
:1016C00000210648FFF7BCFD01210448FFF7ABFDF0
:1016D000012203490148FFF71DFE1CBD00380140EF
:1016E00005000C00000000000000000001020304DF
:1016F00006070809000000000102030400000000C2
:101700000102030402040608020C08100000000095
:101710000000000001020304060708093C17000846
:101720000000002014000000B0030008501700085B
:10173000140000200C140000C0030008000000008A
:1017400000000000000000000000000000127A000D
:04000005080000CD22
:00000001FF
