:020000040800F2
:10400000000A0020E5400008314E0008714D00080C
:104010002D4E000845470008095100080000000027
:10402000000000000000000000000000014F000838
:104030004947000800000000FD4E00080941000843
:10404000FF400008FF400008FF400008FF40000854
:10405000FF400008FF400008FF400008FF40000844
:1040600000000000FF400008FF400008FF4000087B
:10407000FF400008FF400008FF400008000000006B
:10408000FF400008FF40000800000000FF4000085B
:10409000FF400008FF400008FF400008FF40000804
:1040A000FF400008FF400008FF4000086150000882
:1040B000FF400008000000000000000000000000B9
:1040C000FF40000800000000FF400008DFF810D0AB
:1040D00000F028FA00F022FB004800479D6000082D
:1040E000000A00200648804706480047FEE7FEE732
:1040F000FEE7FEE7FEE7FEE7FEE7FEE7FEE7FEE798
:10410000B54F0008CD40000830B410B503488047D3
:1041100030BCAE4630BC0248004770478962000898
:10412000A14F000830B50B46014600202022012493
:1041300009E021FA02F59D4205D303FA02F5491B75
:1041400004FA02F52844151EA2F10102F1DC30BD8B
:104150002DE9F05F0546002092469B4688460646BC
:10416000814640241BE0284641464746224600F04F
:1041700000FA53465A46C01A914110D311461846C8
:10418000224600F0E7F92D1A67EB01084F46224658
:104190000120002100F0DEF917EB00094E41201E3E
:1041A000A4F10104DFDC484631462A464346BDE817
:1041B000F09F2DE9FE4F804681EA0300C00F0C46B8
:1041C000009021F0004123F00045B8EB0200A94126
:1041D00005D24046214690461C460B46024623F037
:1041E0000040104347D0270DC7F30A00C3F30A511C
:1041F0000290401A019040286BDAC3F3130040F498
:10420000801B0098924620B10023D2EB030A63EB97
:104210000B0B01985946C0F14002504600F09AF944
:1042200006460D4650465946019A00F0B2F910EB89
:1042300008006141002487EA115284EAE7731A43B7
:1042400040D0009A62B3019A012A4FEA075215DC66
:10425000001B61EB02014FF0004202EA0752CDE978
:104260000042001C41F5801132462B4600F0B2F9A5
:1042700003B0BDE8F08F40462146F9E7001B61EB33
:104280000201001C41F5801300185B412018A2F5C3
:10429000001747EB030140EAD570B6196D4111E0F4
:1042A0006D084FEA360645EAC0754FEA0752001B13
:1042B00061EB0201001C41F5801149084FEA300012
:1042C0000019514132462B4603B0BDE8F04F00F0D3
:1042D00072B90098012240000023D0EB020263EB88
:1042E000E073009821464FEAE074B8EB000061EB00
:1042F0000401E9E783F000435BE781F0004158E700
:104300002DE9FE4F81EA030404F0004421F000414E
:1043100000944FF0000B23F0004350EA01045ED0FC
:1043200052EA03045BD0C3F30A54C1F30A552C4488
:10433000A4F2F3340194A0FB0254C1F3130141F43D
:104340008011C3F3130343F4801301FB024400FB09
:10435000034E840A970A44EA815447EA8357A4FB30
:10436000076802958D0A05FB07854FEA932C04FB2D
:104370000C542705029D4FEA065847EA1637B5EB5D
:1043800008056EEB070C870E920E47EA811742EA8A
:104390008312A7FB0201B6EB0B0164EB00042B0DAB
:1043A00043EA0C335E1844EB1C50DA465146E7FBF7
:1043B0000201C5F313044FEA0B3343EA14534FEAE7
:1043C0000432019C43EA0603A4F10C040294009C0D
:1043D000CDE900B400F0FEF803B0BDE8F08F002096
:1043E0000146F9E72DE9F04D81EA030404F0004BA2
:1043F00021F0004514464FF0000A23F0004150EA36
:10440000050220D054EA01021DD0C5F30A57024626
:10441000C5F31303C1F31300C1F30A5640F480152A
:1044200043F48013A7EB0608101BD64608F2FD38AC
:1044300073EB050002D308F1010801E092185B411B
:10444000B8F1000F03DA00200146BDE8F08D00202E
:104450004FF48011064684460EE0171B73EB0507E8
:1044600005D3121B63EB050306434CEA010C490814
:104470004FEA300092185B4150EA0107EDD152EA51
:10448000030012D082EA040083EA0501084305D044
:10449000101BAB4106D20122002306E000224FF0A0
:1044A000004302E06FF0010253101AEB06004CEBE0
:1044B000085110EB0A0041EB0B01BDE8F04D00F094
:1044C0007AB8C1F30A52C1F3130140F2FF3341F449
:1044D00080119A4202DA00200146704740F23343CD
:1044E0009A42A2F2334202DC524200F042B800F09B
:1044F00031B8000030B5041E71F1000404DB4FF048
:104500000044404264EB0101141E73F1000405DB1A
:104510001C464FF00043524263EB0403994208BF2C
:10452000904230BD1CB509480090094801900546ED
:10453000009C06E0E06840F0010394E8070098471B
:104540001034AC42F6D3FFF7C5FD0000747B0008C1
:10455000947B0008202A04DB203A00FA02F10020B4
:1045600070479140C2F1200320FA03F319439040B1
:104570007047202A04DB203A21FA02F0002170471C
:1045800021FA02F3D040C2F12002914008431946BB
:104590007047202A06DBCB17203A41FA02F043EAA3
:1045A000E07306E041FA02F3D040C2F120029140EC
:1045B00008431946704710B5141E73F1000408DA59
:1045C000401C41F1000192185B411A4301D120F0D7
:1045D000010010BD2DE9F04D92469B4611B1B1FA94
:1045E00081F202E0B0FA80F220329046FFF7B2FF8B
:1045F00004460F4640EA0A0041EA0B0153465A4678
:10460000084313D0114653EA010019D0C8F1400203
:104610005046FFF7AEFF05460E4650465946424605
:10462000FFF798FF084305D0012004E020463946F3
:10463000BDE8F08D0020054346EAE0762C43374381
:104640000A986305E40AA0EB08000022FD0A44EA88
:1046500047540A3002D500200146E9E70105101948
:104660006941DDE9084500196941BDE8F04DA2E75F
:104670002DE9F0410024061B254671F1000605DAFC
:1046800001240027D0EB070067EB0101161E73F130
:10469000000605DA0027D2EB0702012567EB0303CA
:1046A000FFF756FD86460E4617469C46AC4204D0A0
:1046B0000025D0EB050E65EB010624B10020D2EBFE
:1046C000000760EB030C704631463A466346BDE88E
:1046D000F08140EA01039B0703D009E008C9121FDB
:1046E00008C0042AFAD203E011F8013B00F8013BAC
:1046F000521EF9D27047D2B201E000F8012B491ED8
:10470000FBD270470022F6E710B513460A4604466E
:104710001946FFF7F0FF204610BD00007CB50748A2
:104720000090074801900546009C04E0204601687F
:1047300008448047241DAC42F8D17CBD947B00081E
:10474000987B0008FFE7FEE77047000082B0019009
:1047500040F20050C2F20000007818B9FFE70020D4
:1047600000900FE00198C0F3C62140F28042C2F2EF
:104770000002515CC0F3022021FA00F000F00100B9
:104780000090FFE7009802B07047000080B586B047
:1047900040F20050C2F2000080690390FFE700F091
:1047A000D1FA04900498039988422CD2FFE7EFF3E2
:1047B000108005900598029072B640F20050C2F247
:1047C0000000806901900198039988420ED1FFE7AB
:1047D000049840F20051C2F200018861086901307A
:1047E0000861BFF35F8F0120009002E0002000907D
:1047F000FFE7029810B9FFE762B6FFE7009808B933
:10480000FFE701E008E0FFE7049903A800F022FDBC
:104810000028C4D0FFE7FFE7049806B080BD000081
:1048200080B58CB04FF60061C0F20201099140F2F0
:10483000D851C2F2000108910790089820B1FFE713
:104840000798812803D3FFE700200A90AEE009987B
:10485000FFF77CFF18B9FFE701200A90A6E0FFF7F9
:1048600095FF0590BDF824000990EFF305800B90AB
:104870000B98099941F40022002818BF11460991AC
:1048800008980690079850B9FFE709980599002203
:10489000002300F08DF8019001980A9086E00798B7
:1048A00008281BD8FFE70020029003900699079A7A
:1048B00002A8FFF70EFF079800F00700099941EAE8
:1048C00000400990099840F040700599029A039BB6
:1048D00000F06EF8019001980A9067E000F03AFA53
:1048E0004FF4E02101EA0040049006980168406816
:1048F00003900291069808300690079808380790B0
:104900000498099908430990099840F08070059926
:10491000029A039B00F04CF80190019818B9FFE748
:1049200000200A9042E004984FF601710843099074
:10493000FFE7079809281CD3FFE70698016840683D
:10494000039002910698083006900798083807905F
:1049500009980599029A039B00F02AF8019009989A
:1049600001300990019818B9FFE700200A901DE076
:10497000DFE70020029003900699079A02A8FFF74C
:10498000A8FE099820F47F4009900798099941EA08
:1049900000200990099840F000700599029A039B45
:1049A00000F006F8019001980A90FFE70CB080BD76
:1049B00080B58CB00A900991089207930720059062
:1049C000FFE70598002863D0FFE700F0C7F90490DF
:1049D000049800F03F0040F28001C2F2000101EBB8
:1049E0000010069004984FF4700101EA80300190A5
:1049F0000A980199084309994FF0805202EAD101BF
:104A0000084308994FF0005202EA910108430799C0
:104A10004FF0804202EA5101084340F000600390E9
:104A200006980C30039900F0B9F903909DF80F0037
:104A30004007002827D5FFE7039880F00040039047
:104A4000039800F000400290099820F0004002997D
:104A5000084306990860089820F00040029908432E
:104A600006994860079820F000400299084306998B
:104A7000886006980C30039900F02EFB00F084F952
:104A800001200B9009E0FFE705980138059098E7B1
:104A900000F070F900200B90FFE70B980CB080BD80
:104AA00087B00590049103920498FE2804D8FFE78C
:104AB0000398FF2803D3FFE70020069036E000208C
:104AC00002900190FFE7019803282CD8FFE7059892
:104AD0000199C840C007F0B1FFE704980090FFE7D4
:104AE00000980399884215D8FFE7009800F0070165
:104AF000012202FA01F1029A02EBD00040F2804258
:104B0000C2F20002135C19431154FFE70098013010
:104B10000090E5E7FFE7029820300290FFE7019858
:104B200001300190CFE701200690FFE707B0704702
:104B300010B588B0002007900121069140F2005482
:104B4000C2F20004207040F28040C2F200008021D6
:104B5000FFF7D8FD00F008FCADF81200206A42F221
:104B60006B71CEF2A51188420FD0FFE740F20050E2
:104B7000C2F2000042F26B71CEF2A5110162BDF8E3
:104B8000121041800121C1611CE040F20050C2F2CC
:104B900000004088BDF8121088420AD0FFE7BDF837
:104BA000120040F20051C2F2000148800120C861A9
:104BB00007E040F20050C2F20000C1690131C1615A
:104BC000FFE7FFE740F20050C2F20000C069012891
:104BD00012D1FFE740F20050C2F200000021417004
:104BE00041608160C16040F28000C2F200004FF479
:104BF0008061FFF787FD20E000200090FFE700982C
:104C00003F2819D8FFE7009840F28001C2F2000166
:104C100001EB001005900598C07B4007002806D5E1
:104C2000FFE70598C16821F04061C160FFE7FFE739
:104C3000009801300090E2E7FFE740F20050C2F236
:104C40000000C069012818D1FFE7AFF30080012000
:104C50000290029820B1FFE700F078F8039002E09C
:104C600000200390FFE7039840F20051C2F20001D8
:104C7000486100208861086117E0AFF300800120DF
:104C80000290029820B1FFE700F060F8039002E084
:104C900000200390FFE7039840F20051C2F20001A8
:104CA0004861002088610861FFE7029830B3FFE7A0
:104CB00007980021FE22FFF7F3FE0F20EF21EF22DD
:104CC000FFF7EEFE0420FE21FE22FFF7E9FEFFF7CC
:104CD0005DFD0190019940F20050C2F2000043696D
:104CE000C2694FF60070C0F20030FFF761FE06980F
:104CF00018B1FFE700F004F8FFE7FFE708B010BDC8
:104D000010B582B040F20050C2F20000007818B135
:104D1000FFE70120019013E040F20050C2F20000D2
:104D200001240470FFF732FD009000994FF60170E6
:104D3000C0F2003000220023FFF73AFE0194FFE7A3
:104D400002B010BD80B500F0CBFF80BD80B501F092
:104D50005BFA80BD80B500F0CBFA80BD80B540F233
:104D60000050C2F20000043000F0ACFA80BD000038
:104D7000FFE7FEE780B540F20050C2F200000C30C1
:104D800000F0A0FA80BD000080B540F20050C2F2F1
:104D90000000083000F096FA80BD000087B0059052
:104DA0000491059800680390FFE79DF80F00400705
:104DB000002803D5FFE70020069033E0049803990C
:104DC00001F00041084340F080600290FFE7059940
:104DD00002980190039B019AFFE751E8000F984267
:104DE00009D1FFE7FFE741E8002303B106E0BFF385
:104DF0005F8F012104E0BFF32F8FFFE70021FFE762
:104E0000CA0712B9FFE70390FFE701F001008DF830
:104E100003009DF80300C0070028C6D0FFE70298F2
:104E20000690FFE7069807B070470000FFE7FEE72F
:104E30007047000086B0059004910020039005980B
:104E400000F0070002900298C0F10700052802D385
:104E5000FFE7042003E00298C0F10700FFE701909C
:104E600002980430062802D8FFE7002002E00298EA
:104E70000338FFE7009004980199012202FA01F13A
:104E80000139084000998840039B02FA01F1013979
:104E90001940084306B0704786B00590049103920C
:104EA000059800F0070002900298C0F1070005285D
:104EB00002D3FFE7042003E00298C0F10700FFE7F8
:104EC000019002980430062802D8FFE7002002E093
:104ED00002980338FFE7009004980199012202FA32
:104EE00001F10139084000998840039B02FA01F161
:104EF00001391940084306B07047000070470000B0
:104F00007047000040F24800C2F20000007820B173
:104F1000FFE7012808D0FFE73AE040F24800C2F27C
:104F20000000012101703AE040F24000C2F20000AE
:104F300001684268013142F1000201604260B1F152
:104F40000A0072F100000ED3FFE740F24000C2F207
:104F5000000000214160016040F24800C2F2000000
:104F600002210170FFE740F24000C2F20000016838
:104F7000406841F28832891A70F1000007D3FFE7D8
:104F800040F24800C2F200000021017007E006E094
:104F900040F24800C2F2000000210170FFE77047B4
:104FA00080B540F2E850C2F200000068804702F08D
:104FB000CFF880BD41F20000C4F20200016841F068
:104FC00001010160FFE741F20000C4F20200006845
:104FD000C0F34000012801D0FFE7F4E741F20400EC
:104FE000C4F20200016821F003010160FFE741F211
:104FF0000400C4F2020000688008800708B1FFE7DF
:10500000F5E741F20000C4F2020001684FF6FF72BA
:10501000CFF6F2621140016041F20400C4F20200D6
:105020000021016041F22C00C4F2020041F610712F
:10503000016041F23000C4F202004FF480110160BF
:1050400041F20800C4F202004FF41F0101604EF665
:105050000850CEF200004FF0006101607047000080
:1050600080B582B001F0B2FEA0B3FFE701F0A6FD6B
:10507000ADF80600BDF806005A280ED1FFE740F251
:105080005C00C2F20000007838B9FFE740F25C0033
:10509000C2F20000012101701BE0BDF80600A52846
:1050A0000FD1FFE740F25C00C2F200000078012857
:1050B00007D1FFE740F25C00C2F20000022101705C
:1050C00006E040F25C00C2F2000000210170FFE740
:1050D000FFE7FFE702B080BD85B00490039103981D
:1050E00020F0806002900498029901910199BFF329
:1050F0005F8FFFE750E8002F40E80013002BF9D145
:10510000FFE7009205B07047FFE7FEE781B08DF83A
:1051100003009DF9030000280FD4FFE79DF9030069
:1051200000F01F01012202FA01F140094EF20012C3
:10513000CEF2000242F82010FFE701B070470000F5
:105140004EF60C50CEF200000068C0F3022070470B
:105150004EF60C50CEF200000068C0F302207047FB
:1051600082B08DF8070000919DF9070000280AD44D
:10517000FFE7009800019DF907104EF20042CEF2C1
:10518000000288540BE0009800019DF8071001F020
:105190000F014EF61452CEF200028854FFE702B01F
:1051A0007047000082B08DF8070000919DF907005C
:1051B00000280AD4FFE7009800019DF907104EF27D
:1051C0000042CEF2000288540BE0009800019DF8E6
:1051D000071001F00F014EF61452CEF2000288546F
:1051E000FFE702B07047000083B00290029800F021
:1051F000070000904EF60C50CEF2000001680191BD
:1052000001994FF6FF02114001910199009A41EA7C
:1052100002210022C0F2FA5211430191019901606A
:1052200003B07047BFF34F8F4EF60C50CEF2000024
:10523000016801F4E0610422C0F2FA5211430160F6
:10524000BFF34F8FFFE700BFFDE7000080B500F020
:10525000CBFE80BD85B040F20052C2F2000218328F
:10526000049203900291049ADDF80CC00298019018
:10527000DCF80000019BFFE752E8001F81420BD1E0
:10528000FFE7BFF35F8FFFE742E8003000B106E0C1
:10529000BFF35F8F012204E0BFF32F8FFFE70022EF
:1052A000FFE7D00718B9FFE7CCF80010FFE702F0DE
:1052B00001008DF803009DF8030000F0010005B027
:1052C0007047000083B00290029801210191DDF83F
:1052D00004C0FFE750E8002F02EB0C0340E8003168
:1052E0000029F7D1FFE70092009803B07047000053
:1052F00082B040F20050C2F20000013001900198EB
:1053000001218DF803109DF803C0FFE7D0E84F2F6F
:1053100002EB0C03C0E8413F0029F7D1FFE78DF80D
:1053200002209DF8020002B07047000080B582B0F4
:1053300000F05AFF0191009001F036F880B1FFE7CC
:1053400000F052FF0191009000F064FF009A019B71
:1053500080185941013041F1000100900191FFE7AF
:105360000098019902B080BD84B047F63030C0F695
:1053700000000390182002904FF6FF70ADF8060071
:10538000FFE7029890B3FFE70398411C0391007870
:10539000BDF8061081EA0020ADF806000820009054
:1053A000FFE70098F0B1FFE7BDF806000004002811
:1053B0000DD5FFE7BDF806004000ADF80600BDF8CA
:1053C000060041F221014840ADF8060005E0BDF8B5
:1053D00006004000ADF80600FFE7FFE7009801383F
:1053E0000090DEE7029801380290CAE7BDF8060097
:1053F00004B0704781B000208DF803009DF80300D1
:1054000041F20401C4F202010A6800F00F0022F028
:10541000F00242EA0010086001B0704781B000203D
:105420008DF803009DF8030041F20401C4F202016B
:105430000A6800F0070022F4E06242EA00200860F7
:1054400001B0704781B000208DF803009DF8030083
:1054500041F20401C4F202010A6800F0070022F4DC
:10546000605242EAC020086001B0704781B08DF8F8
:1054700003009DF80300012809D1FFE741F2540021
:10548000C4F20200016841F03001016008E041F21D
:105490005400C4F20200016821F030010160FFE70E
:1054A00001B0704781B08DF8030001208DF8020033
:1054B0009DF80300042843D8DFE800F0030E1D2CFC
:1054C00037009DF8020041F20001C4F202010A68AF
:1054D00060F300020A6034E09DF8020041F200012E
:1054E000C4F202010A6800F0010022F4803242EAAC
:1054F0000040086025E09DF8020041F20001C4F27E
:1055000002010A6800F0010022F0807242EA0060A5
:10551000086016E09DF8020041F22001C4F2020189
:105520000A6860F300020A600BE09DF8020041F295
:105530002401C4F202010A6860F300020A6000E07C
:10554000FFE701B07047000080B58CB00B900020E1
:105550000A90099008900790069005900490039097
:10556000029000F0D5FA8DF807009DF8070030B1E1
:10557000FFE7012824D0FFE7022828D0C1E041F24C
:105580005400C4F202000068400AC00780B1FFE77F
:1055900041F23000C4F202000068400EC00738B18A
:1055A000FFE70B9846F60041C0F2DC21016006E0FF
:1055B0000B9841F20021C0F27A010160FFE7A7E0F9
:1055C0000B9841F20021C0F27A010160A0E041F2A3
:1055D0000400C4F202000068C0F30040089041F2E9
:1055E0002C00C4F2020000680021B1EBD07F47D14B
:1055F000FFE741F20400C4F202000168C1F38341F5
:105600000A910068C0F341700990099820B9FFE73A
:105610000A980F2807D1FFE709980A9901EB0010B3
:1056200001300A9003E00A9802300A90FFE70898D8
:1056300048B9FFE70A9840F60011C0F23D0148431F
:105640000B9908601BE041F20400C4F202000068FC
:10565000400CC00748B1FFE70A9840F60011C0F2BD
:105660003D0148430B99086008E00A9841F2002187
:10567000C0F27A0148430B990860FFE7FFE73FE07B
:1056800041F22C00C4F202000168C1F3031104913D
:105690000168C1F308210391006800F0070002903F
:1056A000089830B9FFE740F60010C0F23D000590C1
:1056B00015E041F20400C4F202000068400CC0078B
:1056C00030B1FFE740F60010C0F23D00059005E064
:1056D00041F20020C0F27A000590FFE7FFE705984D
:1056E0000399A0FB0101DDF810C0029B01229A4042
:1056F0000CFB02F20023FEF72BFD0B990860FFE77D
:1057000006E00B9841F20021C0F27A010160FFE748
:1057100041F20400C4F202000168C1F303110791D1
:10572000079947F64832C0F60002515C06910B9982
:105730000A68069BDA404A600168C1F302210791BA
:10574000079947F6583CC0F6000C1CF8011006916A
:105750000B994B68069A23FA02F2CA600168C1F3FA
:10576000C221079107991CF8011006910B994A680C
:10577000069BDA408A600168C1F3007107910799BE
:105780000068C0F3813040EA81000790079847F62F
:105790006031C0F60001085C06900B988168069A9B
:1057A000B1FBF2F101610CB080BD000082B001904C
:1057B00000208DF80300BDF8060041F20001C4F29C
:1057C00002014058019901F01F01C840C00720B9EB
:1057D000FFE700208DF8030003E001208DF80300AF
:1057E000FFE79DF8030002B07047000082B001900F
:1057F00001208DF803009DF8030001280FD1FFE779
:10580000019800F01F01012202FA01F1000C41F29F
:105810000002C4F202028358194381500FE001983C
:1058200000F01F01012202FA01F1000C41F2000216
:10583000C4F20202835823EA01018150FFE702B05B
:105840007047000083B000208DF80B001D218DF8FB
:105850000A1001908DF803009DF80B00B0B9FFE726
:1058600041F20400C4F20200016821F480310160B9
:1058700040F60010C0F23D00019041F23000C4F249
:105880000200016841F00071016029E041F204006A
:10589000C4F20200016841F4803101609DF80B0000
:1058A00001280ED1FFE741F20020C0F27A000190FA
:1058B00041F20400C4F20200016821F400310160E9
:1058C0000DE040F60010C0F23D00019041F20400EE
:1058D000C4F20200016841F400310160FFE7FFE714
:1058E000019848F26121C0F23B0188420CD3FFE7E6
:1058F000019844F63F31C0F24C01884204D8FFE7DA
:1059000000208DF8030068E0019845F68101C0F29F
:105910004F0188420CD3FFE7019845F60F61C0F2B2
:105920005F01884204D8FFE701208DF8030053E0AF
:10593000019843F29551C0F2770188420CD3FFE7FA
:10594000019841F60F31C0F27F01884204D8FFE789
:1059500002208DF803003EE0019841F61131C0F2BB
:105960007F0188420CD3FFE701984BF61F41C0F23C
:10597000BE01884204D8FFE703208DF8030029E028
:10598000019846F62931C0F2EE0188420CD3FFE7B8
:1059900001984DF22F71C0F23D11884204D8FFE703
:1059A00004208DF8030014E001984DF23171C0F22B
:1059B0003D1188420CD3FFE701984EF6D711C0F293
:1059C000DC11884204D8FFE705208DF80300FFE7CB
:1059D000FFE7FFE7FFE7FFE7FFE79DF80A0000F0BA
:1059E0000F0041F20401C4F202010A6822F47012AD
:1059F00042EA804008609DF80A0000F030000A6822
:105A000022F0C04242EA406008609DF8030041F283
:105A10002C01C4F202010A6800F0070022F0E062E3
:105A200042EA0060086003B07047000041F20000E5
:105A3000C4F20200016841F001010160FFE741F298
:105A40000000C4F202000068C0F34000012801D049
:105A5000FFE7F4E741F20400C4F20200016821F01C
:105A600003010160FFE741F20400C4F20200006894
:105A70008008800708B1FFE7F5E741F20000C4F2B3
:105A8000020001684FF6FF72CFF6F262114001602A
:105A900041F20400C4F202000021016041F22C0036
:105AA000C4F2020041F61071016041F23000C4F20C
:105AB00002004FF48011016041F20800C4F20200BC
:105AC0004FF41F010160704781B002208DF8030080
:105AD0009DF8030041F20401C4F202010A6860F378
:105AE00001020A6000BF00BF00BF00BF00BF00BFCF
:105AF00000BF00BF00BF00BF00BF00BF00BF00BFAE
:105B000000BF00BF00BF00BF00BF00BF01B07047B3
:105B100041F20400C4F202000068C0F38100704743
:105B200042F21000C4F20200016841F080010160FD
:105B30007047000081B003208DF8030042F20C0092
:105B4000C4F202000068C00720B1FFE700208DF812
:105B500003001FE042F20C00C4F20200006880085B
:105B6000C00720B1FFE701208DF8030011E042F2E9
:105B70000C00C4F2020000680009C00720B1FFE772
:105B800002208DF8030003E003208DF80300FFE7F7
:105B9000FFE7FFE79DF8030001B0704780B582B0D2
:105BA000019003208DF80300FFF7C4FF8DF8030078
:105BB000FFE79DF80310002029B9FFE701980028AE
:105BC00018BF0120FFE7C00740B1FFE7FFF7B2FFB2
:105BD0008DF80300019801380190EAE7019820B997
:105BE000FFE704208DF80300FFE79DF8030002B0F3
:105BF00080BD000010B582B043F60000C0F6000082
:105C0000019003208DF8030042F21004C4F2020454
:105C1000206840F002002060019842F21401C4F2B2
:105C200002010860206840F0400020604FF0804092
:105C3000FFF7B4FF8DF80300206820F00200206019
:105C400002B010BD42F20400C4F2020040F223117F
:105C5000C4F26751016048F6AB11CCF6EF51016018
:105C60007047000010B584B043F60000C0F6000095
:105C7000039044F63830C4F25410029003208DF89B
:105C8000070042F21004C4F20204206840F0010050
:105C900020600298039908604FF48010FFF77EFFA0
:105CA0008DF80700206820F00100206004B010BDCE
:105CB00080B584B002900191019840F20001C2F2D7
:105CC0000001884205D1FFE7029800F08DFB0390A8
:105CD00003E04FF0FF300390FFE7039804B080BD6E
:105CE00010B584B000240394029400F069FA019086
:105CF0000094FFE70098011D009180BBFFE7FFF7CC
:105D000015FB40F2B852C2F20002D2E9002380181B
:105D10005941029003910298039940F2A052C2F2B5
:105D20000002D2E90023801A71EB030009DAFFE7D1
:105D300040F2A050C2F20000D0E9000103910290AD
:105D400008E00298039940F2A052C2F20002C2E9B0
:105D50000001FFE7FFE7019800F02EFBCAE7029879
:105D6000039904B010BD000082B040F20040C4F6B8
:105D7000000001904FF40060ADF80200BDF8020091
:105D80000199886202B0704782B040F20040C4F6C8
:105D9000000001904FF40060ADF80200BDF8020071
:105DA0000199886102B0704781B0009000984FF669
:105DB000FF710160009800218171009801710098C5
:105DC000417100980121C17101B0704783B0029008
:105DD00001910020ADF8000001980068ADF80200C4
:105DE000FFE7BDF80200012861DBFFE7BDF8020014
:105DF000C007002850D0FFE7BDF800004100032095
:105E000000FA01F1029A136823EA01011160019975
:105E10008979BDF8002052009140029A1368194315
:105E20001160BDF80010012202FA01F1029A5368D4
:105E300023EA0101516001990979BDF800209140E0
:105E4000029A536819435160BDF80010490000FAE6
:105E500001F1029A936823EA010191600199C979DD
:105E6000BDF8002052009140029A93681943916056
:105E7000BDF80010490088400299CA6822EA000073
:105E8000C86001984079BDF8001049008840029927
:105E9000CA681043C860FFE7BDF802004008ADF8CB
:105EA0000200BDF800000130ADF8000099E703B032
:105EB0007047000082B040F20040C4F6000001903C
:105EC0004FF40060ADF8020000208DF80100019849
:105ED0004069BDF80210084204D0FFE701208DF8A8
:105EE000010003E000208DF80100FFE79DF80100AC
:105EF00002B0704784B04FF0904103918DF80B00D1
:105F000001208DF80A000020019000909DF80A10F1
:105F10009DF80B2002F007029200914001919DF83C
:105F20000B10B0EBD10F16D0FFE79DF80B0000F07F
:105F3000070080000F2101FA00F003994A6A22EA63
:105F4000000048620398406A019908430090009855
:105F50000399486215E09DF80B0000F007008000EF
:105F60000F2101FA00F003990A6A22EA0000086290
:105F70000398006A01990843009000980399086209
:105F8000FFE704B07047000080B540F25C00C2F249
:105F90000000007802280BD1FFE7FFF753FEFFF760
:105FA00029FEFFF75FFEFFF7BBFD00F0E9F8FFE712
:105FB00080BD000080B543F60000C0F60000006818
:105FC00044F63831C4F25411884207D1FFE7FFF795
:105FD00039FEFFF70FFEFFF7A3FDFFE780BD0000CE
:105FE00080B5FFF7D1FF80BD10B584B001208DF8DA
:105FF0000F0000248DF80E4000F0E2F802900194AA
:10600000FFE70198011D019180B9FFE79DF80F009E
:1060100000F0010000F006F901208DF80E0000F0FC
:10602000C7F8FFE7029800F0C7F9EAE700F078FD4B
:1060300040F2B850C2F200000021C0E9001140F265
:10604000C050C2F20000C0E9001140F2C850C2F2D4
:106050000000C0E9001140F2A050C2F20000C0E907
:10606000001140F2B050C2F20000C0E9001140F24D
:10607000A850C2F20000C0E90011AFF3008004B0E4
:1060800010BD000080B5FFF715FF18B1FFE7FFF75F
:106090006BFE02E0FFF778FEFFE780BD10B582B02F
:1060A0000020019000F06EF801F00AF800F0F6FF11
:1060B00000F0A8FF01F058F801F082F800F082FF2C
:1060C00000F0D2FB40F2E854C2F20004A26845F6A8
:1060D000E170C0F600000A219047A26846F28500F0
:1060E000C0F6000064219047A26846F2E130C0F695
:1060F00000006421904740F20400C2F200004EF21A
:10610000C011C0F2E4010160FFF76EFFFEF710FD61
:10611000FFF750FF47F66830C0F6000001F08EF838
:10612000FFE740F2E850C2F2000040688047F8E71D
:1061300080B584B01B208DF80F00002002900190E4
:106140000090FFF705F80299019AFEF7A5FE00906E
:106150009DF90F000099FFF725F89DF90F00FEF754
:10616000D5FF04B080BD000080B582B003208DF85B
:1061700007009DF80700FFF737F802B080BD000068
:10618000FFF750F882B04FF0006001904FF480406C
:106190000090019800994FF68072C1F6FF7211408D
:1061A00008434EF60851CEF20001086002B0704775
:1061B0004EF60450CEF200004FF0007101607047BF
:1061C00082B0EFF3108001900198009072B60098B1
:1061D00002B0704782B0EFF31080019001980090F8
:1061E00072B6009802B070474EF21400CEF2000072
:1061F00000684EF21801CEF200010968401A4FF013
:10620000000161F10001704740F20400C2F2000099
:10621000006870474EF21400CEF2000000680021C2
:106220007047000080B584B08DF80F00FFE79DF83F
:106230000F00C00708B1FFE724E0FFF7CBFF029093
:1062400000200190FFE70198011D0191C8B9FFE707
:106250004EF21000CEF20000002101604EF2140256
:10626000CEF200026FF07F4313604EF21802CEF2BE
:106270000002116007210160FFE7029800F0A6F814
:10628000E1E7FFE704B080BD70B58EB0FFF7C2FF55
:10629000013041F100010C900D91FFF791FF0B903F
:1062A00000200A90FFE70A98011D0A91E8BBFFE76A
:1062B0000C980D9940F2B852C2F20002D2E90034B3
:1062C000C0186141C2E90001FFE740F2D056C2F2B6
:1062D000000630680C990D9A401842F100010890B0
:1062E00009910898099940F20805C2F200052A6848
:1062F0000023FEF7BDF9079106900698079940F232
:10630000C052C2F20002D2E90034C0186141C2E9B1
:106310000001089806992A6801FB12003060FFE727
:10632000FFE70B9800F048F8BDE7FFF749FF05903D
:1063300000200490FFE70498011D049188BBFFE74B
:10634000FFE740F2D454C2F2000420680C990D9A81
:10635000401842F10001029003910298039940F223
:106360000C05C2F200052A680023FEF781F90191AD
:1063700000900098019940F2C852C2F20002D2E99E
:106380000036C0187141C2E90001029800992A68DC
:1063900001FB12002060FFE7FFE7059800F00CF812
:1063A000C9E70EB070BD00004EF60450CEF20000FA
:1063B0000068C0F38060704782B000900098019040
:1063C000019880F3108802B07047000082B00090FE
:1063D00000980190019880F3108802B07047000087
:1063E00080B5FEF78FFD80BD10B582B0009040F201
:1063F000E050C2F200000068082804D3FFE74FF025
:10640000FF30019021E0009840F2E051C2F200011B
:106410000A68531C0B6040F2D853C2F20003985430
:106420000868082804D0FFE700980A280AD1FFE787
:1064300040F2E054C2F200042068FEF7F1F90020B7
:106440002060FFE700980190FFE7019802B010BDBF
:1064500080B58AB0002009900890079006900590BA
:106460000490039002900190FFF752FB8DF8030017
:106470009DF8030030B1FFE701282AD0FFE702288A
:1064800031D0D6E041F25400C4F202000068400A64
:10649000C00798B1FFE741F23000C4F20200006883
:1064A000400EC00750B1FFE740F20400C2F2000006
:1064B00046F60041C0F2DC21016009E040F2040030
:1064C000C2F2000041F20021C0F27A010160FFE750
:1064D000B9E040F20400C2F2000041F20021C0F233
:1064E0007A010160AFE041F20400C4F202000068EA
:1064F000C0F30040079041F22C00C4F20200006893
:106500000021B1EBD07F50D1FFE741F20400C4F28B
:1065100002000168C1F3834109910068C0F3417032
:106520000890089820B9FFE709980F2807D1FFE7DE
:106530000898099901EB00100130099003E00998CF
:1065400002300990FFE7079860B9FFE7099840F625
:106550000011C0F23D01484340F20401C2F20001C3
:10656000086021E041F20400C4F202000068400C1F
:10657000C00760B1FFE7099840F60011C0F23D0185
:10658000484340F20401C2F2000108600BE00998A0
:1065900041F20021C0F27A01484340F20401C2F204
:1065A00000010860FFE7FFE742E041F22C00C4F27F
:1065B00002000168C1F3031103910168C1F30821CE
:1065C0000291006800F007000190079830B9FFE7DA
:1065D00040F60010C0F23D00049015E041F20400C6
:1065E000C4F202000068400CC00730B1FFE740F67B
:1065F0000010C0F23D00049005E041F20020C0F21E
:106600007A000490FFE7FFE704980299A0FB0101DC
:10661000DDF80CC0019B01229A400CFB02F2002322
:10662000FDF796FD40F20401C2F200010860FFE7A9
:1066300009E040F20400C2F2000041F20021C0F281
:106640007A010160FFE741F20400C4F20200006831
:10665000C0F303100690069847F64831C0F60001D3
:10666000085C059040F20400C2F200000168059A3F
:10667000D14001600AB080BD81B000208DF80300D8
:106680009DF80300042809D1FFE74EF21000CEF276
:106690000000016841F00401016008E04EF21000C2
:1066A000CEF20000016821F004010160FFE701B0B3
:1066B0007047000083B00190ADF8021040F2245002
:1066C000C2F2000090F8780007282FDCFFE701985D
:1066D00040F22451C2F2000101F1180291F8783021
:1066E00003EB430342F82300BDF8020091F8783031
:1066F00003EB430302EB8303D880BDF8020091F85B
:10670000783003EB430302EB8303988091F8780021
:1067100000EB400002EB80000022027291F878004A
:10672000013081F878008DF80B2003E001208DF80E
:106730000B00FFE79DF80B0003B0704783B001909A
:1067400040F22450C2F2000090F8780001287BDB70
:10675000FFE74EF21000CEF20000016821F00101C7
:10676000016000208DF80300FFE79DF8030040F270
:106770002451C2F2000191F87810884263DAFFE7F1
:106780009DF8030000EB400040F22451C2F20001EA
:1067900001EB80008069019988424DD1FFE740F20A
:1067A0002451C2F2000101F1180091F87820013A59
:1067B00081F8782091F8782002EB420250F82220EC
:1067C0009DF8033003EB430340F8232091F8782031
:1067D00002EB420200EB8202D2889DF8033003EB09
:1067E000430300EB8303DA8091F8782002EB420246
:1067F00000EB820292889DF8033003EB430300EB29
:1068000083039A8091F8781001EB410100EB81013C
:10681000097A9DF8032002EB420200EB820001722C
:106820004EF21000CEF20000016841F0010101605B
:1068300000208DF80B0013E0FFE79DF80300013006
:106840008DF8030091E7FFE74EF21000CEF2000052
:10685000016841F00101016001208DF80B00FFE7A4
:106860009DF80B0003B0704710B540F22450C2F2FF
:10687000000046F6E101C0F60001416046F6B52190
:10688000C0F60001016046F2B561C0F6000181600A
:1068900046F23D71C0F60001C16046F61D21C0F60A
:1068A0000001016146F69511C0F600014161002129
:1068B00080F87810D0F800C0D0F804E08368C16890
:1068C0000269406940F2E854C2F20004606122614A
:1068D000E160A360C4F804E0C4F800C010BD00008B
:1068E00080B582B000208DF80700FFE79DF8070013
:1068F00040F22451C2F2000191F87810884246DA41
:10690000FFE79DF8070000EB400040F22451C2F27F
:10691000000101EB8000808B90BBFFE79DF8070032
:1069200000EB400040F22451C2F2000101EB800074
:1069300090F82000012823D0FFE79DF8070000EB26
:10694000400040F22451C2F20001183101EB8000F6
:10695000C28882809DF8070000EB400051F82000BB
:1069600068B1FFE79DF8070000EB400040F22451BA
:10697000C2F2000101EB800080698047FFE7FFE77A
:10698000FFE79DF8070001308DF80700AEE702B081
:1069900080BD000083B001908DF8031000208DF8B9
:1069A0000200FFE79DF8020040F22451C2F200010C
:1069B00091F87810884228DAFFE79DF8020000EB92
:1069C000400040F22451C2F2000101EB80008069D6
:1069D0000199884212D1FFE79DF803009DF802104B
:1069E00001EB410140F22452C2F2000202EB8101AC
:1069F00081F8200000208DF80B000AE0FFE79DF8E9
:106A0000020001308DF80200CCE701208DF80B0068
:106A1000FFE79DF80B0003B07047000083B00190C2
:106A2000ADF8021000208DF80100FFE79DF801008D
:106A300040F22451C2F2000191F87810884231DA14
:106A4000FFE79DF8010000EB400040F22451C2F244
:106A5000000101EB80008069019988421BD1FFE7AA
:106A6000BDF802009DF8011001EB410140F22452F3
:106A7000C2F20002183202EB81018880BDF80200E8
:106A80009DF8011001EB410102EB8101C88000205B
:106A90008DF80B000AE0FFE79DF8010001308DF84A
:106AA0000100C3E701208DF80B00FFE79DF80B0004
:106AB00003B0704781B000208DF80300FFE79DF818
:106AC000030040F22451C2F2000191F8781088428C
:106AD00023DAFFE79DF8030000EB400040F2245169
:106AE000C2F2000101EB8000808B01280EDBFFE782
:106AF0009DF8030000EB400040F22451C2F2000177
:106B000001EB8000818B01398183FFE7FFE79DF86E
:106B1000030001308DF80300D1E701B07047000099
:106B200080B584B0FFF770FB039003984DF6836146
:106B3000C4F21B31A0FB0101880C40F20C01C2F22F
:106B400000010860039844F6D351C1F26201A0FB32
:106B50000101880940F20801C2F200010860FFF754
:106B60002FFB029000200190FFE70198011D019189
:106B700008BBFFE7FFF7B4F840F25002C2F2000290
:106B8000C2E90001FFE7BFF34F8FBFF36F8FFFE74D
:106B9000FFF7A6F840F25001C2F20001D1E900125D
:106BA000401A40F25801C2F200010860FFE7029863
:106BB000FFF702FCD9E704B080BD000081B043F6C6
:106BC0000000C4F2010000900098406880B201B05B
:106BD0007047000082B043F60000C4F2010001904B
:106BE00001208DF803009DF803000199CA6800F0A8
:106BF000010022F4005242EA4030C86002B07047FF
:106C000082B043F60000C4F20100019000208DF82C
:106C100003009DF8030058B9FFE70198416921F48A
:106C2000807141610198416921F40071416132E054
:106C30009DF8030001280BD1FFE70198416941F459
:106C4000807141610198416921F40071416121E045
:106C50009DF8030002280BD1FFE70198416921F458
:106C6000807141610198416941F40071416110E016
:106C70009DF8030003280BD1FFE70198416941F417
:106C8000807141610198416941F400714161FFE700
:106C9000FFE7FFE7FFE702B07047000010B58AB0DA
:106CA00043F60004C4F2010409944FF4E130089063
:106CB00000208DF81F008DF81E0002A8FEF744FC8E
:106CC0000998A04203D1FFE70498019002E00598DB
:106CD0000190FFE7019800EB800040000899B0FBAD
:106CE000F1F0009000984CF6CD41CCF6CC41A0FBE1
:106CF0000112D10801EB8101A0EB410004280AD860
:106D0000FFE700984CF6CD41CCF6CC41A0FB010149
:106D1000C80800900BE000984CF6CD41CCF6CC4171
:106D2000A0FB0101012000EBD1000090FFE7BDF8BE
:106D3000000009998A684FF6FF739A4310448860EF
:106D40009DF81F000999CA6800F0010022F48052E2
:106D500042EA0030C8609DF81E0009990A6900F0F7
:106D6000030022F4405242EA003008610AB010BD2C
:106D700083B043F60000C4F2010002900520C0F287
:106D80000C00019001208DF803009DF803000128FC
:106D90000CD1FFE7019800F01F01012202FA01F176
:106DA000029A000C1358194311500CE0019800F09E
:106DB0001F01012202FA01F1029A000C135823EA82
:106DC00001011150FFE703B07047000084B043F6A3
:106DD0000000C4F2010002902020019000208DF8F4
:106DE0000300019801285FD0FFE7022855D0FFE794
:106DF000042852D0FFE7082837D0FFE7102845D0F5
:106E0000FFE720282AD0FFE7402820D0FFE780288E
:106E100016D0FFE7B0F5807F0BD0FFE7B0F5007F1D
:106E200049D1FFE702984069C0F380208DF8030044
:106E300045E002980069C0F380108DF803003EE041
:106E40000298C068C0F3C0108DF8030037E00298C4
:106E5000C068C0F380108DF8030030E00298C0686D
:106E6000C0F340108DF8030029E00298C068410982
:106E70000120C90729B9FFE70298406900F0010025
:106E8000FFE700F001008DF8030018E00298C068E9
:106E9000C0F300108DF8030011E00298406900F083
:106EA00001008DF803000AE00298C068C0F30020DA
:106EB0008DF8030003E000208DF80300FFE79DF844
:106EC0000300012804D0FFE700208DF80F000DE03B
:106ED000029800680199084204D0FFE701208DF86C
:106EE0000F0003E000208DF80F00FFE79DF80F0072
:106EF00004B0704782B043F60000C4F20100019074
:106F000000208DF803009DF8030058B9FFE70198B1
:106F1000C16821F40071C1600198C16821F48061E9
:106F2000C16021E09DF8030001280BD1FFE7019823
:106F3000C16821F40071C1600198C16841F48061A9
:106F4000C16010E09DF8030002280BD1FFE7019813
:106F5000C16841F40071C1600198C16841F4806169
:106F6000C160FFE7FFE7FFE702B0704782B043F67A
:106F70000000C4F20100019001208DF803009DF88B
:106F800003000199CA6800F0010022F0040242EAFD
:106F90008000C86002B0704782B043F60000C4F2BF
:106FA0000100019001208DF803009DF80300019974
:106FB000CA6800F0010022F0080242EAC000C8607E
:106FC00002B0704710B582B06C462046FEF7ECFE6A
:106FD000FEF7DAFE02208DF8070000208DF804008D
:106FE00001218DF806104FF4006100918DF8050025
:106FF00040F20040C4F600002146FEF7E7FE02B072
:1070000010BD000080B5FFF7AFF8FEF799F800213A
:10701000FDF710FF01466FF00B00FEF7A1F8FEF739
:107020008FF80021FDF706FF01466FF00A00FEF71A
:1070300097F8FEF785F80021FDF7FCFE01466FF09A
:107040000900FEF78DF8FEF77BF80021FDF7F2FE50
:1070500001466FF00400FEF783F8FEF771F8002197
:10706000FDF7E8FE01466FF00300FEF779F8FEF742
:1070700067F80021FDF7DEFE01466FF00100FEF724
:107080006FF8FEF75DF80F21FDF7D4FE01464FF0D3
:10709000FF30FEF765F8FFF74BF880BD80B5112093
:1070A000C0F21400FEF7A2FB1220C0F21400FEF79B
:1070B0009DFB0E20C0F21800FEF798FB80BD00007B
:1070C00080B5FEF7B3FC42F20000C4F2020040F2C9
:1070D000531101600420FEF7E5F9FFE70120C0F23B
:1070E0002400FEF763FB012801D0FFE7F6E700204C
:1070F000FEF7D8F9FFE70120FEF758FB012801D081
:10710000FFE7F8E7FEF79EFB0220FEF7CBF9FFE76B
:107110001920FEF74BFB012801D0FFE7F8E7FEF747
:1071200069F9FEF78FF9FEF779F90120FEF79EF96C
:10713000FEF7CAFCFFE7FEF7EBFC022801D0FFE7F1
:10714000F9E70020FEF792F9FFF782F980BD000011
:1071500080B500F001F880BD40F2E450C2F20000BA
:10716000016801310160704710B586B000240094B9
:1071700001A8FEF7E9F90298C0080090FFF77CFA31
:10718000009844F6D351C1F26201A0FB01014FF017
:10719000FF3000EB91104EF21401CEF200010860B6
:1071A0004EF21800CEF2000004604EF21000CEF253
:1071B0000000016841F00301016006B010BD00004D
:1071C00070B582B06C462046FEF7EEFD0920FEF752
:1071D00091FE02258DF8075000268DF804608DF889
:1071E00006504FF4007000908DF805604FF090400D
:1071F0002146FEF7EBFD0A20FEF77CFE8DF80750D6
:107200008DF804608DF806504FF4806000908DF882
:1072100005604FF090402146FEF7D8FDFFF73EFD98
:10722000FFF7BAFEFFF7A2FEFFF764FEFFF7E8FCE8
:10723000FFF79EFDFFF7CEFC02B070BD0FB4054B0B
:1072400010B503A9044A029800F0DAF810BC5DF802
:1072500014FB0000B15C00080000002002E008C838
:10726000121F08C1002AFAD170477047002001E0C0
:1072700001C1121F002AFBD1704700002DE9FF5FFA
:1072800082B00021DDE90430020DDDF840B0034397
:1072900018D044F61050A2F2FF3242431514119850
:1072A00001281FD0A5EB0B00401C5FEA000A4FF03D
:1072B00000064E4FDFF83891B046504615D5CAF15A
:1072C000000413E0119801244AA3012801D16FEAB8
:1072D0000B010298119AC0E90031C0E9024206B0E0
:1072E000BDE8F09FCBF10000DFE704460021404AF3
:1072F000491842EB0450CDE9001012E0E00707D036
:1073000032463B4640464946FCF7FAFF80468946EE
:1073100032463B4610461946FCF7F2FF06460F463A
:107320006410002CEAD1DDE90401DDE90023BAF1A3
:10733000000F06DAFCF7E4FF42464B46FCF7E0FF9D
:1073400005E0FDF74FF842464B46FDF74BF8044683
:107350000E460022284BFDF7CDF803D84FF0FF3042
:10736000014607E00022254B20463146FCF721FF6D
:10737000FDF7A7F8102409E0002C0ADB0A220023FD
:10738000FCF7E6FE039B30321A55641E50EA0102F8
:10739000F2D1641C039AC4F111031444119A012A16
:1073A00003D0012208430DD10AE0084304D0002095
:1073B0004FF0110B119072E7A3EB0B056D1E0DE062
:1073C0005B4504DD4FF0000205F1010504E003DA3E
:1073D0004FF00002A5F10105002AECD002981199A6
:1073E000C0E90231C0E9004579E70000000014401F
:1073F0000000F03F300000000000F0430000E03FDC
:107400002DE9FF4F95B09B468946064600250FE2C1
:10741000252877D100242746F84A0121059400E069
:10742000044316F8013F203B01FA03F01042F7D164
:1074300030782A2811D06FF02F033078A0F1300275
:10744000092A16D8059A44F0020402EB820203EBE3
:1074500042021044761C0590EFE759F8042B059280
:10746000002A03DA504244F40054059044F0020428
:10747000761C30782E2816D116F8010F44F004043B
:107480002A280DD06FF02F023078A0F13003092B9D
:1074900009D807EB870302EB4303C718761CF3E711
:1074A00059F8047B761C30786C280FD006DC4C2809
:1074B00017D068280DD06A2814D104E0742810D0A1
:1074C0007A280FD10DE044F400140AE044F480144B
:1074D00001E044F440147278824202D104F5801431
:1074E000761C761C307866280BD013DC582877D0B1
:1074F00009DC002875D04528F6D04628F4D0472866
:107500001AD19DE118E0632835D0642879D0652828
:1075100012D195E1702873D008DC6728F1D0692872
:107520006FD06E280DD06F2806D1B5E073282CD00F
:10753000752875D0782874D05A46179990476D1CD5
:1075400075E1C4F30250022809D003280DD0D9F800
:10755000001004280DD00D6009F1040967E1D9F885
:107560000010EA17C1E90052F6E7D9F800100D80C3
:10757000F2E70D70F0E719F8041B8DF800100020F9
:107580008DF80100EA46012003E059F804AB4FF002
:10759000FF3061074FF0000102D40DE008F1010156
:1075A0008846B9420FDA8045F8DB1AF8081000293E
:1075B000F4D108E008F1010188468142FADB1AF8AB
:1075C00008100029F6D105985B46A0EB0807214674
:1075D0003846179A00F094FA284400EB080507E0B3
:1075E0004DE029E10DE01AF8010B5A461799904732
:1075F000B8F10108F7D25B4621463846179A13E1E5
:1076000042E00A220092C4F302524FF0000A022A1A
:1076100008D059F804CB032A4FEAEC710AD00DE0E8
:1076200029E02AE009F1070121F00702F2E802C18E
:10763000914609E00FFA8CFC4FEAEC71042A03D161
:107640004FFA8CFC4FEAEC71002907DA0A46002158
:10765000DCF1000C61EB02012D2202E0220504D5D1
:107660002B228DF80420012203E0E20701D0202222
:10767000F7E7904659E00A2102E010220DE01021C0
:107680004FF0000A00910BE010224FF0000A44F086
:1076900004040827009203E008224FF0000A009239
:1076A000C4F30252022A05D059F804CB0021032A60
:1076B00008D009E009F1070121F00702F2E802C150
:1076C000914605E01FFA8CFC042A01D10CF0FF0C56
:1076D0004FF00008220728D5702806D0009B83F0C1
:1076E000100353EA0A0305D00EE040228DF804206F
:1076F000012208E05CEA010206D030228DF8042065
:107700008DF8050002229046009B83F0080353EA9F
:107710000A030AD15CEA010201D1620705D53022D1
:107720008DF804204FF001087F1E582804D034A0A3
:1077300003900EA802900DE036A0F9E7534660468C
:10774000009AFCF705FD84460398825C0298401E6F
:10775000029002705CEA0100F0D1029806A9081AB2
:1077600000F1200A600702D524F4803400E00127EC
:10777000574502DDA7EB0A0000E0002000EB0A01FC
:10778000009005984144401A0590E00306D45B46FA
:107790002146179A059800F0B3F90544002706E042
:1077A00001A85A46C05D179990476D1C7F1C47453C
:1077B000F6DBE0030CD55B462146179A059800F0EE
:1077C0009FF9054404E030205A46179990476D1CF4
:1077D0000099481E00900029F5DC08E00298029903
:1077E0005A460078491C0291179990476D1CBAF1CE
:1077F0000001AAF1010AF1DC65E10000092801009D
:107800003031323334353637383961626364656616
:1078100000000000303132333435363738394142D8
:10782000434445460000000000F058F90544761C2A
:10783000307800287FF4ECAD19B02846BDE8F08F11
:10784000620700D4062709F1070222F0070CFCE8C2
:107850000223E14603F000485FEA080C02D00FF271
:10786000702C0DE05FEA045C02D50FF2682C07E093
:107870005FEAC47C02D00FF2602C01E0AFF2700C22
:107880004FF0FF3823F00043CDF850C065280CD0EE
:1078900006DC452809D046281DD047283DD13DE0CB
:1078A000662818D067287ED138E00021112F01DB2F
:1078B000112000E0781CCDE9000106A90EA8FFF711
:1078C000DDFCDDE90F010E9A03910021009207F122
:1078D000010A04914DE04FF000400097CDE90110FE
:1078E00006A90EA8FFF7CAFCDDE90F0203920E9B62
:1078F00011990022DDF80CA00093049211B9791CB3
:1079000000EB010AB7EB0A0004D4C0F1FF3007F125
:10791000010A0490AAEB0700019044E0012F00DA6D
:1079200001270021112F01DD112000E03846CDE9AB
:10793000000106A90EA8FFF7A1FCDDE90F010E9AD0
:107940000391002104910092BA4621070CD40399B7
:10795000514500DA8A46BAF1010F05DD009AAAF115
:107960000101515C302908D0B84202DA10F1040F4D
:1079700006DA0121CDE9011015E0AAF10101E9E7DC
:10798000002805DC049901440491AAEB000102E0FF
:10799000411C514500DD8A460499401A401C019063
:1079A0004FF000400290200704D40198504501DBBD
:1079B000CDF8048000208DF84F0002980DF14F079C
:1079C000B0F1004F25D02B200E9002984FF0020806
:1079D00000280CDA404202902D200E9007E00A2188
:1079E0000298FCF79FFB3031029007F8011DB8F1B7
:1079F0000001A8F10108F2DC02980028EFD1791EFD
:107A00000E980870307800F0200040F0450007F82C
:107A1000020D12A8C01B00F107081498007800B1ED
:107A2000012000EB0A01019801EBE0710598414447
:107A3000401A401E0590E00306D45B462146179A83
:107A4000059800F05DF805441498007818B15A467E
:107A5000179990476D1CE00324D55B462146179A81
:107A6000059800F04DF805441CE00498002807DB59
:107A7000DDE90301884203DD0098405C179901E0CD
:107A8000179930205A469047049805F10105401C8B
:107A900004900198401E019004D12E205A46179957
:107AA00090476D1CBAF10001AAF1010ADDDC05E086
:107AB00017F8010B5A46179990476D1CB8F1000151
:107AC000A8F10108F4DC5B462146179A0598ABE65D
:107AD0002D0000002B000000200000002DE9F041E7
:107AE000044600251E461746880404D405E039469E
:107AF0002020B0476D1C641EF9D52846BDE8F081F2
:107B00002DE9F041044600251E469046C80301D5E4
:107B1000302700E02027880404D505E04146384698
:107B2000B0476D1C641EF9D52846BDE8F081000001
:107B300001000101400000008000002080040020BE
:107B4000000500200300000000000000000000000D
:107B500001020304060708090000000001020304F3
:107B600002040608020C08106465627567206C6FD9
:107B7000670D0A00C07B00080000002040000000E4
:107B80005C720008007C000840000020C009000072
:107B90006C720008B9D6FFFF000000000000000072
:107BA00000000000000000000000000000000000D5
:107BB00000000000000000000000000000000000C5
:107BC0000000000000127A00010000000100000027
:107BD00000000000000000000000000000000000A5
:107BE0000000000000000000000000000000000095
:107BF0000000000000000000000000000000000085
:04000005080040CDE2
:00000001FF
