:020000040800F2
:10400000E0040020E5400008754800084D4700081E
:104010007148000845470008E14A00080000000018
:10402000000000000000000000000000A54900089A
:104030004947000800000000414900080941000804
:10404000FF400008FF400008FF400008FF40000854
:10405000FF400008FF400008FF400008FF40000844
:1040600000000000FF400008FF400008FF4000087B
:10407000FF400008FF400008FF400008000000006B
:10408000FF400008FF40000800000000FF4000085B
:10409000FF400008FF400008FF400008FF40000804
:1040A000FF400008FF400008FF400008694A000880
:1040B000FF400008000000000000000000000000B9
:1040C000FF40000800000000FF400008DFF810D0AB
:1040D00000F0CEF800F0A4F9004800474D62000857
:1040E000E00400200648804706480047FEE7FEE758
:1040F000FEE7FEE7FEE7FEE7FEE7FEE7FEE7FEE798
:10410000BD490008CD40000830B410B504488047D0
:1041100030BCAE4630BC0348004770478546704708
:104120002D660008A94900082DE9F05F054600202A
:1041300092469B4688460646814640241BE0284618
:1041400041464746224600F0BAF853465A46C01A3E
:10415000914110D311461846224600F0A1F82D1ABD
:1041600067EB01084F4622460120002100F098F835
:1041700017EB00094E41201EA4F10104DFDC484684
:1041800031462A464346BDE8F09F2DE9FE4F81EABD
:10419000030404F0004421F0004100944FF0000BB0
:1041A00023F0004350EA01045ED052EA03045BD0DE
:1041B000C3F30A54C1F30A552C44A4F2F334019416
:1041C000A0FB0254C1F3130141F48011C3F31303A4
:1041D00043F4801301FB024400FB034E840A970A58
:1041E00044EA815447EA8357A4FB076802958D0A85
:1041F00005FB07854FEA932C04FB0C542705029D11
:104200004FEA065847EA1637B5EB08056EEB070C80
:10421000870E920E47EA811742EA8312A7FB02013A
:10422000B6EB0B0164EB00042B0D43EA0C335E1874
:1042300044EB1C50DA465146E7FB0201C5F3130478
:104240004FEA0B3343EA14534FEA0432019C43EA2A
:104250000603A4F10C040294009CCDE900B400F024
:104260004DF803B0BDE8F08F00200146F9E70000EB
:104270001CB509480090094801900546009C06E0DD
:10428000E06840F0010394E8070098471034AC421E
:10429000F6D3FFF71FFF0000D8820008F88200085D
:1042A000202A04DB203A00FA02F1002070479140F6
:1042B000C2F1200320FA03F3194390407047202AEB
:1042C00004DB203A21FA02F00021704721FA02F3C0
:1042D000D040C2F12002914008431946704710B502
:1042E000141E73F1000408DA401C41F10001921819
:1042F0005B411A4301D120F0010010BD2DE9F04DC2
:1043000092469B4611B1B1FA81F202E0B0FA80F216
:1043100020329046FFF7C4FF04460F4640EA0A00E9
:1043200041EA0B0153465A46084313D0114653EA5B
:10433000010019D0C8F140025046FFF7C0FF054602
:104340000E46504659464246FFF7AAFF084305D09D
:10435000012004E020463946BDE8F08D00200543E9
:1043600046EAE0762C4337430A986305E40AA0EB5B
:1043700008000022FD0A44EA47540A3002D5002012
:104380000146E9E7010510196941DDE90845001911
:104390006941BDE8F04DA2E72DE9F0410024061B7C
:1043A000254671F1000605DA01240027D0EB07004D
:1043B00067EB0101161E73F1000605DA0027D2EB48
:1043C0000702012567EB0303FFF7AEFE86460E46A4
:1043D00017469C46AC4204D00025D0EB050E65EB99
:1043E000010624B10020D2EB000760EB030C7046FD
:1043F00031463A466346BDE8F08140EA01039B0737
:1044000003D009E008C9121F08C0042AFAD203E049
:1044100011F8013B00F8013B521EF9D27047000031
:104420007CB507480090074801900546009C04E0D1
:104430002046016808448047241DAC42F8D17CBD69
:10444000F8820008FC820008F0B480EA0102D40F70
:104450004200B2EB410F02D20246084611464A0022
:1044600042D0C30DDDB2C1F3C752AD1A202D35DAEB
:10447000C1F3160141F4000204B15242C5F1200615
:1044800002FA06F12A411044B3EBD05F23D0C4B145
:10449000012DA0EBC35009DCF0BC4FF0004202EA52
:1044A000C352DBB200F5000000F01EB9400000F17D
:1044B000807000EBC350A0F1807040EAD1704900D9
:1044C00009E0490841EAC071A0EBC35000F50000C3
:1044D000400800EBC350F0BC00F0FDB8614201227F
:1044E00002EB4101001BF6E7F0BC704781F0004190
:1044F000AAE780F00040A7E780EA010210B502F0C9
:104500000043400022D04A001FD0010E01EB12618F
:10451000C0F35600C2F3560240F4000042F4000219
:10452000A0FB022000047F39140400D0401C50EA94
:10453000124001D44000491EC2B20C0604EBD01058
:10454000401C4008802A02D003E0002010BD20F06B
:104550000100002900DA0020184310BD30B480EAC1
:10456000010202F0004530F0004221F0004013D07B
:1045700090B1C30DD40DC2F31601C0F31600E41AB6
:1045800041F4000140F400027D34914201D3641CE7
:1045900000E04900002C02DA30BC002070474FF4E4
:1045A00000000023914201D3891A034340084FEAD7
:1045B0004101F7D151B1914202D14FF0004105E0E4
:1045C00002D24FF0010101E06FF0010103EBC45092
:1045D000284430BC00F07FB8002801DBC0F1004067
:1045E000002901DBC1F10041814201D20120704765
:1045F00000207047002801DBC0F10040002901DBEA
:10460000C1F10041814201D3012070470020704771
:10461000C10F80EAE0700844CA079623002100F029
:1046200063B896230022114600F05EB80EB540F242
:10463000334102910021CDE900110A460B46FFF7F4
:104640005DFE03B000BD00F0004220F00040C10D4F
:10465000C0F3160040F400007F2901DA0020704703
:10466000962903DCC1F19601C84001E096398840E3
:10467000002AF4D04042704700F0004230F0004081
:104680000AD0C10D01F56071C0F3160042EA015174
:10469000C20840071143704700200146704701F0EF
:1046A000004330B421F0004150EA010206D00A0D67
:1046B000A2F56072C1F31301002A02DC30BC0020B5
:1046C0007047440F44EAC104C100E01830BC00EB5D
:1046D000C250AFF300800029A8BF7047401C4900BA
:1046E00008BF20F00100704710B4B0FA80FC00FA57
:1046F0000CF050EA010404BF10BC704749B1CCF182
:10470000200421FA04F411FA0CF118BF012121430D
:104710000843A3EB0C01CB1D4FEA00614FEA1020C8
:1047200042BF002010BC704700EBC350104400296A
:10473000A4BF10BC7047401C490008BF20F0010016
:1047400010BC7047FFE7FEE770470000FFE7FEE799
:1047500080B582B0022000F03DF8FFF762FF4DF215
:104760000A71C3F6A321FFF7C7FE0190019802B0BA
:1047700080BD000080B582B0042000F02BF8FFF768
:1047800055FF0023C3F6E0730022FFF7FEFCFFF79E
:1047900086FF0190019802B080BD000010B582B084
:1047A00040F23400C2F200000190002400204321B6
:1047B000272200F037F805200321FA2200F032F812
:1047C00001980460019884600198C4600198446075
:1047D00002B010BD10B582B08DF8070001F03AFCB0
:1047E000802001F0FFFB01F061FC9DF8070001F063
:1047F000F9FB01F05BFC01F02DFC812001F0F2FBE4
:1048000001F054FC01F0B6FB009001F06DFB009C40
:1048100001F0B0FB40EA0420009001F031FC009868
:1048200002B010BD80B582B08DF807008DF806107B
:104830008DF8052001F00EFC802001F0D3FB01F083
:1048400035FC9DF8070001F0CDFB01F02FFC9DF831
:10485000060001F0C7FB01F029FC9DF8050001F0FE
:10486000C1FB01F023FC01F00BFC02B080BD000095
:10487000FFE7FEE77047000086B005900491002036
:104880000390059800F0070002900298C0F107001D
:10489000052802D3FFE7042003E00298C0F10700D7
:1048A000FFE7019002980430062802D8FFE70020B5
:1048B00002E002980338FFE7009004980199012272
:1048C00002FA01F10139084000998840039B02FA7D
:1048D00001F101391940084306B0704786B00590D0
:1048E00004910392059800F0070002900298C0F12D
:1048F0000700052802D3FFE7042003E00298C0F177
:104900000700FFE7019002980430062802D8FFE76D
:10491000002002E002980338FFE700900498019914
:10492000012202FA01F10139084000998840039BF5
:1049300002FA01F101391940084306B0704700003E
:104940007047000080B582B001208DF8040000207F
:104950008DF805008DF8060002208DF807008020F4
:10496000009041F20040C4F60000694601F0E0F911
:1049700002B080BD80B582B001208DF80400002116
:104980008DF805108DF8060002208DF807008020B4
:10499000009041F20040C4F60000694601F0C8F9F9
:1049A00002B080BD7047000080B540F2C800C2F27E
:1049B00000000068804703F063FB80BD41F2000007
:1049C000C4F20200016841F001010160FFE741F219
:1049D0000000C4F202000068C0F34000012801D0CA
:1049E000FFE7F4E741F20400C4F20200016821F09D
:1049F00003010160FFE741F20400C4F20200006815
:104A00008008800708B1FFE7F5E741F20000C4F233
:104A1000020001684FF6FF72CFF6F26211400160AA
:104A200041F20400C4F202000021016041F22C00B6
:104A3000C4F2020041F61071016041F23000C4F28C
:104A400002004FF48011016041F20800C4F202003C
:104A50004FF41F0101604EF60850CEF200004FF0F7
:104A6000006101607047000080B582B003F04AF831
:104A7000A0B3FFE702F014FFADF80600BDF8060092
:104A80005A280ED1FFE740F23000C2F20000007851
:104A900038B9FFE740F23000C2F200000121017096
:104AA0001BE0BDF80600A5280FD1FFE740F230005B
:104AB000C2F200000078012807D1FFE740F2300081
:104AC000C2F200000221017006E040F23000C2F2A2
:104AD000000000210170FFE7FFE7FFE702B080BDA3
:104AE000FFE7FEE781B08DF803009DF90300002881
:104AF0000FD4FFE79DF9030000F01F01012202FA25
:104B000001F140094EF20012CEF2000242F82010EC
:104B1000FFE701B0704700004EF60C50CEF20000E7
:104B20000068C0F3022070474EF60C50CEF2000031
:104B30000068C0F30220704782B08DF80700009132
:104B40009DF9070000280AD4FFE7009800019DF9AD
:104B500007104EF20042CEF2000288540BE000989B
:104B600000019DF8071001F00F014EF61452CEF22D
:104B700000028854FFE702B07047000082B08DF851
:104B8000070000919DF9070000280AD4FFE700986C
:104B900000019DF907104EF20042CEF20002885447
:104BA0000BE0009800019DF8071001F00F014EF690
:104BB0001452CEF200028854FFE702B070470000A2
:104BC00083B00290029800F0070000904EF60C505F
:104BD000CEF200000168019101994FF6FF021140E9
:104BE00001910199009A41EA02210022C0F2FA5291
:104BF000114301910199016003B07047BFF34F8FDA
:104C00004EF60C50CEF20000016801F4E06104227F
:104C1000C0F2FA5211430160BFF34F8FFFE700BFAC
:104C2000FDE7000080B584B00391029001F098FC8C
:104C3000019000200090FFE70098011D009190B9BD
:104C4000FFE701F01BFD48B1FFE701F081FC01F037
:104C5000EDFC01F08FFC03910290FFE7FFE7019864
:104C600001F028FDE8E70298039904B080BD000038
:104C700080B501F033FC80BD82B042F20041C4F245
:104C80000101019100900098007801994A6800F0B4
:104C9000010022F4807242EA0020486000984078C7
:104CA00001998A6800F0010022F0020242EA400005
:104CB00088600098807801998A6800F0010022F4E9
:104CC000006242EAC02088600098C07801380199EB
:104CD000CA6A00F00F0022F4700242EA0050C86273
:104CE00002B0704781B000900098002101700098D8
:104CF00041700098817000980121C17001B0704727
:104D000081B042F20040C4F2010000900098816836
:104D100041F00801816001B07047000082B042F2AA
:104D20000040C4F20100009000988068C008C007ED
:104D300020B1FFE701208DF8070003E000208DF887
:104D40000700FFE79DF8070002B0704781B042F20C
:104D50000040C4F2010000900098816841F0040115
:104D6000816001B07047000082B042F20040C4F29E
:104D700001000090009880688008C00720B1FFE71C
:104D800001208DF8070003E000208DF80700FFE701
:104D90009DF8070002B0704782B042F20040C4F2B2
:104DA0000100019001208DF803009DF80300019996
:104DB0008A6860F300028A6002B0704783B042F2F2
:104DC0000040C4F20100029001208DF807008DF828
:104DD000060000208DF805009DF8070009281CDC5E
:104DE000FFE70298006900909DF8070000EB400083
:104DF000072101FA00F0009921EA000000909DF8D7
:104E000005009DF8071001EB410188400099084317
:104E100000900098029908611DE00298C068009017
:104E20009DF8070000EB40001E38072101FA00F052
:104E3000009921EA000000909DF805009DF80710F8
:104E400001EB41011E398840009908430090009809
:104E50000299C860FFE79DF806000D281EDBFFE7FA
:104E60000298C06A00909DF8060000EB800041386F
:104E70001F2101FA00F0009921EA000000909DF83E
:104E800007009DF8061001EB810141398840009927
:104E90000843009000980299C86241E09DF806001E
:104EA00007281EDBFFE70298006B00909DF80600C4
:104EB00000EB800023381F2101FA00F0009921EA5D
:104EC000000000909DF807009DF8061001EB81019D
:104ED000233988400099084300900098029908639C
:104EE0001DE00298406B00909DF8060000EB8000EA
:104EF00005381F2101FA00F0009921EA0000009016
:104F00009DF807009DF8061001EB810105398840E6
:104F1000009908430090009802994863FFE7FFE773
:104F200003B0704782B042F20040C4F20100019029
:104F300007208DF8030001208DF802009DF8030082
:104F400008280CDBFFE79DF8030000F0070001993B
:104F50008A6822F4602242EA404088600BE09DF8B3
:104F6000030000F0070001998A6822F4602242EAF7
:104F700040408860FFE79DF8020001998A6800F0D0
:104F8000010022F4801242EA0050886002B07047AB
:104F900082B042F20040C4F20100019000208DF87E
:104FA00003009DF8030001994A6800F0010022F413
:104FB000006242EAC020486002B0704780B582B00B
:104FC00042F20040C4F2010001900199814207D1F0
:104FD000FFE7012000F078FA002000F075FAFFE703
:104FE00002B080BD80B582B001F0C4FA019100909A
:104FF00040F20800C2F20000007EC007A8B1FFE73F
:1050000001F03CFB80B1FFE701F0B4FA01910090A0
:1050100001F0C6FA009A019B80185941013041F114
:10502000000100900191FFE706E000980199FFF769
:10503000F9FD01910090FFE70098019902B080BD51
:1050400081B002208DF803009DF8030000F00300FA
:1050500041F20401C4F202010A6822F4404242EA29
:10506000803008609DF803000A68800860F31C72B5
:105070000A6001B07047000081B000208DF8030085
:105080009DF8030041F20401C4F202010A6800F035
:105090000F0022F0F00242EA0010086001B07047F1
:1050A00081B004208DF803009DF8030041F2040153
:1050B000C4F202010A6800F0070022F4E06242EA4A
:1050C0000020086001B0704781B000208DF8030017
:1050D0009DF8030041F20401C4F202010A6800F0E5
:1050E000070022F4605242EAC020086001B0704715
:1050F00081B08DF803009DF80300012809D1FFE776
:1051000041F25400C4F20200016841F03001016034
:1051100008E041F25400C4F20200016821F03001BD
:105120000160FFE701B0704781B08DF803000120F6
:105130008DF802009DF80300042843D8DFE800F052
:10514000030E1D2C37009DF8020041F20001C4F24D
:1051500002010A6860F300020A6034E09DF8020070
:1051600041F20001C4F202010A6800F0010022F4D9
:10517000803242EA0040086025E09DF8020041F2DA
:105180000001C4F202010A6800F0010022F08072FE
:1051900042EA0060086016E09DF8020041F220013A
:1051A000C4F202010A6860F300020A600BE09DF895
:1051B000020041F22401C4F202010A6860F3000215
:1051C0000A6000E0FFE701B07047000080B58CB0D6
:1051D0000B9000200A900990089007900690059087
:1051E00004900390029000F003FB8DF807009DF8F7
:1051F000070030B1FFE7012824D0FFE7022828D0BC
:10520000C1E041F25400C4F202000068400AC00745
:1052100080B1FFE741F23000C4F202000068400EA6
:10522000C00738B1FFE70B9846F60041C0F2DC2119
:10523000016006E00B9841F20021C0F27A010160A2
:10524000FFE7A7E00B9841F20021C0F27A0101606C
:10525000A0E041F20400C4F202000068C0F3004084
:10526000089041F22C00C4F2020000680021B1EB6A
:10527000D07F47D1FFE741F20400C4F20200016889
:10528000C1F383410A910068C0F341700990099805
:1052900020B9FFE70A980F2807D1FFE709980A9974
:1052A00001EB001001300A9003E00A9802300A90E6
:1052B000FFE7089848B9FFE70A9840F60011C0F2E6
:1052C0003D0148430B9908601BE041F20400C4F221
:1052D00002000068400CC00748B1FFE70A9840F69A
:1052E0000011C0F23D0148430B99086008E00A989C
:1052F00041F20021C0F27A0148430B990860FFE7B0
:10530000FFE73FE041F22C00C4F202000168C1F364
:10531000031104910168C1F308210391006800F0B2
:1053200007000290089830B9FFE740F60010C0F27D
:105330003D00059015E041F20400C4F2020000684F
:10534000400CC00730B1FFE740F60010C0F23D004E
:10535000059005E041F20020C0F27A000590FFE7D9
:10536000FFE705980399A0FB0101DDF810C0029B3F
:1053700001229A400CFB02F20023FEF7D5FE0B99A6
:105380000860FFE706E00B9841F20021C0F27A01C5
:105390000160FFE741F20400C4F202000168C1F3BA
:1053A00003110791079948F28222C0F60002515C6E
:1053B00006910B990A68069BDA404A600168C1F3BE
:1053C00002210791079948F2922CC0F6000C1CF8B4
:1053D000011006910B994B68069A23FA02F2CA60F3
:1053E0000168C1F3C221079107991CF801100691C9
:1053F0000B994A68069BDA408A600168C1F3007124
:10540000079107990068C0F3813040EA8100079056
:10541000079848F29A21C0F60001085C06900B98A4
:105420008168069AB1FBF2F101610CB080BD000009
:1054300082B0019000208DF80300BDF8060041F213
:105440000001C4F202014058019901F01F01C84057
:10545000C00720B9FFE700208DF8030003E001201A
:105460008DF80300FFE79DF8030002B070470000CD
:1054700082B0019001208DF803009DF803000128FF
:105480000FD1FFE7019800F01F01012202FA01F19C
:10549000000C41F20002C4F2020283581943815009
:1054A0000FE0019800F01F01012202FA01F1000C47
:1054B00041F20002C4F20202835823EA0101815042
:1054C000FFE702B07047000082B00921C0F20C0172
:1054D00001918DF803009DF8030001280FD1FFE72B
:1054E000019800F01F01012202FA01F1000C41F2C3
:1054F0000002C4F202028358194381500FE0019860
:1055000000F01F01012202FA01F1000C41F2000239
:10551000C4F20202835823EA01018150FFE702B07E
:105520007047000083B000208DF80B001D218DF81E
:105530000A1001908DF803009DF80B00B0B9FFE749
:1055400041F20400C4F20200016821F480310160DC
:1055500040F60010C0F23D00019041F23000C4F26C
:105560000200016841F00071016029E041F204008D
:10557000C4F20200016841F4803101609DF80B0023
:1055800001280ED1FFE741F20020C0F27A0001901D
:1055900041F20400C4F20200016821F4003101600C
:1055A0000DE040F60010C0F23D00019041F2040011
:1055B000C4F20200016841F400310160FFE7FFE737
:1055C000019848F26121C0F23B0188420CD3FFE709
:1055D000019844F63F31C0F24C01884204D8FFE7FD
:1055E00000208DF8030068E0019845F68101C0F2C3
:1055F0004F0188420CD3FFE7019845F60F61C0F2D6
:105600005F01884204D8FFE701208DF8030053E0D2
:10561000019843F29551C0F2770188420CD3FFE71D
:10562000019841F60F31C0F27F01884204D8FFE7AC
:1056300002208DF803003EE0019841F61131C0F2DE
:105640007F0188420CD3FFE701984BF61F41C0F25F
:10565000BE01884204D8FFE703208DF8030029E04B
:10566000019846F62931C0F2EE0188420CD3FFE7DB
:1056700001984DF22F71C0F23D11884204D8FFE726
:1056800004208DF8030014E001984DF23171C0F24E
:105690003D1188420CD3FFE701984EF6D711C0F2B6
:1056A000DC11884204D8FFE705208DF80300FFE7EE
:1056B000FFE7FFE7FFE7FFE7FFE79DF80A0000F0DD
:1056C0000F0041F20401C4F202010A6822F47012D0
:1056D00042EA804008609DF80A0000F030000A6845
:1056E00022F0C04242EA406008609DF8030041F2A7
:1056F0002C01C4F202010A6800F0070022F0E06207
:1057000042EA0060086003B07047000041F2000008
:10571000C4F20200016841F001010160FFE741F2BB
:105720000000C4F202000068C0F34000012801D06C
:10573000FFE7F4E741F20400C4F20200016821F03F
:1057400003010160FFE741F20400C4F202000068B7
:105750008008800708B1FFE7F5E741F20000C4F2D6
:10576000020001684FF6FF72CFF6F262114001604D
:1057700041F20400C4F202000021016041F22C0059
:10578000C4F2020041F61071016041F23000C4F22F
:1057900002004FF48011016041F20800C4F20200DF
:1057A0004FF41F010160704781B002208DF80300A3
:1057B0009DF8030041F20401C4F202010A6860F39B
:1057C00001020A6000BF00BF00BF00BF00BF00BFF2
:1057D00000BF00BF00BF00BF00BF00BF00BF00BFD1
:1057E00000BF00BF00BF00BF00BF00BF01B07047D7
:1057F00041F20400C4F202000068C0F38100704767
:1058000082B00820C4F20200019000208DF803004D
:105810009DF8030001990A6860F300020A6002B073
:105820007047000081B0009000980021016000984E
:1058300041600098018100984181009801730098AF
:105840004173009881730098C173009801740098A7
:10585000417401B07047000082B00821C4F2020117
:1058600001910090019801684BF6EF7211400160C0
:105870000098008901990A68104308600098407CEC
:1058800001990A6800F0030022F4405242EA003015
:1058900008600098C07B01990A6800F0030022F4B8
:1058A000406242EA802008600098807B01990A6883
:1058B00000F0030022F4407242EA002008600098E1
:1058C000407B01990A6800F0010022F0800242EA60
:1058D000C01008600098007B01990A6800F0010080
:1058E00022F0400242EA801008600098007C019992
:1058F0000A6800F0010022F0200242EA401008602D
:105900000098408901994860009800680199886072
:10591000009840680199C86002B0704782B00820C2
:10592000C4F2020001900020009001990A6822F060
:1059300001020A6001990860019948600199886034
:105940000199C860019800909DF8000008384CF655
:10595000CD41CCF6CC41A0FB01016FF0030000EA81
:1059600091000F2101FA00F00421C4F202010A683B
:105970001043086002B0704742F21000C4F2020007
:10598000016841F0800101607047000081B0032090
:105990008DF8030042F20C00C4F202000068C00758
:1059A00020B1FFE700208DF803001FE042F20C0059
:1059B000C4F2020000688008C00720B1FFE70120A0
:1059C0008DF8030011E042F20C00C4F202000068FE
:1059D0000009C00720B1FFE702208DF8030003E0B3
:1059E00003208DF80300FFE7FFE7FFE79DF80300C2
:1059F00001B0704780B582B0019003208DF803009C
:105A0000FFF7C4FF8DF80300FFE79DF803100020A7
:105A100029B9FFE70198002818BF0120FFE7C00758
:105A200040B1FFE7FFF7B2FF8DF80300019801389E
:105A30000190EAE7019820B9FFE704208DF8030000
:105A4000FFE79DF8030002B080BD000010B582B0F2
:105A500043F60000C0F60000019003208DF803001B
:105A600042F21004C4F20204206840F002002060F8
:105A7000019842F21401C4F202010860206840F06B
:105A8000400020604FF08040FFF7B4FF8DF8030026
:105A9000206820F00200206002B010BD42F2040035
:105AA000C4F2020040F22311C4F26751016048F6CB
:105AB000AB11CCF6EF5101607047000010B584B017
:105AC00043F60000C0F60000039044F63830C4F2FC
:105AD0005410029003208DF8070042F21004C4F223
:105AE0000204206840F001002060029803990860D9
:105AF0004FF48010FFF77EFF8DF80700206820F03C
:105B00000100206004B010BD10B58EB00D900C9156
:105B10000B920C98FEF797FD0A900C9C0A98FEF7E2
:105B200077FD01462046FEF7E1FC09900A98B0F1A6
:105B3000FF3F05DCFFE7099880F000400990FFE790
:105B4000002008900A980790079838B9FFE70D9849
:105B500008994A1C08923022425442E00798B0F15A
:105B6000FF3F0ADCFFE70D9808994A1C08922D2296
:105B70004254079840420790FFE700200390FFE758
:105B8000079801281CDBFFE7079846F26761C6F219
:105B9000666150FB01F2930803EBD27202EB8202C2
:105BA000A0EB42003030039A531C039304AB98548B
:105BB000079850FB01F0811001EBD0700790DFE7F0
:105BC000FFE7039801280BDBFFE7039801380390F8
:105BD00004A9085C0D99089A531C08938854F0E7AF
:105BE000FFE70B9801282EDBFFE70D9808994A1C68
:105BF00008922E22425400200290FFE702980B994F
:105C000088421FDAFFE709980021C4F22011FEF74D
:105C100073FC09900998FEF716FD01900198303049
:105C20000D99089A531C089388540198FEF7F0FCCC
:105C300001460998FEF75AFC0990FFE702980130E7
:105C40000290DBE7FFE70D980899002242540EB05E
:105C500010BD000010B584B000240394029400F03D
:105C600015FD01900094FFE70098011D009160BBB5
:105C7000FFE7FFF7B7F940F20802C2F20002D2E9EB
:105C80000034C01861410290039102980399D2E94F
:105C90000223801A71EB030009DAFFE740F20800E3
:105CA000C2F20000D0E902010391029008E00298DC
:105CB000039940F20802C2F20002C2E90201FFE7C2
:105CC000FFE7019800F000FDCEE70298039904B0C9
:105CD00010BD000082B041F20041C4F60001019104
:105CE000ADF80200BDF802000199886202B0704769
:105CF00082B041F20041C4F600010191ADF802000A
:105D0000BDF802000199886102B0704781B000902F
:105D100000984FF6FF710160009800218171009892
:105D200001710098417100980121C17101B0704763
:105D300083B0029001910020ADF800000198006846
:105D4000ADF80200FFE7BDF80200012861DBFFE7C4
:105D5000BDF80200C007002850D0FFE7BDF80000E2
:105D60004100032000FA01F1029A136823EA0101BD
:105D7000116001998979BDF8002052009140029A82
:105D8000136819431160BDF80010012202FA01F1F5
:105D9000029A536823EA0101516001990979BDF81B
:105DA00000209140029A536819435160BDF80010D9
:105DB000490000FA01F1029A936823EA0101916017
:105DC0000199C979BDF8002052009140029A936868
:105DD00019439160BDF80010490088400299CA68D3
:105DE00022EA0000C86001984079BDF8001049001F
:105DF00088400299CA681043C860FFE7BDF80200F6
:105E00004008ADF80200BDF800000130ADF8000018
:105E100099E703B07047000082B041F20040C4F639
:105E2000000001908020ADF8020000208DF80100F4
:105E3000BDF80200019909690140884204D0FFE7DA
:105E400000208DF8010003E001208DF80100FFE73C
:105E50009DF8010002B0704784B003908DF80B10DC
:105E600001208DF80A000020019000909DF80A1092
:105E70009DF80B2002F007029200914001919DF8DD
:105E80000B10B0EBD10F16D0FFE79DF80B0000F020
:105E9000070080000F2101FA00F003994A6A22EA04
:105EA000000048620398406A0199084300900098F6
:105EB0000399486215E09DF80B0000F00700800090
:105EC0000F2101FA00F003990A6A22EA0000086231
:105ED0000398006A019908430090009803990862AA
:105EE000FFE704B07047000080B54020FFF7F2FEE6
:105EF000FEF740FD8020FFF7EDFE00F037F8402070
:105F0000FFF7F6FE00F032F84020FFF7E3FE80BD19
:105F1000B0B582B01624C0F214042046FFF7A8FAE8
:105F20002046FFF7A5FA00208DF8040001208DF827
:105F300005008DF806008DF807004020009041F222
:105F40000044C4F600046D4620462946FFF7F0FEE3
:105F50008020009020462946FFF7EAFE4020FFF708
:105F6000C7FE8020FFF7C4FE02B0B0BD80B500F0D0
:105F70005DFA80BD80B582B008208DF80700002052
:105F80008DF80600FEF7DEFC8020FFF7B1FEFFE78C
:105F90009DF80700411E8DF80710E0B1FFE79DF85E
:105FA000060040008DF806004020FFF793FEFFF743
:105FB000DDFF4020FFF79CFEFFF7D8FFFFF72CFF27
:105FC000012807D1FFE79DF8060040F001008DF899
:105FD0000600FFE7DCE74020FFF77CFE9DF80600A7
:105FE00002B080BD80B582B08DF8070008208DF822
:105FF0000600FEF7BFFCFFE79DF80600411E8DF886
:106000000610F0B1FFE74020FFF764FE9DF807009F
:106010000006002804D5FFE78020FFF769FE03E0B3
:106020008020FFF757FEFFE7FFF7A0FF9DF807006E
:1060300040008DF807004020FFF75AFEFFF796FF5B
:10604000DAE74020FFF746FE8020FFF751FE02B05E
:1060500080BD000080B5FEF78DFCFFF787FF802034
:10606000FFF746FE4020FFF743FEFFF77FFF80204B
:10607000FFF730FEFFF77AFF4020FFF72BFE80BDD1
:1060800080B5FEF777FC4020FFF724FE8020FFF765
:1060900021FEFFF76BFF4020FFF72AFEFFF766FFA8
:1060A0008020FFF725FEFFF761FF80BD80B582B03D
:1060B00032208DF80600FEF745FC4020FFF70AFE6F
:1060C0008020FFF715FEFFF751FFFFE79DF8060060
:1060D000C8B1FFE7FFF7A0FE01280CD0FFE7402082
:1060E000FFF706FEFFF742FF4020FFF7F3FD002019
:1060F0008DF8070015E0FFF739FF9DF8060001381D
:106100008DF80600E2E74020FFF7F2FDFFF72EFFD3
:106110004020FFF7DFFDFFF729FF01208DF8070082
:10612000FFE702B080BD000080B540F23000C2F24F
:106130000000007802280BD1FFE7FFF7AFFCFFF764
:1061400085FCFFF7BBFCFFF717FC00F0F1F8FFE759
:1061500080BD000080B543F60000C0F60000006876
:1061600044F63831C4F25411884207D1FFE7FFF7F3
:1061700095FCFFF76BFCFFF7FFFBFFE780BD00001E
:1061800080B5FFF7D1FF80BD80B540F24400C2F278
:106190000000007818B1FFE701280FD01CE0FEF7DF
:1061A000E9FA40F23401C2F20001886040F2440092
:1061B000C2F200000178013101700DE0FEF7C8FA6B
:1061C00040F23401C2F20001086040F24400C2F221
:1061D000000000210170FFE780BD000080B5FFF7DF
:1061E000D3FF40F23400C2F2000080680021C4F204
:1061F0001641FEF7F1F938B9FFE740F22800C2F284
:10620000000001210170FFE740F22800C2F2000007
:106210000078012818D1FFE740F24600C2F20000E2
:106220000188013101800088C8280CDBFFE740F2BB
:106230004600C2F200000021018040F22800C2F2B4
:1062400000000170FFE7FFE780BD000010B582B0DD
:106250000020019000F06EF801F0C4FE01F094FE01
:1062600001F046FE01F018FF01F0DAFD01F046FDF5
:1062700001F0A0FD01F0BEFDFFF7C2FA01F0B0FF92
:1062800001F034FF00F02AF900F0CEFEFFF762FFC4
:1062900040F2C804C2F20004A26846F28110C0F6BF
:1062A00000000A219047A26846F2DD10C0F6000007
:1062B00032219047A26846F22570C0F600000A21FC
:1062C0009047FFF725FE01F059FDFEF767FAFFE75B
:1062D00040F2C800C2F2000040688047F8E70000C2
:1062E00080B584B01B208DF80F0000200290019033
:1062F0000090FEF719FC0299019AFEF7EFFA009060
:106300009DF90F000099FEF739FC9DF90F00FEF78B
:10631000E9FB04B080BD000080B582B003208DF899
:1063200007009DF80700FEF74BFC02B080BD00009F
:10633000FEF764FC82B04FF0006001904FF48040A3
:106340000090019800994FF68072C1F6FF721140DB
:1063500008434EF60851CEF20001086002B07047C3
:1063600080B584B00391029040F20800C2F20000B0
:10637000407EC007B8B1FFE70298DDF80CC040F2DC
:106380000802C2F200021269D317A0FB02E100FB6F
:1063900003100CFB02004FEA1E4141EA00410014C9
:1063A0000190009110E002980399090441EA10411C
:1063B000000440F20802C2F200021269D317FDF78E
:1063C000EBFF01910090FFE70098019904B080BDB8
:1063D00084B0039040F20800C2F20000407EC00783
:1063E00068B1FFE70398000440F20801C2F200011F
:1063F0000969B0FBF1F000210191009011E00398D0
:1064000040F20801C2F200010969CA17A0FB01139A
:1064100000FB0230090C41EA004100140190009198
:10642000FFE70098019904B07047000080B588B07C
:10643000022007900798FFF7CBFF0591049040F2E8
:106440002C00C2F2000000685B2806DBFFE740F288
:106450002C00C2F20000006801E05A20FFE7039020
:1064600004980599039AD317101A73EB010001DB06
:10647000FFE72BE003980499059A091A62EBE07094
:1064800004910590FFF7E6FB049A059B801859419B
:1064900004900591FFE7FFF7DDFB01910090009864
:1064A0000199049A059B801A71EB030001DBFFE759
:1064B0000CE004980599009A019B801A9941FFF716
:1064C0004FFF00F005F8FFE7FFE7E4E708B080BD05
:1064D00082B00191009002B07047000010B584B006
:1064E00001208DF80F0000248DF80E4000F0CEF84A
:1064F00002900194FFE70198011D0191C8B9FFE7DF
:106500009DF80F0000F0010040F20801C2F2000106
:1065100008769DF80F0000F0010000F049F8012016
:106520008DF80E0000F014F8FFE7029800F0CCF8A8
:10653000E1E701F013F940F20800C2F20000002187
:10654000C0E90011C0E90211AFF3008004B010BD32
:106550004EF60450CEF200004FF00071016070471B
:1065600082B0EFF3108001900198009072B600980D
:1065700002B070474EF21400CEF2000000684EF2F6
:106580001801CEF200010968401A4FF0000161F1D4
:106590000001704740F20000C2F20000006870473E
:1065A0004EF21400CEF20000006800217047000097
:1065B00080B584B08DF80F00FFE79DF80F00C0078D
:1065C00008B1FFE730E000F06BF802900020019086
:1065D000FFE70198011D019128BBFFE74EF2100073
:1065E000CEF20000002101604EF21402CEF2000251
:1065F0006FF07F4313604EF62352CEF2000211700B
:106600004EF21802CEF200021160072101604EF630
:106610000450CEF200004FF000710160FFE70298D5
:1066200000F05CF8D5E7FFE704B080BD80B584B02A
:10663000FFF7B6FF013041F100010290039100F035
:1066400025F8019000200090FFE70098011D0091BF
:1066500088B9FFE70298039940F2080CC2F2000CD7
:10666000DCE90032C0185141CCE90001FFE7019894
:1066700000F02AF8E9E704B080BD00004EF60450AF
:10668000CEF200000068C0F38060704782B0EFF384
:10669000108001900198009072B6009802B0704787
:1066A00082B0EFF3108001900198009072B60098CC
:1066B00002B0704782B0009000980190019880F37A
:1066C000108802B07047000082B0009000980190DE
:1066D000019880F3108802B07047000082B00090EB
:1066E00000980190019880F3108802B07047000074
:1066F000B0B582B00190019C20460021FDF77AFFE1
:106700004FF03F45002818BF4FF07C5520464FF012
:106710008F41FDF7F1FE2946FDF796FEFDF793FF49
:1067200002B0B0BD10B540F23404C2F200042068DB
:10673000FDF7A2FF024648F2AC20C0F600000B466F
:1067400000F0CEFDA068FDF797FF024648F2A220B8
:10675000C0F600000B4600F0C3FD10BD80B58AB046
:1067600000200990089007900690059004900390EF
:1067700002900190FFF73CF88DF803009DF80300AC
:1067800030B1FFE701282AD0FFE7022831D0D6E058
:1067900041F25400C4F202000068400AC00798B1F8
:1067A000FFE741F23000C4F202000068400EC0076B
:1067B00050B1FFE740F20000C2F2000046F600418F
:1067C000C0F2DC21016009E040F20000C2F20000EA
:1067D00041F20021C0F27A010160FFE7B9E040F226
:1067E0000000C2F2000041F20021C0F27A01016013
:1067F000AFE041F20400C4F202000068C0F30040C0
:10680000079041F22C00C4F2020000680021B1EBB5
:10681000D07F50D1FFE741F20400C4F202000168CA
:10682000C1F3834109910068C0F341700890089852
:1068300020B9FFE709980F2807D1FFE708980999C1
:1068400001EB00100130099003E009980230099033
:10685000FFE7079860B9FFE7099840F60011C0F21A
:106860003D01484340F20001C2F20001086021E00E
:1068700041F20400C4F202000068400CC00760B19D
:10688000FFE7099840F60011C0F23D01484340F28D
:106890000001C2F2000108600BE0099841F20021FA
:1068A000C0F27A01484340F20001C2F200010860E0
:1068B000FFE7FFE742E041F22C00C4F2020001686A
:1068C000C1F3031103910168C1F30821029100682B
:1068D00000F007000190079830B9FFE740F600107C
:1068E000C0F23D00049015E041F20400C4F2020041
:1068F0000068400CC00730B1FFE740F60010C0F25E
:106900003D00049005E041F20020C0F27A000490BE
:10691000FFE7FFE704980299A0FB0101DDF80CC036
:10692000019B01229A400CFB02F20023FDF7FCFBC5
:1069300040F20001C2F200010860FFE709E040F206
:106940000000C2F2000041F20021C0F27A010160B1
:10695000FFE741F20400C4F202000068C0F3031034
:106960000690069848F28221C0F60001085C059066
:1069700040F20000C2F200000168059AD1400160B7
:106980000AB080BD81B004208DF803009DF803009B
:10699000042809D1FFE74EF21000CEF20000016892
:1069A00041F00401016008E04EF21000CEF2000058
:1069B000016821F004010160FFE701B070470000A9
:1069C00083B040F20040C4F20000029040F2CF7069
:1069D000019040F2AF40009001980299C86200987F
:1069E000029988620298416941F00101416103B056
:1069F0007047000084B040F20041C4F200010391EE
:106A00008DF80B00002001909DF80B00ADF80200FE
:106A1000BDF80200062815D8DFE800F004140814B9
:106A20000C1410000198039948630CE00198039935
:106A3000886308E001980399C86304E0019803990A
:106A4000086400E0FFE704B07047000082B040F245
:106A50000040C4F20000019000208DF803009DF872
:106A6000030001990A6800F0030022F4407242EA30
:106A70000020086002B0704782B040F20040C4F2CB
:106A80000000019000208DF803009DF8030001999B
:106A90000A6800F0070022F0700242EA0010086065
:106AA00002B0704782B040F20040C4F20000019092
:106AB00001208DF803009DF8030001990A6860F336
:106AC00000020A6002B0704782B040F20041C4F296
:106AD000000101918DF8030000208DF802009DF85F
:106AE0000300ADF80000BDF80000062835D8DFE847
:106AF00000F0043410341C3428009DF80200019981
:106B00008A6900F0010022F0080242EAC0008861B0
:106B100024E09DF8020001998A6900F0010022F446
:106B2000006242EAC020886118E09DF802000199E5
:106B3000CA6900F0010022F0080242EAC000C86100
:106B40000CE09DF802000199CA6900F0010022F4EE
:106B5000006242EAC020C86100E0FFE702B070476F
:106B600086B040F20042C4F2000205928DF8130094
:106B700003910020ADF80A00ADF80800ADF806005A
:106B80009DF813000830ADF804009DF8130009309B
:106B9000ADF8020003984078BDF804108840ADF8C5
:106BA0000A0003988078BDF802108840ADF808000C
:106BB000BDF80200012101FA00F0059A536823EAAA
:106BC00000005060BDF80800059A536818435060F3
:106BD000BDF8040001FA00F005994A6822EA0000B5
:106BE0004860BDF80A0005994A68104348609DF85E
:106BF0001300ADF80600BDF80600062835D8DFE81A
:106C000000F0043410341C342800039800780599EF
:106C10008A6900F0070022F0700242EA00108861E1
:106C200024E00398007805998A6900F0070022F4AF
:106C3000E04242EA0030886118E003980078059944
:106C4000CA6900F0070022F0700242EA0010C86131
:106C50000CE0039800780599CA6900F0070022F457
:106C6000E04242EA0030C86100E0FFE79DF813000F
:106C700040000130ADF804009DF81300032101EB42
:106C80004000ADF802000398C078BDF804108840B9
:106C9000ADF80A0003980079BDF802108840ADF8FD
:106CA0000800BDF80210012000FA01F1059A136AEC
:106CB00023EA01011162BDF80810059A136A19430D
:106CC0001162BDF8041000FA01F1059A136A23EA73
:106CD00001011162BDF80A10059A136A1943116285
:106CE0009DF813104900ADF804109DF8131002220E
:106CF00002EB4101ADF80210039949799DF8133078
:106D00005B009940ADF80A10039989799DF813301A
:106D100002EB43029140ADF80810BDF8021000FAF2
:106D200001F1059A136A23EA01011162BDF8081006
:106D3000059A136A19431162BDF804108840059939
:106D40000A6A22EA00000862BDF80A0005990A6A88
:106D50001043086206B0704782B040F20041C4F2AE
:106D6000000101918DF8030000208DF802009DF8CC
:106D70000300ADF80000BDF80000062835D8DFE8B4
:106D800000F0043410341C3428009DF802000199EE
:106D90008A6900F0010022F0040242EA8000886162
:106DA00024E09DF8020001998A6900F0010022F4B4
:106DB000806242EA8020886118E09DF80200019913
:106DC000CA6900F0010022F0040242EA8000C861B2
:106DD0000CE09DF802000199CA6900F0010022F45C
:106DE000806242EA8020C86100E0FFE702B070479D
:106DF00082B040F20040C4F20000019000208DF803
:106E000003009DF8030001990A6800F0010022F0D8
:106E1000800242EAC010086002B0704782B040F2BF
:106E20000040C4F20000019000208DF803009DF89E
:106E3000030001994A6800F0070022F0700242EA5C
:106E40000010486002B0704782B040F20040C4F2C7
:106E50000000019000208DF803009DF803000199C7
:106E60008A6800F0010022F0800242EAC0108860C7
:106E700002B0704783B00190ADF8021040F24800B4
:106E8000C2F2000090F8780007282FDCFFE7019895
:106E900040F24801C2F2000101F1180291F8783085
:106EA00003EB430342F82300BDF8020091F8783069
:106EB00003EB430302EB8303D880BDF8020091F893
:106EC000783003EB430302EB8303988091F878005A
:106ED00000EB400002EB80000022027291F8780083
:106EE000013081F878008DF80B2003E001208DF847
:106EF0000B00FFE79DF80B0003B0704783B00190D3
:106F000040F24800C2F2000090F8780001287BDBD4
:106F1000FFE74EF21000CEF20000016821F00101FF
:106F2000016000208DF80300FFE79DF8030040F2A8
:106F30004801C2F2000191F87810884263DAFFE755
:106F40009DF8030000EB400040F24801C2F200014E
:106F500001EB80008069019988424DD1FFE740F242
:106F60004801C2F2000101F1180091F87820013ABD
:106F700081F8782091F8782002EB420250F8222024
:106F80009DF8033003EB430340F8232091F8782069
:106F900002EB420200EB8202D2889DF8033003EB41
:106FA000430300EB8303DA8091F8782002EB42027E
:106FB00000EB820292889DF8033003EB430300EB61
:106FC00083039A8091F8781001EB410100EB810175
:106FD000097A9DF8032002EB420200EB8200017265
:106FE0004EF21000CEF20000016841F00101016094
:106FF00000208DF80B0013E0FFE79DF8030001303F
:107000008DF8030091E7FFE74EF21000CEF200008A
:10701000016841F00101016001208DF80B00FFE7DC
:107020009DF80B0003B0704710B540F24800C2F263
:10703000000047F2A101C0F60001416047F275214E
:10704000C0F60001016046F67561C0F6000181607E
:1070500046F6FD61C0F60001C16047F2DD11C0F6E1
:107060000001016147F25511C0F6000141610021A4
:1070700080F87810D0F800C0D0F804E08368C168C8
:107080000269406940F2C804C2F2000460612261F2
:10709000E160A360C4F804E0C4F800C010BD0000C3
:1070A00080B582B000208DF80700FFE79DF807004B
:1070B00040F24801C2F2000191F87810884246DAA5
:1070C000FFE79DF8070000EB400040F24801C2F2E4
:1070D000000101EB8000808B90BBFFE79DF807006B
:1070E00000EB400040F24801C2F2000101EB8000D9
:1070F00090F82000012823D0FFE79DF8070000EB5F
:10710000400040F24801C2F20001183101EB80005A
:10711000C28882809DF8070000EB400051F82000F3
:1071200068B1FFE79DF8070000EB400040F248011E
:10713000C2F2000101EB800080698047FFE7FFE7B2
:10714000FFE79DF8070001308DF80700AEE702B0B9
:1071500080BD000083B001908DF8031000208DF8F1
:107160000200FFE79DF8020040F24801C2F2000170
:1071700091F87810884228DAFFE79DF8020000EBCA
:10718000400040F24801C2F2000101EB800080693A
:107190000199884212D1FFE79DF803009DF8021083
:1071A00001EB410140F24802C2F2000202EB810110
:1071B00081F8200000208DF80B000AE0FFE79DF821
:1071C000020001308DF80200CCE701208DF80B00A1
:1071D000FFE79DF80B0003B07047000083B00190FB
:1071E000ADF8021000208DF80100FFE79DF80100C6
:1071F00040F24801C2F2000191F87810884231DA79
:10720000FFE79DF8010000EB400040F24801C2F2A8
:10721000000101EB80008069019988421BD1FFE7E2
:10722000BDF802009DF8011001EB410140F2480257
:10723000C2F20002183202EB81018880BDF8020020
:107240009DF8011001EB410102EB8101C880002093
:107250008DF80B000AE0FFE79DF8010001308DF882
:107260000100C3E701208DF80B00FFE79DF80B003C
:1072700003B0704781B000208DF80300FFE79DF850
:10728000030040F24801C2F2000191F878108842F0
:1072900023DAFFE79DF8030000EB400040F24801CD
:1072A000C2F2000101EB8000808B01280EDBFFE7BA
:1072B0009DF8030000EB400040F24801C2F20001DB
:1072C00001EB8000818B01398183FFE7FFE79DF8A7
:1072D000030001308DF80300D1E701B070470000D2
:1072E00083B010B5D1B0559354925391509053A898
:1072F0004F9000202E9006202D90FFE750980178A7
:10730000002031B1FFE72E9900207F2938BF0120EE
:10731000FFE7C007002800F00382FFE750980078DD
:1073200025286BD1FFE7509840782E2866D1FFE7DB
:1073300050988078302861DBFFE7509880783928B2
:107340005CDCFFE750980230509000202D90FFE762
:10735000509801780020302907DBFFE7509801782A
:1073600000203A29B8BF0120FFE7C00768B1FFE756
:107370002D9800EB80005099097801EB40003038DF
:107380002D90509801305090E2E750980078662890
:1073900033D1FFE74F98073020F0070101F10800D3
:1073A0004F9008684968FDF77AF92C902D9A2C992E
:1073B00024AC2046FEF7A8FB2394FFE7239801782E
:1073C000002031B1FFE72E9900207F2938BF01202E
:1073D000FFE7C00750B1FFE72398411C23910078D5
:1073E0002E994A1C2E922FAA5054E7E7509801304C
:1073F000509006202D90FFE780E78DE150980078AF
:10740000252840F08081FFE7509801305090509837
:1074100000785838202800F26D81DFE810F01F0155
:107420006B016B016B016B016B016B016B016B01FC
:107430006B016B01C90021006B017D006B016B01C9
:107440006B016B016B016B016B016B016B016B01DC
:107450006B016B01AA006B016B016B016B01D30027
:107460004F98011D4F910068229000201E90229895
:10747000B0F1FF3F0ADCFFE72E98411C2E912FA9A7
:107480002D220A54229840422290FFE7229838B9D0
:10749000FFE71E98411C1E911FA930220A54FFE7E6
:1074A000FFE722990020012906DBFFE71E99002053
:1074B0000B29B8BF0120FFE7C007E0B1FFE7229822
:1074C00046F26761C6F2666150FB01F2930803EB76
:1074D000D27202EB8202A0EB420030301E9A531CA3
:1074E0001E931FAB9854229850FB01F0811001EBC2
:1074F000D0702290D5E7FFE71E9801280BDBFFE74D
:107500001E9801381E901FA9085C2E994A1C2E92C5
:107510002FAA5054F0E7F5E04F98073020F007010C
:1075200001F108004F9008684968FDF7B8F81D9010
:107530002D9A1D9915AC2046FEF7E6FA1494FFE744
:1075400014980178002031B1FFE72E9900207F299F
:1075500038BF0120FFE7C00750B1FFE71498411C76
:10756000149100782E994A1C2E922FAA5054E7E7C6
:10757000C8E04F98011D4F9100681390FFE71398E2
:107580000178002031B1FFE72E9900207F2938BF14
:107590000120FFE7C00750B1FFE71398411C13918A
:1075A00000782E994A1C2E922FAA5054E7E7A9E0A2
:1075B0004F98011D4F9100682E994A1C2E922FAAB8
:1075C00050549FE04F98011D4F91006812902E98E3
:1075D000411C2E912FA930220A542E98421C2E9223
:1075E00078220A5448F2C621C0F600010DF1370096
:1075F0001122FCF702FF00200A90FFE7129800F02A
:107600000F000DF13701085C0A994A1C0A920DF12E
:107610002E025054129800091290FFE71299002090
:1076200031B1FFE70A9900200829B8BF0120FFE720
:10763000C0070028E2D1FFE7FFE70A9801280CDB2A
:10764000FFE70A9801380A900DF12E01085C2E9987
:107650004A1C2E922FAA5054EFE753E04F98011D79
:107660004F91006809902E98411C2E912FA930222D
:107670000A542E98421C2E9278220A5448F2B521C0
:10768000C0F600010DF113001122FCF7B6FE002038
:107690000190FFE7099800F00F000DF11301085C5D
:1076A00001994A1C01920DF10A02505409980009EF
:1076B0000990FFE70999002031B1FFE70199002007
:1076C0000829B8BF0120FFE7C0070028E2D1FFE783
:1076D000FFE7019801280CDBFFE7019801380190D2
:1076E0000DF10A01085C2E994A1C2E922FAA5054C3
:1076F000EFE707E0509800782E994A1C2E922FAAA7
:107700005054FFE707E0509800782E994A1C2E92BB
:107710002FAA5054FFE7FFE75098013050906BE6D6
:1077200000200090FFE700982E99884210DAFFE7CA
:1077300000982FA9085C00F0BFF8FFE700F0E2F81E
:1077400008B9FFE7FAE7FFE7009801300090EAE7A1
:1077500051B0BDE8104003B07047000010B58CB0C8
:10776000FEF71EFF013041F100010A900B91FEF778
:1077700011FF0990099844F24021C0F20F01002244
:10778000884238BF012240F20800C2F2000042766F
:10779000407EC00790B1FFE70998FCF742FF014621
:1077A00042F20040C4F67410FCF7D8FEFEF7A0FFCA
:1077B00040F20801C2F20001086110E00998FCF7EC
:1077C00030FF42F20041C4F67411FCF7C7FEFEF729
:1077D0008FFF40F20801C2F200010861FFE709983B
:1077E00044F6D351C1F26201A0FB0101880940F2C5
:1077F0000801C2F200014861FEF748FF089000202E
:107800000790FFE70798011D0791002846D1FFE781
:1078100040F22C00C2F2000000240460FEF71AFAC5
:107820000591049004980599039102900194FFE753
:10783000019800F10801019140B9FFE7FFE7BFF3AC
:107840004F8FBFF36F8FFFE7012001E00020FFE7BC
:10785000F8B1FFE700BFFFE7FFE7BFF34F8FBFF3CC
:107860006F8FFFE7FEF7F6F9049A059B801A99419E
:1078700040F22C02C2F200021368C01A61EBE371FD
:107880000490059104980599039102900298106064
:10789000CEE7FFE70898FEF717FFB3E70CB010BD7F
:1078A00081B043F60000C4F20100009000984068E7
:1078B00080B201B07047000082B043F60001C4F20C
:1078C00001010191ADF80200BDF802006FF35F20E5
:1078D0000199486002B0704782B043F60000C4F2DC
:1078E0000100019001208DF803009DF8030001992B
:1078F000CA6800F0010022F4005242EA4030C86039
:1079000002B0704783B043F60000C4F2010001905A
:1079100040200090019800680099084204D0FFE7D9
:1079200001208DF80B0003E000208DF80B00FFE72D
:107930009DF80B0003B0704782B043F60000C4F21C
:107940000100019000208DF803009DF8030058B954
:10795000FFE70198416921F4807141610198416913
:1079600021F40071416132E09DF8030001280BD140
:10797000FFE70198416941F48071416101984169D3
:1079800021F40071416121E09DF8030002280BD130
:10799000FFE70198416921F48071416101984169D3
:1079A00041F40071416110E09DF8030003280BD100
:1079B000FFE70198416941F4807141610198416993
:1079C00041F400714161FFE7FFE7FFE7FFE702B025
:1079D0007047000010B58AB043F60004C4F20104F9
:1079E00009944FF4E130089000208DF81F008DF8C5
:1079F0001E0002A8FDF7EAFB0998A04203D1FFE7A9
:107A00000498019002E005980190FFE7019800EBCF
:107A1000800040000899B0FBF1F0009000984CF60F
:107A2000CD41CCF6CC41A0FB0112D10801EB810184
:107A3000A0EB410004280AD8FFE700984CF6CD419E
:107A4000CCF6CC41A0FB0101C80800900BE00098E7
:107A50004CF6CD41CCF6CC41A0FB0101012000EB5E
:107A6000D1000090FFE7BDF8000009998A684FF641
:107A7000FF739A43104488609DF81F000999CA68F3
:107A800000F0010022F4805242EA0030C8609DF804
:107A90001E0009990A6900F0030022F4405242EAEC
:107AA000003008610AB010BD83B043F60000C4F294
:107AB000010002900520C0F20C00019001208DF819
:107AC00003009DF8030001280CD1FFE7019800F0A6
:107AD0001F01012202FA01F1029A000C1358194306
:107AE00011500CE0019800F01F01012202FA01F18F
:107AF000029A000C135823EA01011150FFE703B06A
:107B00007047000084B043F60000C4F20100029008
:107B10002020019000208DF80300019801285FD0FB
:107B2000FFE7022855D0FFE7042852D0FFE70828D6
:107B300037D0FFE7102845D0FFE720282AD0FFE7FD
:107B4000402820D0FFE7802816D0FFE7B0F5807FDF
:107B50000BD0FFE7B0F5007F49D1FFE702984069FD
:107B6000C0F380208DF8030045E002980069C0F35F
:107B700080108DF803003EE00298C068C0F3C0108A
:107B80008DF8030037E00298C068C0F380108DF8CC
:107B9000030030E00298C068C0F340108DF8030085
:107BA00029E00298C06841090120C90729B9FFE707
:107BB0000298406900F00100FFE700F001008DF835
:107BC000030018E00298C068C0F300108DF80300AD
:107BD00011E00298406900F001008DF803000AE00E
:107BE0000298C068C0F300208DF8030003E0002075
:107BF0008DF80300FFE79DF80300012804D0FFE79C
:107C000000208DF80F000DE00298006801990842ED
:107C100004D0FFE701208DF80F0003E000208DF86D
:107C20000F00FFE79DF80F0004B0704782B043F6E5
:107C30000000C4F20100019000208DF803009DF8BF
:107C4000030058B9FFE70198C16821F40071C160D1
:107C50000198C16821F48061C16021E09DF80300B2
:107C600001280BD1FFE70198C16821F40071C160C0
:107C70000198C16841F48061C16010E09DF8030083
:107C800002280BD1FFE70198C16841F40071C1607F
:107C90000198C16841F48061C160FFE7FFE7FFE739
:107CA00002B0704782B043F60000C4F201000190B8
:107CB00001208DF803009DF803000199CA6800F0C7
:107CC000010022F0040242EA8000C86002B070475E
:107CD00082B043F60000C4F20100019001208DF84B
:107CE00003009DF803000199CA6800F0010022F02A
:107CF000080242EAC000C86002B0704710B584B004
:107D000002AC2046FEF702F803208DF80E00022098
:107D100002904FF090402146FEF70AF8FDF74EF929
:107D2000FDF78EF901AC2046FCF7DCFF00208DF852
:107D300004008DF805008DF8060001208DF807007D
:107D40002046FCF799FFFDF739F8FDF7EBF8FDF752
:107D50001FF9FDF721F8FCF7D3FFFFE7FCF7DEFF83
:107D600008B1FFE7FAE7FCF7F1FFFFE7FCF7FCFFDC
:107D700008B1FFE7FAE704B010BD000080B582B09B
:107D80006420019000F076F900900198013020B154
:107D9000FFE7019801300190FFE7FFE700F06AF983
:107DA0000099401A0199884201D2FFE7F6E702B034
:107DB00080BD000010B586B0FDF7B0FD01AC2046D7
:107DC000FDF730FD4FF48040ADF80C0000208DF839
:107DD000130001218DF811108DF812008DF810108C
:107DE0008DF815008DF814002046FDF735FD06B01E
:107DF00010BD000084B00820C4F2020003900020EF
:107E000002900190ADF80200BDF8020003994860AD
:107E100002980399886001980399C86004B070477C
:107E2000F0B583B001AC2046FDF770FF00268DF859
:107E30000A60012501958DF809504FF090402146C8
:107E4000FDF776FF8DF80A604FF4004001908DF841
:107E500009604FF090402146FDF76AFFC027C0201F
:107E6000FDF746FF8DF80B508DF808608DF80A502D
:107E700001978DF8096041F20045C4F600052846D7
:107E80002146FDF755FF03278DF80A704FF4604037
:107E900001908DF8096040F60000C4F6000021460C
:107EA000FDF746FF8DF80A7001978DF809602846A6
:107EB0002146FDF73DFF8DF80A7041F6FC10019058
:107EC0008DF809604FF090402146FDF731FF8DF8A5
:107ED0000A704FF6CF7001908DF8096040F20040B3
:107EE000C4F600002146FDF723FF03B0F0BD0000FB
:107EF00080B5FEF711FAFCF70FFE0021FCF7BCFC81
:107F000001466FF00B00FCF717FEFCF705FE0021A1
:107F1000FCF7B2FC01466FF00A00FCF70DFEFCF71F
:107F2000FBFD0021FCF7A8FC01466FF00900FCF7FF
:107F300003FEFCF7F1FD0021FCF79EFC01466FF00B
:107F40000400FCF7F9FDFCF7E7FD0021FCF794FCC9
:107F500001466FF00300FCF7EFFDFCF7DDFD0021AB
:107F6000FCF78AFC01466FF00100FCF7E5FDFCF729
:107F7000D3FD0F21FCF780FC01464FF0FF30FCF7EA
:107F8000DBFDFEF7ADF980BD80B54FF4A010FDF725
:107F90006FFA1120C0F21400FDF76AFA1220C0F245
:107FA0001400FDF765FA1320C0F21400FDF760FA23
:107FB0001620C0F21400FDF75BFA4FF4C010FDF775
:107FC00057FA0920C0F21800FDF752FA0E20C0F24D
:107FD0001800FDF74DFA0120C0F21C00FDF748FA29
:107FE00080BD000080B5FDF791FB42F20000C4F2B5
:107FF000020040F2531101600420FDF795F8FFE7FD
:108000000120C0F22400FDF713FA012801D0FFE798
:10801000F6E70020FDF788F8FFE70120FDF708FAF2
:10802000012801D0FFE7F8E7FDF77CFA0220FDF711
:108030007BF8FFE71920FDF7FBF9012801D0FFE7E6
:10804000F8E7FDF719F8FDF73FF8FDF729F80120EB
:10805000FDF74EF8FDF7A8FBFFE7FDF7C9FB022887
:1080600001D0FFE7F9E70020FDF742F8FEF776FBC5
:1080700080BD000040F2C400C2F2000000687047FA
:1080800080B500F001F880BD40F2C400C2F20000EB
:10809000016801310160704710B586B0002400947A
:1080A00001A8FDF793F802980090FEF76BFC00988A
:1080B00044F6D351C1F26201A0FB01014FF0FF3041
:1080C00000EB91104EF21401CEF2000108604EF266
:1080D0001800CEF2000004604EF21000CEF2000054
:1080E000016841F00301016006B010BDF0B585B034
:1080F00003AC2046FDF70AFE40F20045C4F6000539
:1081000028460421FDF7A8FE1020039002278DF8D1
:10811000127000268DF810608DF811608DF81370C4
:1081200028462146FDF704FE28460521FDF794FE6A
:10813000202003908DF812708DF810608DF811607A
:108140008DF8137028462146FDF7F2FDFEF794FCEA
:10815000FEF77CFCFEF74CFEFEF732FCFEF774FEE9
:10816000FEF75CFE06258DF8055001278DF80A7094
:108170008DF80B608DF808608DF809608DF8066049
:108180008DF807600DF1050400202146FEF7E8FC9C
:108190000020FEF72FFC0020FEF796FC0020FEF7E3
:1081A000DBFD8DF805508DF80A708DF80B608DF8A9
:1081B00008608DF809608DF806608DF80760022070
:1081C0002146FEF7CDFC0220FEF714FC0220FEF74C
:1081D0007BFC0220FEF7C0FDFEF764FC05B0F0BD9D
:1081E00070B582B06C462046FDF790FD4FF0904090
:1081F0000921FDF731FE02258DF8075000268DF884
:1082000004608DF806504FF4007000908DF8056002
:108210004FF090402146FDF78BFD4FF090400A2132
:10822000FDF71AFE8DF807508DF804608DF80650A2
:108230004FF4806000908DF805604FF0904021462B
:10824000FDF776FDFFF7C6FBFFF742FDFFF72AFDBE
:10825000FFF7ECFCFFF770FBFFF726FCFFF73CFB9A
:1082600002B070BD02E008C8121F08C1002AFAD18E
:1082700070477047002001E001C1121F002AFBD1A6
:108280007047000000000000000001020304060720
:108290000809000000000102030402040608020CA1
:1082A0000810B5E7C1F72025660D0A00B5E7D1B97A
:1082B00025660D0A003031323334353637383941CE
:1082C000424344454600303132333435363738394D
:1082D000616263646566000000830008000000209E
:1082E00008000000648200080883000808000020DD
:1082F000D80400007482000879C9FFFF0000000064
:0883000000127A0000000000E9
:04000005080040CDE2
:00000001FF
