:020000040800F2
:10400000881E0020E540000847450008AF4400082E
:1040100045450008AB4400082547000800000000A3
:104020000000000000000000000000003146000811
:10403000AD44000800000000B14500080941000837
:10404000FF400008FF400008FF400008FF40000854
:10405000FF400008FF400008FF400008FF40000844
:1040600000000000FF400008FF400008FF4000087B
:10407000FF400008FF400008FF400008000000006B
:10408000FF400008FF40000800000000FF4000085B
:10409000FF400008FF400008FF400008FF40000804
:1040A000FF400008FF400008FF400008E14600080C
:1040B000FF400008000000000000000000000000B9
:1040C000FF40000800000000FF400008DFF810D0AB
:1040D00000F02AF800F064F800480047854C00081A
:1040E000881E00200648804706480047FEE7FEE796
:1040F000FEE7FEE7FEE7FEE7FEE7FEE7FEE7FEE798
:104100008D460008CD40000830B410B50448804703
:1041100030BCAE4630BC0348004770478546704708
:1041200015570008554600081CB509480090094875
:1041300001900546009C06E0E06840F0010394E829
:10414000070098471034AC42F6D3FFF7C3FF0000D6
:10415000846B0008A46B000840EA01039B0703D0AE
:1041600009E008C9121F08C0042AFAD203E011F8B6
:10417000013B00F8013B521EF9D27047D2B201E078
:1041800000F8012B491EFBD270470022F6E710B55C
:1041900013460A4604461946FFF7F0FF204610BDB5
:1041A0007CB507480090074801900546009C04E054
:1041B0002046016808448047241DAC42F8D17CBDEC
:1041C000A46B0008A86B0008F0B480EA0102D40FC9
:1041D0004200B2EB410F02D20246084611464A00A5
:1041E00042D0C30DDDB2C1F3C752AD1A202D35DA6E
:1041F000C1F3160141F4000204B15242C5F1200698
:1042000002FA06F12A411044B3EBD05F23D0C4B1C7
:10421000012DA0EBC35009DCF0BC4FF0004202EAD4
:10422000C352DBB200F5000000F011B9400000F10C
:10423000807000EBC350A0F1807040EAD17049005B
:1042400009E0490841EAC071A0EBC35000F5000045
:10425000400800EBC350F0BC00F0F0B8614201220E
:1042600002EB4101001BF6E7F0BC704781F0004112
:10427000AAE780F00040A7E780EA010210B502F04B
:104280000043400022D04A001FD0010E01EB126112
:10429000C0F35600C2F3560240F4000042F400029C
:1042A000A0FB022000047F39140400D0401C50EA17
:1042B000124001D44000491EC2B20C0604EBD010DB
:1042C000401C4008802A02D003E0002010BD20F0EE
:1042D0000100002900DA0020184310BD30B480EA44
:1042E000010202F0004530F0004221F0004013D0FE
:1042F00090B1C30DD40DC2F31601C0F31600E41A39
:1043000041F4000140F400027D34914201D3641C69
:1043100000E04900002C02DA30BC002070474FF466
:1043200000000023914201D3891A034340084FEA59
:104330004101F7D151B1914202D14FF0004105E066
:1043400002D24FF0010101E06FF0010103EBC45014
:10435000284430BC00F072B8002801DBC0F10040F6
:10436000002901DBC1F10041814201D301207047E6
:1043700000207047002801DBC0F10040002901DB6C
:10438000C1F10041814201D10120704700207047F6
:10439000C10F80EAE0700844CA079623002100F0AC
:1043A00056B896230022114600F051B800F00042A2
:1043B00020F00040C10DC0F3160040F400007F293A
:1043C00001DA00207047962903DCC1F19601C8404C
:1043D00001E096398840002AF4D04042704700F04E
:1043E000004230F000400AD0C10D01F56071C0F309
:1043F000160042EA0151C2084007114370470020ED
:104400000146704701F0004330B421F0004150EA0A
:10441000010206D00A0DA2F56072C1F31301002A51
:1044200002DC30BC00207047440F44EAC104C100E4
:10443000E01830BC00EBC250AFF300800029A8BFE9
:104440007047401C490008BF20F00100704710B4BD
:10445000B0FA80FC00FA0CF050EA010404BF10BC72
:10446000704749B1CCF1200421FA04F411FA0CF19F
:1044700018BF012121430843A3EB0C01CB1D4FEAD8
:1044800000614FEA102042BF002010BC704700EBD3
:10449000C35010440029A4BF10BC7047401C490001
:1044A00008BF20F0010010BC7047FEE77047FEE730
:1044B000F8B5044600F06CFB204E80208025B04704
:1044C0001F4FB8472046B047B84700F061FB812036
:1044D000B047B84700F01CFB0A4E4027044637603F
:1044E00000F094F8356000F0E5FA46F8107C00F032
:1044F000E1FA376000F00CFB40EA042400F058FBBE
:104500002046F8BD281400482DE9F04190460D469C
:10451000064600F03DFB094F8020B847084CA047F5
:104520003046B847A0472846B847A0474046B84756
:10453000A047BDE8F04100F03BBB00BF4D4B000879
:10454000D94B0008FEE77047ADF80E908DF8097062
:10455000CDF80A6001F0A4BD8846496858F8080BF8
:10456000CDF8A480FFF74EBF2946ADF81540049062
:104570004FF090403047059504904FF0904000F088
:104580005DBAC06802F02CBA204601F09DBC2A68D2
:10459000C2F30222D31E82F00702704700EB8000B4
:1045A00001EB80007047014620464A4600F096B96C
:1045B000EFF30980BFF36F8F0D4B1A6820E9F00FFE
:1045C00010602DE908404FF0500080F3118801F091
:1045D000CBFF4FF0000080F31188BDE80840196858
:1045E0000868B0E8F00F80F30988BFF36F8F704759
:1045F0002C000020E0B58020694600900248019020
:104600008B4800F01BFA8CBD01000002E0B5802051
:104610006946009002480190854800F00FFA8CBD71
:104620000100010200000000000000000000000086
:10463000074B19680868B0E8F00F80F30988BFF3EA
:104640006F8F4FF0000080F311884EF00D0E704711
:104650002C0000207848416BA1B180B5806B4FF0F1
:10466000500080F31188BFF36F8FBFF34F8F02F0BC
:104670004FF918B104484FF080510160002080F3D9
:10468000118880BD704700BF04ED00E0114801684B
:1046900041F00101016001688907FCD5416821F002
:1046A00003014160416811F00C0FFBD101680A4A17
:1046B000114001600021416041F61071C1624FF468
:1046C000801101634FF41F01816004484FF00061C5
:1046D0000160704700100240FFFFF2FE08ED00E0AD
:1046E0000E48C168890618D50168890615D50C4998
:1046F0000A78406880B280F05A0380F0A500134326
:1047000082F0010240EA0200B0FA80F04FEA501055
:104710004FEA400008BF0120087070470038014090
:1047200058010020FEE700000648BFF34F8F064AFD
:10473000016801F4E06111430160BFF34F8F00BFD6
:10474000FDE700BF0CED00E00400FA0500F050BFEB
:1047500082B03548364C6D464026016841F48001F0
:104760000160016841F480010160304829460096EB
:104770000190204600F062F98027204629460097E4
:1047800000F05CF9002043212722A661A7614FF0C9
:104790000008FFF7B9FE052008210022FFF7B4FE4C
:1047A0002648244DD94E8146254805F11404C5E913
:1047B0000588C5E907888246307801280DD068BB96
:1047C0000220FFF775FE80B2FFF7EBFD5146FFF7C1
:1047D00053FD68613078013021E00420FFF768FE66
:1047E00000B2FFF7D5FD4FF07A51FFF745FD4FF0CE
:1047F0007A510746E861FFF7BDFD48B9384649469A
:10480000FFF7B8FD20B938460021FFF7A5FD08B92C
:10481000C5F81C80F069214601F0E8FE00203070E8
:10482000052001F069FEC7E71410024000010101F4
:10483000001400488400002008000020000080BE12
:104840000AD7A33A08480168C9071CBF002070476F
:104850000168490744BF012070470068C0064FF057
:10486000020058BF032070470C200240B0B5044638
:10487000FFF7E8FF0025013C45F1000118B911B12F
:10488000FFF7E0FFF7E7B0BD10B5134C206840F02C
:1048900002002060F5486060206840F04000206021
:1048A0004FF08040FFF7E2FF206820F00200206018
:1048B00010BD00BF10B5084CF049206840F0010061
:1048C0002060EA4801604FF48010FFF7CFFF2068B6
:1048D00020F00100206010BD102002402DE9FF41B2
:1048E0008046084615460F46FFF760FD0446FFF771
:1048F0004FFD01463846FFF7B9FC002C48BF80F059
:10490000004005D0B4F1FF3F26DD4FF0000C29E058
:104910003021012488F80010012D18DB2E211F4EB4
:1049200008F80410013495B13146FFF7A5FC07469D
:10493000FFF73CFD00F1300108F80410FFF728FDF7
:1049400001463846FFF792FC0134013DEBE70020B9
:1049500008F80400BDE8FF812D2164424FF0010CEE
:1049600088F8001000230A22F62701A9002C09DD8F
:10497000B4FBF2F606FB074444F03004CC54013398
:104980003446F3E70CEB030408EB0C02013B5E1C1E
:10499000C2D0CE5C02F8016BF8E700BF00002041F6
:1049A0002DE9F047DFF8E49EEFF3108872B600209F
:1049B00000214FF0000ABAF1000F18BFBDE8F087E0
:1049C00000F094FE044699F858000D4600B300F03C
:1049D000B5FE50B100F08AFE04460D4600F094FE8C
:1049E00000196941441C41F10005D9E910010AF19F
:1049F000040A00196941D9E91223821A71EB0302F2
:104A0000ACBFC9E91201D9E9120188F31088D2E7D5
:104A1000EFF3108772B60026002EE6D100F08EFE6E
:104A200038B100F05DFE00F075FE00F05FFE044658
:104A30000D4687F31088043EEEE700BF2DE9F041F4
:104A40000E884FF000084FF0030C4FF0010EB5B286
:104A50006DB3F60727D01FFA88F704687E000CFABA
:104A600006F39C4304608C790268B44022430260E0
:104A70000EFA07F2446824EA020242600A794468A6
:104A8000BA402243426082689A438260CA7984684D
:104A9000B24022438260C2689A43C2604A79C368C6
:104AA000B2401A43C26008F101086E08CFE7BDE8C2
:104AB000F081000070B5144C94F85900216D28B1B4
:104AC0004FF40030B0FBF1F1002001E0C817C9132A
:104AD0000E4A136A5B2BACBF126A5A22D317551ABF
:104AE000834110DA8D1A60EBE276FFF759FF2D183B
:104AF0004E41FFF755FF401B71EB060003DA94F8B7
:104B00005900206DF5E770BDF80000200800002076
:104B1000F8B5FFF76FFD0C4C8020002508264027D4
:104B2000A06030060CD0A761FFF7C4FFA7606D003E
:104B3000FFF7C0FF2068013EC0B245EAD015F0E79C
:104B40004020A061E8B2F8BD101400482DE9F04102
:104B50000446FFF75BFD324D082640274FF08008E2
:104B600030062F610FD060B2B0F1FF3F2846C8BFBA
:104B70001030C0F80080FFF79DFF2F606400013EF9
:104B8000FFF798FFECE780202860BDE8F08100BFC8
:104B9000F8B5FFF73BFD0F4CA047214D802640277D
:104BA0002E602F60A0472E61A0472F61F8BD00BF87
:104BB000F8B5FFF72BFD074F194C402580262561DE
:104BC0002661B8472560B84726603846BDE8F840FA
:104BD000004700BFB54A0008B0B5FFF70BFD104C09
:104BE0004020206180202060FFF764FF32252806E6
:104BF00007D054F8080C00060CD5FFF75BFF013D09
:104C0000F5E740252560FFF755FF2561BDE8B04079
:104C1000FFF750BF40252560FFF74CFF2561B0BD71
:104C20001814004811481549114C124D124E0068D5
:104C3000884207D125602660FFF726FEE06840F035
:104C40008000E0600E4F3878022803D00A2001F07F
:104C500053FCF8E725602660FFF716FEFFF72AFEF3
:104C6000E06840F08000E06000F0C0FC0038000820
:104C70000420024023016745AB89EFCD384B5441F6
:104C80005801002086B0604D6048614F45F8040C23
:104C900057F8040C40F0010047F8040C57F8040CD6
:104CA0008007FBD5386820F003003860386810F0C2
:104CB0000C0FFBD157F8040C5649084040F2531131
:104CC00047F8040C0020386041F61070B8624FF4C9
:104CD0008010F8624FF41F0078604F480160386A16
:104CE00040F001003862386A8007FCD557F8040CA0
:104CF00040F0010047F8040C57F8040C8007FBD57E
:104D000038680D2120F480303860F86A40F0007077
:104D1000F862386861F3954001213860386861F3C2
:104D20005E703860B86A20F0E060B86257F8040C32
:104D300040F0807047F8040C57F8040C8001FBD554
:104D40003868042120F0F0003860386820F46050A2
:104D50003860386861F30A2002213860386D40F00D
:104D600030003865386861F30100386000BF00BF6B
:104D700000BF00BF00BF00BF00BF00BF00BF00BF3B
:104D800000BF00BF00BF00BF00BF00BF00BF00BF2B
:104D900000BF00BF386800F00C000828FAD1386D59
:104DA0001E4E20F0300038653868C0F381000228BC
:104DB0000CD0002830464BD1386D8005304647D5A1
:104DC000F86A800154BF3046154841E03868B96A36
:104DD000000C002928D439683A68C2F34172C1F343
:104DE000834112B90F2940F0A3831201013211440B
:104DF000C00705D03868800302D401FB06F027E025
:104E00000848484324E000BF0CED00E000400008E3
:104E100004100240FFFFF2FE0020024000127A0060
:104E2000006CDC0200093D00B96ABA6ABB6AC007BF
:104E3000CF48C1F30311C2F3082203F0070303D0E4
:104E40003C68A40358BF304699405043B0FBF1F092
:104E5000DFF8EC26DFF8EC9600244FF0010ADFF8CB
:104E6000EC6650603968C1F3031119F80110C840AD
:104E70004FF6FF015060386940F001003861386931
:104E800040F400303861386940F480203861386976
:104E900040F400203861386940F480003861786956
:104EA00040F001007861786940F4007078617869B9
:104EB00040F480407861B86940F00200B861286829
:104EC0000840AC4908434FF0FF31286028682C7334
:104ED00028686C732868AC732868EC7428682C7593
:104EE0002868C0F30220C21E80F0070338BF2246A4
:104EF0000420042B28BF034601FA03F3DB4303FA23
:104F000002F21201AA75FFF742FB38BF2346042ABA
:104F100028BF024601FA02F2D2439A401201EA7512
:104F2000FFF735FB38BF2346042A38BF104601FA85
:104F300000F0052121EA00008F4998400001087027
:104F40008E494FF00060C1F8F0004FF0012005904D
:104F5000CDF810A004AD4FF090402946B0474FF473
:104F60000040FFF701FB8648C02101608548CDE97C
:104F70000410854829468046B0474FF460404FF4FE
:104F8000407429460490A8F54060ADF81540B0473C
:104F900003202946ADF8154004904046B04741F63D
:104FA000FC10FFF7E1FAADF81540784C4FF6CF70E2
:104FB000294604902046B04775480225049505907F
:104FC00004A94FF09040B047B86840F40070B86052
:104FD000B86820F40070B860386865F38F303860C6
:104FE000386820F0805038606A4850F8041C21F47A
:104FF000807140F8041C016821F002010160016821
:1050000021F400610160416A21F47001416281680C
:1050100021F038018160C16A6AF30401C16201684C
:1050200041F460210160016841F48011016050F891
:10503000041C21F4006140F8041C016841F00101E6
:105040000160016841F00801016001680907FCD4B2
:10505000016841F00401016001684907FCD44E4831
:105060004BF6EF734D4E4E4D0DF1100B016821F0D4
:10507000010101600021016041608160C16050F860
:10508000042C42F00F0240F8042C02681A4002601F
:10509000026842F480420260026822F440520260D8
:1050A000026822F440620260026822F440720260E8
:1050B000026842F080020260026842F04002026030
:1050C000026822F02002026041608160C16041609C
:1050D0008160C160016841F0010101605946A05939
:1050E00020F0F000A051A05940F01000A0514FF462
:1050F0000070FFF740FAA0595946A046AA4620F48E
:105100007060A051A05940F48070A0514FF48060AD
:10511000FFF731FA3868C0F3810002280AD0214E27
:10512000002857D1386D800554D5F86A800148BFF2
:105130001D4E4FE03868B96A1A4E000C002935D46C
:1051400039683A68C2F34172C1F3834112B90F2939
:1051500040F0F281120101321144C00704D03868D6
:10516000800301D44E4335E0014801FB00F631E0F5
:1051700000093D000003FA051BE400E010E000E038
:105180001814004800000101001400480004004801
:1051900000000301082401400800024024FCFFFF36
:1051A0000000020200127A00006CDC02B96ABA6ADE
:1051B000BB6AC007DF48C1F30311C2F3082203F042
:1051C000070303D03D68AD0358BF304699405043B4
:1051D000B0FBF1F6386839684FF6FF7339683A6802
:1051E0003A68C0F30310DAA219F80000C1F3C22133
:1051F000515CD94A26FA00F0C8404FF4E13100EB87
:1052000080004000B0FBF2F2B0FBF1F102EB820053
:10521000A1EB40000428D14888BF013250F8041C9B
:105220009943114440F8041C016821F48051016045
:10523000416821F440514160016841F0080101607A
:10524000016841F004010160016821F4007101600E
:10525000016821F480610160816821F480718160BE
:10526000816821F400718160016841F020010160D2
:10527000016841F400510160D8F8200020F470204A
:10528000C8F82000D8F8200040F48030C8F820008A
:105290001020CDF814A0049004AD40462946FFF735
:1052A000CDFBD8F82000294620F47000C8F8200073
:1052B000D8F8200040F48010C8F820002020CDE964
:1052C000040A4046FFF7BAFBA54D0DF109044FF063
:1052D0000109062700262146286820F07000286072
:1052E000286820F440702860286820F0800028603A
:1052F00040F2CF70E86240F2AF40A862686940F0C7
:1053000001006861A86820F08000A860686820F04B
:10531000700068600020FFF717F9A869214620F0A7
:105320000800A8616E63A86920F00400A86102204B
:10533000FFF70AF9A86920F40060A861A86920F4C1
:105340008060A861AE63286840F00100286000F02A
:105350004FF901F063F8102001F032F9814DE86156
:10536000022001F02DF9A8617F48844C05F1080264
:105370007EA1A047824805F10C0282A1A047824885
:1053800005F1100281A1A047844805F1140284A10F
:10539000A04701F05FF8844886A180220023019095
:1053A00082480090824801F07DFA0028286500F0CC
:1053B000AA8001F033F8286E002844D001F04AF8A2
:1053C000286EB8B3834886A14FF4807202230190FF
:1053D00081480090814801F065FA686650B34FF04B
:1053E000500080F31188BFF36F8FBFF34F8F564B80
:1053F00052494FF0FF30686501208B4668630020FA
:10540000E86393F8F0030490FF2083F8F00393F827
:10541000F0038DF809009DF8090007209DF9091097
:10542000B1F1FF3F4ADC9DF80910013849008DF8C1
:105430000910F3E74FF0500080F31188BFF36F8F2E
:10544000BFF34F8FFEE75D480021024642F8141F6C
:1054500040F8281F4FF0FF31C5E91A20024642F8F4
:105460000C1D40E9022240F8102C024642F8081FA9
:10547000C0E903224260502004900498502845D18E
:105480004F4C01204F4A102184F8460023460498CF
:105490000A2000F03DFA4C486FF03F012C660029CD
:1054A0003FF48CAF01F108020144096C0029114658
:1054B000F5D1104445A1C0E90E147FE703282ED191
:1054C00004981F4C4FF47A7283F8F003DBF8140051
:1054D00040F47000CBF81400DBF8140040F070408A
:1054E000CBF814000020186098606168B1FBF2F1FD
:1054F0000139596020600720186000F0C9FA01F0F6
:1055000033F800F027FB38480068FEE74FF0500002
:1055100080F31188BFF36F8FBFF34F8FFEE74FF01B
:10552000500080F31188BFF36F8FBFF34F8FFEE7FA
:1055300002225CE400093D0002220DE60CED00E0D1
:10554000000000206E6B000810E000E03D4A0008FB
:105550000000000001020304009411000C38014017
:10556000000400400800002051470008636865639C
:105570006B5F63757272656E740000005568000899
:10558000254C0008696170004D60000873656E6409
:105590005F686561727462656174000099600008FB
:1055A000736572766F0000005C0300205C010020D0
:1055B0009158000849444C4500000000F8000020C4
:1055C00058040020B8030020441A0020546D725182
:1055D00000000000E8090020E8050020855B0008C5
:1055E000546D722053766300806B0008FFF79CF8BF
:1055F0002DE9F84FDFF89482EFF3108472B60120A2
:1056000088F8580000F06CF884F3108800F07CF8FB
:1056100000F074F8044630484FF0000984424FF01F
:10562000000038BF012088F859002046FEF7B9FE77
:105630002A4E05463146FEF751FE074630462946BA
:10564000FEF74CFE98F8591000294FF08F4108BF23
:105650003846FEF711FE4FF07C51FEF7B5FDFEF720
:10566000A5FEC8F850004FF47A70A64E4FF0000B1C
:10567000B4FBF0F0C8F85400EFF3108A72B6BBF137
:10568000000F22D10BF1040BC6F820900127FFF781
:1056900087F904460D46F80714D0BFF34F8FBFF3C8
:1056A0006F8F00BFBFF34F8FBFF36F8FFFF778F996
:1056B000326A121945F10003841A61EB0305346262
:1056C0000027E8E78AF31088D9E70020C8E910002E
:1056D000C8E91200BDE8F88F40420F000024744969
:1056E0008A484FF000710160704700BF08480022EF
:1056F00001684068081A62F100017047014840687B
:10570000704700BF0000002001480021006870477A
:1057100014E000E0B0B5FFF7F7FF5C4BEFF3108249
:1057200072B6D3E9104500196941013041F1000119
:10573000C3E9100182F31088B0BD00BF7348006850
:10574000C0F38060704700BFF8B5DF4E04460D46D9
:10575000F76B706A043000F02DFE601C08D13DB17B
:10576000B648716A38300431BDE8F84000F049BEEF
:10577000706AE419446006D3706C716A0431BDE844
:10578000F84000F027BE306C716A043100F022FE50
:10579000706D844238BF7465F8BD00BFF8B504462B
:1057A00000F03CFEEA4D286B01302863686A48B17E
:1057B000686B002849D1E06A696AC96A814298BF6A
:1057C0006C6242E06C62286B01283ED14E49002099
:1057D0004FF0FF320023B3F5A07F09D0CE18C85098
:1057E0001433374647F8082FC6E903777760F2E7A6
:1057F0009248264B00214FF0FF360246074642F8FA
:10580000601F1960C16447F8686FC0E91B7747667D
:105810001F4647F8086FC3E903775F60074647F8FC
:10582000546FC0E916770765074647F82C6FC0E943
:105830000C778762416240F8406F40F8081C2A6488
:105840006B64C0E9010040F8040CA86A0130606490
:10585000A862E06AA96C88422B4988BFA864FEF759
:105860009DFE211D00F0CDFD00F0F4FD686B60B1E0
:10587000E06A696AC96A814207D224484FF08051C0
:105880000160BFF34F8FBFF36F8FF8BDF8000020AA
:105890001E48AF4D1C4E694F4FF080588146E86A54
:1058A000E0B100F0BBFD386BC468201D00F082FD44
:1058B000286B01382863E86A0138E86200F0CAFD05
:1058C00094F859000228EAD0012803D088B9206B47
:1058D00000F0D6FD204600F0D3FDE0E73068022856
:1058E000DDD3C9F800804846BFF34F8FBFF36F8FF9
:1058F000D5E74FF0500080F31188BFF36F8FBFF3EF
:105900004F8FFEE708000020A804002004ED00E00F
:1059100070B51C461A60C4E90F0100F07FFD002538
:10592000FF204FF0FF332646A56384F8440084F837
:105930004500256146F8183F2068D4E90F12C4E9F4
:1059400007666661264646F82C3F02FB01030139D3
:105950006060C4E90C66A66201FB0200A360E0601F
:10596000656200F077FD84F84C5070BD2DE9F04180
:10597000079C80460E4617469100A5221D46206BC7
:10598000FEF7FCFB206B002304F1340200EB8700E0
:10599000043820F00701069856B1102B04D0F75CAC
:1059A000D7540133002FF8D1002284F8432000E0BF
:1059B0001370002284F858200F2D28BF0F25C5F141
:1059C0001003C4E91352C4E90A25626564622461C4
:1059D000C4E90523A1F1400341F8202C064A28F030
:1059E000010523604FF0807341E9032541F8043C31
:1059F00000B10460BDE8F081555B0008B0B50F4907
:105A000001F10C02114612688242FBD34C684368D4
:105A10000D19854202D1234408464B60C4189442B4
:105A200007D14B4C646FA24203D0D2E90024234437
:105A300043600260814218BF0860B0BD840000204E
:105A400010B50C460146006141F8044F944206D956
:105A50003F4868309A4208D29C4206D30AE08069E7
:105A6000D21A824206D23A486C30006800F0B2FC8A
:105A7000002010BD012010BD10B5044600F0CEFC82
:105A8000A06BB0FA80F0440900F0E4FC204610BDA1
:105A900006480068006880F3088862B661B6BFF304
:105AA0004F8FBFF36F8F00DF00BF000008ED00E0F5
:105AB0002748016C096819B1016CC968096801E0DF
:105AC0004FF0FF3141657047080000202DE9F84391
:105AD000FB4D8046D5F83C90286F81452AD2A86EB0
:105AE000016849B3C068C6680468371D384600F0CD
:105AF00061FC316A3046884796F828004007EED5A9
:105B0000B0692044A04206D9366170603946A86E5B
:105B100000F060FCE3E73046214600F0F9FF002882
:105B2000DDD14FF0500080F31188BFF36F8FBFF3CA
:105B30004F8FFEE7002003E0E96EC5E91A1001204F
:105B4000C8F800004846C5F87090BDE8F88300BF6B
:105B50000800002081B000200090094800684FF044
:105B6000500181F31188BFF36F8FBFF34F8F013066
:105B700000D0FEE700980028FCD001B0704700BFBD
:105B80000000002088B0DFF8789FDFF838A30DF11F
:105B9000140807AED9F86800046814B1C068056835
:105BA00000E00025D9F838000130C9F8380001A814
:105BB000FFF78CFF0746019810B100F041FF65E048
:105BC00024B1BD423ED94FF0000B06E0D9F86C007D
:105BD0000068B0FA80F04FEA501BD9F8604000F03E
:105BE0001DFC9AF84400FF2804BF00208AF84400F6
:105BF0009AF84500FF2804BF00208AF8450000F00D
:105C000029FCDAF8380078B9D9F8241004F1240016
:105C1000183100F0F6FB4FF0FF305946BBF1000F92
:105C200008BFE81BFFF790FDFEF7AEFC00F008FF91
:105C300060BBA2484FF080510160BFF34F8FBFF3AC
:105C40006F8F23E000F0FCFED9F86800C068C468DC
:105C5000201D00F0AFFB94F82800410704D400F0A9
:105C6000FA0084F828000EE0A0693A462B46411954
:105C70002046FFF7E5FE30B12046294600F048FFF8
:105C8000002800F01181216A20468847D9F8607009
:105C900000200790002F00F0EC80D9F8340008B104
:105CA000D9F8380007F124044FF0010B00F0B6FBDF
:105CB000DAF83850002D58D10798002878D05FEADC
:105CC000CB7005D0D9F85C000590D9F83C0006905F
:105CD00000F0C0FBD9F838000130C9F8380000F0F6
:105CE0009DFB9AF84400FF2804BF00208AF8440076
:105CF0009AF84500FF2804BF00208AF8450000F00C
:105D0000A9FB4046314600F06BFD60B1384600F01B
:105D1000DBF800F095FE3846FFF7AEFE4FF0000BC3
:105D20000028C3D036E73846FFF7A6FEA8B107998A
:105D3000204600F001FC384600F0C6F800F080FE76
:105D40004FF0000B0028B1D15C484FF0805101604A
:105D5000BFF34F8FBFF36F8FA8E7384600F0B4F85A
:105D600000F06EFE4FF0000BA0E7DAF840206AB1B9
:105D7000DAE902011144CAF80C10814224BFDAF8B2
:105D80000010CAF80C1001A8FEF7E6F9681ECAF860
:105D90003800DAF8100058B1F869FEF7F2FB38B1B4
:105DA00046484FF080510160BFF34F8FBFF36F8FB4
:105DB00000F050FB002D3FF4EDAE019D039CB5F1CA
:105DC000FF3F33DD606910B1201D00F0F3FA684633
:105DD000FFF77CFE092D3FF659AF0246DFE805F0DC
:105DE0000505053A2B4105053A2B94F82800029F3A
:105DF00040F001003B4684F82800A069C119204604
:105E0000FFF71EFE00283FF441AF216A2046884775
:105E100094F8280040077FF539AFA069C1192046E2
:105E200000F076FE00287FF431AF34E0029A049946
:105E3000204690472AE7029894F8281041F0010183
:105E4000A06184F82810E8B1811820461346FFF7B6
:105E5000F7FD1BE794F8280000F0FE0084F8280006
:105E600014E794F828008107F6D4204600F008FBD8
:105E70000CE74FF0500080F31188BFF36F8FBFF332
:105E80004F8FFEE74FF0500080F31188BFF36F8F04
:105E9000BFF34F8FFEE74FF0500080F31188BFF340
:105EA0006F8FBFF34F8FFEE74FF0500080F31188E4
:105EB000BFF36F8FBFF34F8FFEE700BF04ED00E02D
:105EC0000800002058040020F8B5044600F0A6FAA7
:105ED00094F845605B4D012770B2012808DB606AC9
:105EE00030B1206BFEF74DFB00B1EF64013EF3E7EC
:105EF000FF2084F8450000F0ADFA00F08FFA94F826
:105F00004460012770B2012808DB206930B1E069E4
:105F1000FEF737FB00B1EF64013EF3E7FF2084F8A2
:105F20004400BDE8F84000F095BA00BF2DE9F0410B
:105F3000444DA96B0131A963696F29B12A79002AFF
:105F400018BF4FF000421DE03F4B00214B4A5C0759
:105F500003F5805603F1070418BF24F00703C2E9D4
:105F6000033126F00704A4F108066E6744E9021124
:105F7000F41A696F146001225C60AC6719602A71C1
:105F80004FF0004202420DD0002400F059FD60079E
:105F900013D04FF0500080F31188BFF36F8FBFF321
:105FA0004F8FFEE700F10803420709D020F00700F9
:105FB00000F110029A42E7D903E02046BDE8F081E3
:105FC0001A46AB6F9A42DFD8DFF8388B464656F850
:105FD0000C4F606837462646904202D23468002C47
:105FE000F7D18E42D0D031683C683960811A1129CE
:105FF00011D3B018430708D04FF0500080F3118838
:10600000BFF36F8FBFF34F8FFEE741607260FFF702
:10601000F5FCAB6F7068D8F800200834191AA9672E
:10602000914238BFC8F800102979002918BF40F004
:1060300000400021C6E90010D8F804000130C8F87B
:106040000400A2E708000020440A00200B4E0CA424
:106050000EA57069FEF7C3F9024620460B4600F014
:1060600085F8F069FEF7BBF9024628460B4600F0BA
:106070007DF80A2000F040FAEBE700BF8400002022
:10608000B5E7D1B925660D0A00000000B5E7C1F7F4
:106090002025660D0A000000012000F02DFAFBE724
:1060A00070B54FF400724D788C7802FA00F32E4AE6
:1060B000166826EA0303136000F1090304FA03F3E8
:1060C00014689BB2234313604FF4807314688340B9
:1060D00024EA0303052413604300D6699C4026EAA2
:1060E000040400F10806D461B5401668ADB235432A
:1060F0000228156009D0A8B9506920F0030050614A
:106100000D78506965F306100BE0506920F440707B
:1061100050610878556900F0070025F4E04545EA2C
:106120000030506108200E79CD78984024EA0000B4
:10613000DC1C06FA04F44FF6FE76344001262043B8
:1061400043F00104A64005FA04F4B043A4B220438E
:10615000D0614C7989799C4002339940214389B2BE
:106160000843D06170BD00BF0404004083B02DE936
:10617000F04FAAB033AC0DF1CC0800274FF0060960
:1061800087A50FF2082A0EC4CDF8A48009AE01AC91
:106190000178002900F0E7807F2F80F0E480252936
:1061A0002AD1834608F1040E1BF8013F782B58D002
:1061B000582B7DD0632B71D0642B24D0662B08F133
:1061C000070C3DD0732B2FD02E2B19D18178A1F144
:1061D0003002092A14D803304FF00009A1F130022F
:1061E000092A00F2838009EB890201EB4201A1F147
:1061F000300910F8011BF1E7F1550137834654E0EF
:10620000F355013751E0CDF8A4E0AC46D8F80020B2
:10621000B2F1FF3F7EDD002A4FF00A014FF0F60594
:1062200000F08480002090E0CDF8A4E0D8F80000D1
:106230000278CAB37E2F37D8F25501370130F7E71D
:106240002CF00701FEF788F9FEF7ADF9F0190021EF
:10625000635C7A18002B67D07E2A65D843540131DD
:10626000F6E7CDF8A4E047F630000023D8F8002088
:10627000F05302F00F00285CE054581C102A03D39E
:106280001209072B0346F4D3023701280CDB22182E
:10629000013812F8012CF2550137F6E7CDF8A4E0E9
:1062A000D8F80000F0550137F0460BF101006FE718
:1062B000CDF8A4E047F630000023D8F80020F053D2
:1062C00002F00F001AF80000E054581C102A03D303
:1062D0001209072B0346F3D302370128E4DB221807
:1062E000013812F8012CF2550137F6E7A0F1010B45
:1062F0006629DAD12CF00701FEF72EF9FEF753F9E3
:10630000F0190021635C7A1863B17E2A0AD84354DD
:106310000131F7E72D2052420A21F625F0550137C9
:10632000002012E04FF006091746BEE73020002299
:106330008DF80400012008E0B2FBF1F303FB052215
:1063400042F03002225401301A46012A01DB0B28A8
:10635000F2D365460128A7DB2218013812F8012C78
:10636000F2550137F6E708490020B84206DA325CF8
:106370004A600A685206FCD50130F6E72AB0BDE84B
:10638000F04F03B0704700BF003801403031323366
:106390003435363738394142434445460000000021
:1063A000303132333435363738396162636465668B
:1063B00000000000D0E9013201699A6053604B6827
:1063C000834208BF4A600A68013A0A6000220261FB
:1063D00008687047B0B50C68621C07D000F108026D
:1063E000134652681568A542FAD901E003695A6854
:1063F0009160C1E9012308615960016801310160C0
:10640000B0BD10B50268436808619C6801324B60FA
:106410008C6061600260996010BD00004FF0500018
:1064200080F31188BFF36F8FBFF34F8F134801685C
:106430004A1C026001B17047E74800680006FAD0C4
:106440004FF0500080F31188BFF36F8FBFF34F8F71
:10645000FEE700BF0948016819B10139016009D0A0
:1064600070474FF0500080F31188BFF36F8FBFF378
:106470004F8FFEE7002080F3118870470000002056
:10648000B0B5B0B1F24A50F8043C1479002C18BFF2
:106490004FF000441C420DD0A0F108010D6895B1E9
:1064A0004FF0500080F31188BFF36F8FBFF34F8F11
:1064B000FEE7B0BD4FF0500080F31188BFF36F8F3F
:1064C000BFF34F8FFEE7A34340F8043C936B0133C7
:1064D000936350F8040C936F184490670846FFF7D5
:1064E0008DFA0448816801318160BDE8B04000F058
:1064F000A7BA00BF8400002080B5D5498A6B42B19D
:106500004FF0500080F31188BFF36F8FBFF34F8FB0
:10651000FEE78A6B01328A630021FFF715F900F06C
:106520008FFA00B180BDAC484FF080510160BFF3DD
:106530004F8FBFF36F8F80BD60B110B50C46C4495B
:10654000496A1831FFF746FF20460121BDE8104097
:10655000FFF7FAB84FF0500080F31188BFF36F8F48
:10656000BFF34F8FFEE700BF10B5B948816B11B183
:106570000121C16410BD0021984BC164816C01EB05
:10658000810203EB820213681BB979B1143A013915
:10659000F9E7536802F108045B68A342536001D134
:1065A0005B685360DA684262816410BD4FF050004E
:1065B00080F31188BFF36F8FBFF34F8FFEE700BFEB
:1065C000B0B50446502000EB0410FFF7AFFC0546C1
:1065D00048B1002005F1500221462B4685F84600BF
:1065E0001020FFF795F92846B0BD00002DE9F04FC7
:1065F00085B004460020002C04905FD0002966D0AE
:10660000F64F0191786B00B1B86B04F1100A4FF0AE
:10661000010B0DF108090DF11008FFF7FFFEA06B4B
:10662000E16B88425FD3049800286DD05FEACB709D
:1066300003D0F86D0290F86B0390FFF70BFFB86B77
:106640000130B863FFF7EAFE94F84400FF2804BF66
:10665000002084F8440094F84500FF2804BF00207F
:1066600084F84500FFF7F6FE4846414600F0B8F8CA
:1066700000284CD1FFF7D2FEA56BE66BFFF7EAFED0
:10668000B54214D104995046FFF756FFFDF77CFF41
:1066900000F0D6F94FF0000B0028BED14E484FF065
:1066A00080510160BFF34F8FBFF36F8FB5E7FDF7E8
:1066B0006BFF00F0C5F94FF0000BAEE74FF0500054
:1066C00080F31188BFF36F8FBFF34F8FFEE7206C0D
:1066D000002895D04FF0500080F31188BFF36F8FE2
:1066E000BFF34F8FFEE7A66B226CB2B160680199D1
:1066F000FDF732FDD4E90101226C1044606088424C
:1067000024BF206860600AE0FFF7A4FE03E0FDF705
:106710003BFF00F095F900201FE0206800B3012046
:10672000711CA163616A61B1206BFDF72AFF88B11A
:10673000F6494FF080500860BFF34F8FBFF36F8F63
:1067400008E038B9F1494FF080500860BFF34F8F2F
:10675000BFF36F8FFFF77EFE012005B0BDE8F08F1D
:10676000A5685DB1786AA8420CD04FF0500080F364
:106770001188BFF36F8FBFF34F8FFEE70120002119
:10678000A160CDE7286DF0B1013828654FF0010018
:10679000F5D1E96AEA6C9142F1D005F1040840466E
:1067A000FFF708FEE86CC0F11001E862A961B96C5E
:1067B0008842D54988BFB864FDF7F0FE4146FFF72F
:1067C00020FE0020DBE74FF0500080F31188BFF37C
:1067D0006F8FBFF34F8FFEE704ED00E0A8040020A9
:1067E000F8B5D8B10C4611B30546FFF717FED748E8
:1067F000C26B21684B1C0FD0D5E90063C76DB7424F
:1068000001D09A421CD2D21A914219D9891A216018
:10681000C16D2960C06B6860002414E04FF0500027
:1068200080F31188BFF36F8FBFF34F8FFEE74FF0F8
:10683000500080F31188BFF36F8FBFF34F8FFEE7D7
:10684000002020600124FFF705FE2046F8BD00BFB0
:10685000080000202DE9FC4105464FF40070164663
:106860008846FFF763FBB0B107465C20FFF75EFB8D
:1068700098B10446002041468022002384F8590044
:1068800028462763CDE90064FFF770F82046BDE88D
:10689000FC41FEF783BFBDE8FC813846BDE8FC4102
:1068A000FFF7EEBD7FB5089DB5B1099CECB15C2644
:1068B0000296029E5C2E21D1029E2563022684F858
:1068C000596003ADCDE90054FFF750F82046FEF7BC
:1068D00065FF039804B070BD4FF0500080F311883D
:1068E000BFF36F8FBFF34F8FFEE74FF0500080F381
:1068F0001188BFF36F8FBFF34F8FFEE74FF050004B
:1069000080F31188BFF36F8FBFF34F8FFEE7000056
:106910002DE9F8438D4EB06B20B1B06D00240130ED
:10692000B06558E0F06B10F10109C6F83C9014D343
:10693000306C006840B14FF0500080F31188BFF315
:106940006F8FBFF34F8FFEE7306C716C31647064F2
:10695000F06D0130F065FFF7ABF8706D00248145F4
:106960002BD3DFF8A481306C006818B3306CC0689A
:10697000C7683D4655F8040F81451DD32846FFF7EB
:1069800019FDB86A18B107F11800FFF713FDF86A8E
:10699000B16C884288BFB06400EB8000294608EBE8
:1069A0008000FFF72EFDF86A716AC96A884228BF25
:1069B0000124D8E74FF0FF307065706A5249C06A11
:1069C00000EB800051F82000012888BF0124F06C02
:1069D000002818BF01242046BDE8F88308000020E5
:1069E00060B170B500F1180504462846FFF7E2FCD7
:1069F000564EB06B58B143484C3014E04FF0500045
:106A000080F31188BFF36F8FBFF34F8FFEE7251D13
:106A10002846FFF7CFFCE06AB16C88423A4988BF4C
:106A2000B064FDF7BBFD2946FFF7EBFCE06A716A35
:106A3000C96A884292BF00200120F06470BD00BF87
:106A40002DE9F843414DA86B60B1FFF7E7FCA86B57
:106A50000138A863A86B70B10024FFF7FBFC204647
:106A6000BDE8F8834FF0500080F31188BFF36F8FBB
:106A7000BFF34F8FFEE7286B0028EDD0214FDFF8E2
:106A8000888000264FF00109F86CE8B1B86DC6683F
:106A900006F11800FFF78EFC341D2046FFF78AFC34
:106AA000F06AA96C884288BFA86400EB8000214688
:106AB00008EB8000FFF7A5FCF06A696AC96A8842A2
:106AC00028BFC5F84C90DFE70EB1FEF7F1FFAC6DC3
:106AD00044B10126FFF71CFF00B1EE64013CF9D17F
:106AE0000020A865E86C0028B6D008484FF0805117
:106AF00001240160BFF34F8FBFF36F8FADE700BF7D
:106B00000800002084000020A804002004ED00E01C
:106B100090B11FB50D4C03460022206E48B1029380
:106B2000CDE90021616B01B1A16B6946FFF75EFD04
:106B30000246104604B010BD4FF0500080F311889B
:106B4000BFF36F8FBFF34F8FFEE700BF0800002039
:106B500002E008C8121F08C1002AFAD17047704726
:106B6000002001E001C1121F002AFBD17047000084
:106B700000000000000001020304060708090000ED
:106B80000F000000A86B00080000002008000000B3
:106B9000506B0008B06B000808000020801E000049
:106BA000606B0008A9DBFFFFAAAAAAAA00127A005C
:04000005080040CDE2
:00000001FF
