:020000040800F2
:1040000080160020E5400008074700086D460008BC
:104010000547000869460008E54800080000000060
:10402000000000000000000000000000F147000850
:104030006B460008000000007147000809410008B5
:10404000FF400008FF400008FF400008FF40000854
:10405000FF400008FF400008FF400008FF40000844
:1040600000000000FF400008FF400008FF4000087B
:10407000FF400008FF400008FF400008000000006B
:10408000FF400008FF40000800000000FF4000085B
:10409000FF400008FF400008FF400008FF40000804
:1040A000FF400008FF400008FF400008A14800084A
:1040B000FF400008000000000000000000000000B9
:1040C000FF40000800000000FF400008DFF810D0AB
:1040D00000F09CF800F052F900480047114E00082B
:1040E000801600200648804706480047FEE7FEE7A6
:1040F000FEE7FEE7FEE7FEE7FEE7FEE7FEE7FEE798
:104100004D480008CD40000830B410B50448804741
:1041100030BCAE4630BC0348004770478546704708
:10412000B1580008154800082DE9FE4F81EA030444
:1041300004F0004421F0004100944FF0000B23F004
:10414000004350EA01045ED052EA03045BD0C3F39B
:104150000A54C1F30A552C44A4F2F3340194A0FB91
:104160000254C1F3130141F48011C3F3130343F468
:10417000801301FB024400FB034E840A970A44EAC1
:10418000815447EA8357A4FB076802958D0A05FB13
:1041900007854FEA932C04FB0C542705029D4FEA38
:1041A000065847EA1637B5EB08056EEB070C870E85
:1041B000920E47EA811742EA8312A7FB0201B6EB8F
:1041C0000B0164EB00042B0D43EA0C335E1844EB47
:1041D0001C50DA465146E7FB0201C5F313044FEACF
:1041E0000B3343EA14534FEA0432019C43EA0603BB
:1041F000A4F10C040294009CCDE900B400F04CF84A
:1042000003B0BDE8F08F00200146F9E71CB509486E
:104210000090094801900546009C06E0E06840F0E7
:10422000010394E8070098471034AC42F6D3FFF737
:1042300051FF0000E06C0008006D0008202A04DB3C
:10424000203A00FA02F1002070479140C2F12003A9
:1042500020FA03F3194390407047202A04DB203AE8
:1042600021FA02F00021704721FA02F3D040C2F196
:104270002002914008431946704710B5141E73F18F
:10428000000408DA401C41F1000192185B411A4316
:1042900001D120F0010010BD2DE9F04D92469B4662
:1042A00011B1B1FA81F202E0B0FA80F22032904608
:1042B000FFF7C4FF04460F4640EA0A0041EA0B013B
:1042C00053465A46084313D0114653EA010019D009
:1042D000C8F140025046FFF7C0FF05460E46504663
:1042E00059464246FFF7AAFF084305D0012004E0E3
:1042F00020463946BDE8F08D0020054346EAE076C9
:104300002C4337430A986305E40AA0EB0800002217
:10431000FD0A44EA47540A3002D500200146E9E785
:10432000010510196941DDE9084500196941BDE839
:10433000F04DA2E740EA01039B0703D009E008C95A
:10434000121F08C0042AFAD203E011F8013B00F85A
:10435000013B521EF9D27047D2B201E000F8012BA6
:10436000491EFBD270470022F6E710B513460A46F5
:1043700004461946FFF7F0FF204610BD7CB50748FC
:104380000090074801900546009C04E02046016823
:1043900008448047241DAC42F8D17CBD006D000864
:1043A000046D0008F0B480EA0102D40F4200B2EBC1
:1043B000410F02D20246084611464A0042D0C30DC0
:1043C000DDB2C1F3C752AD1A202D35DAC1F31601A3
:1043D00041F4000204B15242C5F1200602FA06F18E
:1043E0002A411044B3EBD05F23D0C4B1012DA0EB20
:1043F000C35009DCF0BC4FF0004202EAC352DBB20A
:1044000000F5000000F002B9400000F1807000EB00
:10441000C350A0F1807040EAD170490009E049081A
:1044200041EAC071A0EBC35000F50000400800EB6A
:10443000C350F0BC00F0E1B86142012202EB41013F
:10444000001BF6E7F0BC704781F00041AAE780F05E
:104450000040A7E780EA010210B502F000434000E7
:1044600022D04A001FD0010E01EB1261C0F35600AA
:10447000C2F3560240F4000042F40002A0FB022006
:1044800000047F39140400D0401C50EA124001D4CB
:104490004000491EC2B20C0604EBD010401C40087C
:1044A000802A02D003E0002010BD20F00100002986
:1044B00000DA0020184310BD30B480EA010202F097
:1044C000004530F0004221F0004013D090B1C30D00
:1044D000D40DC2F31601C0F31600E41A41F4000132
:1044E00040F400027D34914201D3641C00E0490095
:1044F000002C02DA30BC002070474FF4000000238B
:10450000914201D3891A034340084FEA4101F7D190
:1045100051B1914202D14FF0004105E002D24FF07B
:10452000010101E06FF0010103EBC450284430BCED
:1045300000F063B8C10F80EAE0700844CA07962310
:10454000002100F063B896230022114600F05EB807
:104550000EB540F2334102910021CDE900110A4627
:104560000B46FFF799FE03B000BD00F0004220F0BB
:104570000040C10DC0F3160040F400007F2901DAAD
:1045800000207047962903DCC1F19601C84001E084
:1045900096398840002AF4D04042704700F000422B
:1045A00030F000400AD0C10D01F56071C0F3160073
:1045B00042EA0151C20840071143704700200146FA
:1045C000704701F0004330B421F0004150EA01028D
:1045D00006D00A0DA2F56072C1F31301002A02DCB5
:1045E00030BC00207047440F44EAC104C100E01809
:1045F00030BC00EBC250AFF300800029A8BF704769
:10460000401C490008BF20F00100704710B4B0FA08
:1046100080FC00FA0CF050EA010404BF10BC7047A3
:1046200049B1CCF1200421FA04F411FA0CF118BFBD
:10463000012121430843A3EB0C01CB1D4FEA00618C
:104640004FEA102042BF002010BC704700EBC3505F
:1046500010440029A4BF10BC7047401C490008BF8B
:1046600020F0010010BC7047FEE77047FEE7000035
:10467000F8B5044600F052FB204E80208025B0475C
:104680001F4FB8472046B047B84700F047FB81208E
:10469000B047B84700F002FB0A4E40270446376097
:1046A00000F094F8356000F0CBFA46F8107C00F08A
:1046B000C7FA376000F0F2FA40EA042400F03EFB4B
:1046C0002046F8BD281400482DE9F04190460D46DB
:1046D000064600F023FB094F8020B847084CA0474E
:1046E0003046B847A0472846B847A0474046B84795
:1046F000A047BDE8F04100F021BB00BFD94C000845
:10470000654D0008FEE77047ADF80E908DF8097012
:10471000CDF80A5001F08ABD8846496858F8080B60
:10472000CDF8A480FFF74DBF2946ADF815400490A1
:104730004FF090403047059504904FF0904000F0C6
:1047400043BAC06802F0FCB9204601F08FBC2A6869
:10475000C2F30222D31E82F00702704700EB8000F2
:1047600001EB80007047014620464A4600F07CB9C4
:10477000EFF30980BFF36F8F0D4B1A6820E9F00F3C
:1047800010602DE908404FF0500080F3118801F0CF
:10479000B1FF4FF0000080F31188BDE808401968B0
:1047A0000868B0E8F00F80F30988BFF36F8F704797
:1047B00024000020E0B58020694600900248019066
:1047C0007E4800F001FA8CBD01000002E0B58020B7
:1047D0006946009002480190784800F0F5F98CBDD8
:1047E00001000102000000000000000000000000C5
:1047F000074B19680868B0E8F00F80F30988BFF329
:104800006F8F4FF0000080F311884EF00D0E70474F
:10481000240000206B48C16AA1B180B5006B4FF045
:10482000500080F31188BFF36F8FBFF34F8F02F0FA
:104830001FF918B104484FF080510160002080F347
:10484000118880BD704700BF04ED00E01148016889
:1048500041F00101016001688907FCD5416821F040
:1048600003014160416811F00C0FFBD101680A4A55
:10487000114001600021416041F61071C1624FF4A6
:10488000801101634FF41F01816004484FF0006103
:104890000160704700100240FFFFF2FE08ED00E0EB
:1048A0000E48C168890618D50168890615D50C49D6
:1048B0000A78406880B280F05A0380F0A500134364
:1048C00082F0010240EA0200B0FA80F04FEA501094
:1048D0004FEA400008BF01200870704700380140CF
:1048E00050010020FEE700000648BFF34F8F064A44
:1048F000016801F4E06111430160BFF34F8F00BF15
:10490000FDE700BF0CED00E00400FA0500F03EBF3B
:1049100082B02848294C6D464026016841F4800148
:104920000160016841F48001016023482946009636
:104930000190204600F048F980272046294600973C
:1049400000F042F9002043212722A661A76100243C
:10495000FFF7BAFE05200321FA22FFF7B5FE184E35
:10496000CD4F1A4DC6E90344C6E90544164C3878C4
:1049700001280FD0C8B90420FFF77AFEFFF7E8FD41
:1049800000222B46FFF7D0FBFFF71BFE7061387843
:10499000013009E00220FFF76BFEFFF7D4FD21464E
:1049A000FFF758FDF06000203870322001F06AFEF9
:1049B000DDE700BF141002400001010100140048AF
:1049C00084000020080000200AD7A33A0000E03F3E
:1049D00008480168C9071CBF0020704701684907E3
:1049E00044BF012070470068C0064FF0020058BF66
:1049F000032070470C200240B0B50446FFF7E8FFE3
:104A00000025013C45F1000118B911B1FFF7E0FFA5
:104A1000F7E7B0BD10B5134C206840F002002060ED
:104A2000F5486060206840F0400020604FF0804012
:104A3000FFF7E2FF206820F00200206010BD00BFF9
:104A400010B5084CF049206840F001002060EA48A9
:104A500001604FF48010FFF7CFFF206820F00100C5
:104A6000206010BD102002402DE9FF41804608461D
:104A700015460F46FFF779FD0446FFF75BFD01463B
:104A80003846FFF7E1FC002C48BF80F0004005D01D
:104A9000B4F1FF3F26DD4FF0000C29E03021012466
:104AA00088F80010012D18DB2E211F4E08F8041085
:104AB000013495B13146FFF7CDFC0746FFF755FDB0
:104AC00000F1300108F80410FFF734FD01463846C4
:104AD000FFF7BAFC0134013DEBE7002008F80400C1
:104AE000BDE8FF812D2164424FF0010C88F80010D1
:104AF00000230A22F62701A9002C09DDB4FBF2F6F7
:104B000006FB074444F03004CC5401333446F3E749
:104B10000CEB030408EB0C02013B5E1CC2D0CE5C24
:104B200002F8016BF8E700BF000020412DE9F047D3
:104B3000DFF8F49EEFF3108872B6002000214FF0EA
:104B4000000ABAF1000F18BFBDE8F08700F09CFE24
:104B5000044699F858000D4600B300F0BDFE50B170
:104B600000F092FE04460D4600F09CFE00196941DB
:104B7000441C41F10005D9E910010AF1040A0019A9
:104B80006941D9E91223821A71EB0302ACBFC9E96A
:104B90001201D9E9120188F31088D2E7EFF31087E8
:104BA00072B60026002EE6D100F096FE38B100F075
:104BB00065FE00F07DFE00F067FE04460D4687F3BB
:104BC0001088043EEEE700BF2DE9F0410E884FF05B
:104BD00000084FF0030C4FF0010EB5B26DB3F607AD
:104BE00027D01FFA88F704687E000CFA06F39C436E
:104BF00004608C790268B440224302600EFA07F226
:104C0000446824EA020242600A794468BA402243B6
:104C1000426082689A438260CA798468B2402243C3
:104C20008260C2689A43C2604A79C368B2401A433C
:104C3000C26008F101086E08CFE7BDE8F08100000E
:104C400070B5144C94F85900216D28B14FF4003020
:104C5000B0FBF1F1002001E0C817C9130E4A9369B7
:104C60005B2BACBF92695A22D317551A834110DAD5
:104C70008D1A60EBE276FFF759FF2D184E41FFF7D2
:104C800055FF401B71EB060003DA94F85900206DC4
:104C9000F5E770BDF000002008000020F8B5FFF730
:104CA00089FD0C4C8020002508264027A060300696
:104CB0000CD0A761FFF7C4FFA7606D00FFF7C0FF2E
:104CC0002068013EC0B245EAD015F0E74020A0615F
:104CD000E8B2F8BD101400482DE9F0410446FFF792
:104CE00075FD324D082640274FF0800830062F61B1
:104CF0000FD060B2B0F1FF3F2846C8BF1030C0F8F7
:104D00000080FFF79DFF2F606400013EFFF798FFD2
:104D1000ECE780202860BDE8F08100BFF8B5FFF720
:104D200055FD0F4CA047214D802640272E602F6057
:104D3000A0472E61A0472F61F8BD00BFF8B5FFF76F
:104D400045FD074F194C4025802625612661B8474F
:104D50002560B84726603846BDE8F840004700BFE8
:104D6000414C0008B0B5FFF725FD104C40202061F4
:104D700080202060FFF764FF3225280607D054F812
:104D8000080C00060CD5FFF75BFF013DF5E7402559
:104D90002560FFF755FF2561BDE8B040FFF750BF24
:104DA00040252560FFF74CFF2561B0BD1814004871
:104DB00011481549114C124D124E0068884207D116
:104DC00025602660FFF726FEE06840F08000E06086
:104DD0000E4F3878022803D00A2001F053FCF8E780
:104DE00025602660FFF716FEFFF72AFEE06840F018
:104DF0008000E06000F0C8FC003800080420024099
:104E000023016745AB89EFCD384B54415001002059
:104E100086B0604D6048614F45F8040C57F8040CAB
:104E200040F0010047F8040C57F8040C8007FBD54C
:104E3000386820F003003860386810F00C0FFBD1A0
:104E400057F8040C5649084040F2531147F8040C37
:104E50000020386041F61070B8624FF48010F8629C
:104E60004FF41F0078604F480160386A40F001003D
:104E70003862386A8007FCD557F8040C40F001000E
:104E800047F8040C57F8040C8007FBD538680D214F
:104E900020F480303860F86A40F00070F8623868BA
:104EA00061F3954001213860386861F35E703860C5
:104EB000B86A20F0E060B86257F8040C40F08070E7
:104EC00047F8040C57F8040C8001FBD5386804211E
:104ED00020F0F0003860386820F46050386038689E
:104EE00061F30A2002213860386D40F030003865E7
:104EF000386861F30100386000BF00BF00BF00BF29
:104F000000BF00BF00BF00BF00BF00BF00BF00BFA9
:104F100000BF00BF00BF00BF00BF00BF00BF00BF99
:104F2000386800F00C000828FAD1386D1E4E20F0C9
:104F3000300038653868C0F3810002280CD00028A2
:104F400030464BD1386D8005304647D5F86A800130
:104F500054BF3046154841E03868B96A000C002952
:104F600028D439683A68C2F34172C1F3834112B957
:104F70000F2940F0B283120101321144C00705D05D
:104F80003868800302D401FB06F027E00848484354
:104F900024E000BF0CED00E00040000804100240D7
:104FA000FFFFF2FE0020024000127A00006CDC02DB
:104FB00000093D00B96ABA6ABB6AC007CF48C1F3AD
:104FC0000311C2F3082203F0070303D03C68A403D3
:104FD00058BF304699405043B0FBF1F0DFF8082746
:104FE000DFF8089700244FF0010ADFF808675060E7
:104FF0003968C1F3031119F80110C8404FF6FF01D9
:105000005060386940F001003861386940F4003080
:105010003861386940F480203861386940F40020F4
:105020003861386940F480003861786940F00100E7
:105030007861786940F400707861786940F4804064
:105040007861B86940F00200B86128680840AC494E
:1050500008434FF0FF31286028682C7328686C7370
:105060002868AC732868EC7428682C752868C0F32D
:105070000220C21E80F0070338BF22460420042B02
:1050800028BF034601FA03F3DB4303FA02F21201DD
:10509000AA75FFF75CFB38BF2346042A28BF0246E7
:1050A00001FA02F2D2439A401201EA75FFF74FFB70
:1050B00038BF2346042A38BF104601FA00F0052104
:1050C00021EA00008F499840000108708E494FF096
:1050D0000060C1F8F0004FF001200590CDF810A05D
:1050E00004AD4FF090402946B0474FF40040FFF721
:1050F0001BFB8648C02101608548CDE90410854826
:1051000029468046B0474FF460404FF4407429462A
:105110000490A8F54060ADF81540B047032029463B
:10512000ADF8154004904046B04741F6FC10FFF73B
:10513000FBFAADF81540784C4FF6CF702946049035
:105140002046B047754802250495059004A94FF004
:105150009040B047B86840F40070B860B86820F478
:105160000070B860386865F38F303860386820F0B8
:10517000805038606A4850F8041C21F4807140F86F
:10518000041C016821F002010160016821F4006142
:105190000160416A21F470014162816821F03801A7
:1051A0008160C16A6AF30401C162016841F460214F
:1051B0000160016841F48011016050F8041C21F481
:1051C000006140F8041C016841F0010101600168C0
:1051D00041F00801016001680907FCD4016841F051
:1051E0000401016001684907FCD44E484BF6EF7397
:1051F0004D4E4E4D0DF1100B016821F00101016083
:105200000021016041608160C16050F8042C42F0CF
:105210000F0240F8042C02681A400260026842F44F
:1052200080420260026822F440520260026822F466
:1052300040620260026822F440720260026842F03A
:1052400080020260026842F040020260026822F0BE
:105250002002026041608160C16041608160C16084
:10526000016841F0010101605946A05920F0F000A9
:10527000A051A05940F01000A0514FF40070FFF76A
:105280005AFAA0595946A046AA4620F47060A05187
:10529000A05940F48070A0514FF48060FFF74BFAA2
:1052A0003868C0F3810002280AD0214E002857D167
:1052B000386D800554D5F86A800148BF1D4E4FE017
:1052C0003868B96A1A4E000C002935D439683A6832
:1052D000C2F34172C1F3834112B90F2940F0FF813B
:1052E000120101321144C00704D03868800301D490
:1052F0004E4335E0014801FB00F631E000093D0076
:105300000003FA051BE400E010E000E01814004878
:1053100000000101001400480004004800000301DF
:10532000082401400800024024FCFFFF00000202A4
:1053300000127A00006CDC02B96ABA6ABB6AC00764
:10534000E048C1F30311C2F3082203F0070303D0BE
:105350003D68AD0358BF304699405043B0FBF1F66D
:10536000386839684FF6FF7339683A683A68C0F3AD
:105370000310E1A219F80000C1F3C221515CE04A18
:1053800026FA00F0C8404FF4E13100EB8000400005
:10539000B0FBF2F2B0FBF1F102EB8200A1EB4000B6
:1053A0000428D84888BF013250F8041C994311449E
:1053B00040F8041C016821F480510160416821F427
:1053C00040514160016841F008010160016841F00D
:1053D00004010160016821F400710160016821F499
:1053E00080610160816821F480718160816821F4AD
:1053F00000718160016841F020010160016841F4A1
:1054000000510160D8F8200020F47020C8F8200076
:10541000D8F8200040F48030C8F820001020CDE9F2
:10542000040A04AD40462946FFF7CEFBD8F8200019
:10543000294620F47000C8F82000D8F8200040F475
:105440008010C8F820002020CDE9040A4046FFF76C
:10545000BBFBAD4E0DF109044FF0010906270025F5
:105460002146306820F070003060306820F44070D1
:105470003060306820F08000306040F2CF70F06221
:1054800040F2AF40B062706940F001007061B068F6
:1054900020F08000B060706820F070007060002024
:1054A000FFF732F9B069214620F00800B06175635A
:1054B000B06920F00400B0610220FFF725F9B0695F
:1054C00020F40060B061B06920F48060B061B56321
:1054D000306840F00100306000F058F901F064F8E5
:1054E000502000F0F5FD044680B104F15002012087
:1054F0000021012384F84650009400F0D7FA20469A
:1055000000212560C4E9025501F020F97F4D804853
:1055100080A102226C61834C05F10803A0478248F8
:1055200005F10C0381A10022A047814805F1100379
:1055300080A10122A04701F053F8824884A1802273
:105540000023019080480090804801F05CFA002818
:10555000A86400F0AB8001F027F8A86D002844D0C3
:1055600001F03EF8A86DB8B3814884A14FF4807271
:10557000022301907F4800907F4801F044FAE865DB
:1055800050B34FF0500080F31188BFF36F8FBFF31B
:105590004F8F574B53494FF0FF30E86401208B4643
:1055A000E8620020686393F8F0030490FF2083F81A
:1055B000F00393F8F0038DF809009DF80900072027
:1055C0009DF90910B1F1FF3F4BDC9DF8091001383E
:1055D00049008DF80910F3E74FF0500080F311886F
:1055E000BFF36F8FBFF34F8FFEE75B48002102468A
:1055F00042F8141F40F8281F4FF0FF31C5E918206A
:10560000024642F80C1D40E9022240F8102C0246E6
:1056100042F8081FC0E90322426050200490049819
:10562000502846D14D4C01204D4A1021002384F8CA
:105630004600049800940A2000F038FA49486FF0B8
:105640003F01AC6500293FF48BAF01F10802014432
:10565000096C00291146F5D1104443A1C0E90E148C
:105660007EE7032830D104981F4C4FF47A7283F8F8
:10567000F003DBF8140040F47000CBF81400DBF802
:10568000140040F07040CBF81400002018609860BF
:105690006168B1FBF2F101395960206007201860A0
:1056A00000F0C8FA01F026F800F026FB3548006843
:1056B000FEE74FF0500080F31188BFF36F8FBFF308
:1056C0004F8FFEE700093D004FF0500080F3118836
:1056D000BFF36F8FBFF34F8FFEE702224DE402222C
:1056E00000E600BF0CED00E000000020CA6C0008DE
:1056F00010E000E0C94B00080000000001020304B4
:10570000009411000C380140000400400800002003
:1057100011490008636865636B5F63757272656E3B
:1057200074000000B5690008B14D0008696170009F
:10573000E161000873656E645F686561727462653B
:105740006174000054030020540100202D5A000809
:1057500049444C4500000000F000002050040020A7
:10576000B00300203C120020546D72510000000074
:10577000E0090020E0050020295D0008546D72203A
:1057800053766300DC6C0008FFF7AEF82DE9F84FA4
:10579000DFF89482EFF3108472B6012088F8580085
:1057A00000F06CF884F3108800F07CF800F074F8D6
:1057B000044630484FF0000984424FF0000038BFE3
:1057C000012088F859002046FEF7BDFE2A4E054606
:1057D0003146FEF771FE074630462946FEF76CFE5D
:1057E00098F8591000294FF08F4108BF3846FEF74E
:1057F00031FE4FF07C51FEF7D5FDFEF7B6FEC8F83E
:1058000050004FF47A70A64E4FF0000BB4FBF0F04E
:10581000C8F85400EFF3108A72B6BBF1000F22D122
:105820000BF1040BC6F818900127FFF77FF9044627
:105830000D46F80714D0BFF34F8FBFF36F8F00BF33
:10584000BFF34F8FBFF36F8FFFF770F9B269121973
:1058500045F10003841A61EB0305B4610027E8E712
:105860008AF31088D9E70020C8E91000C8E91200BF
:10587000BDE8F88F40420F00002474498A484FF079
:1058800000710160704700BF08480022016840684D
:10589000081A62F10001704701484068704700BF74
:1058A00000000020014800210068704714E000E07B
:1058B000B0B5FFF7F7FF5C4BEFF3108272B6D3E998
:1058C000104500196941013041F10001C3E910019F
:1058D00082F31088B0BD00BF73480068C0F38060D9
:1058E000704700BFF8B5E14E04460D46776BF0698E
:1058F000043000F025FE601C08D13DB1B848F169C4
:1059000030300431BDE8F84000F041BEF069E419E0
:10591000446006D3F06BF1690431BDE8F84000F053
:105920001FBEB06BF169043100F01AFEF06C8442C6
:1059300038BFF464F8BD00BFF8B5044600F034FE8B
:10594000EC4DA86A0130A862E86948B1E86A00280D
:1059500049D1E06AE969C96A814298BFEC6142E0D5
:10596000EC61A86A01283ED14E4900204FF0FF3279
:105970000023B3F5A07F09D0CE18C85014333746A2
:1059800047F8082FC6E903777760F2E79448264B7B
:1059900000214FF0FF360246074642F8581F1960B3
:1059A000416447F8606FC0E91977C7651F4647F83B
:1059B000086FC3E903775F60074647F84C6FC0E99B
:1059C00014778764074647F8246FC0E90A770762AF
:1059D000C16140F8386F40F8081CAA63EB63C0E966
:1059E000010040F8040C286A013060642862E06A13
:1059F000296C88422B4988BF2864FEF7AFFE211D21
:105A000000F0C5FD00F0ECFDE86A60B1E06AE9690C
:105A1000C96A814207D224484FF080510160BFF328
:105A20004F8FBFF36F8FF8BDF00000201E48B14DBF
:105A30001C4E6B4F4FF080588146686AE0B100F011
:105A4000B3FDB86AC468201D00F07AFDA86A013869
:105A5000A862686A0138686200F0C2FD94F85900D3
:105A60000228EAD0012803D088B9206B00F0CEFDCF
:105A7000204600F0CBFDE0E730680228DDD3C9F80E
:105A800000804846BFF34F8FBFF36F8FD5E74FF0CD
:105A9000500080F31188BFF36F8FBFF34F8FFEE785
:105AA00008000020A004002004ED00E0F8B5069DE9
:105AB0001C460029C5E90F0108BF2A462A6000F0EC
:105AC00073FD0020FF214FF0FF362F46A86385F8B5
:105AD000441085F84510286147F8186F2968D5E902
:105AE0000F23C5E907776F612F4647F82C6F03FB3B
:105AF0000216013A6960C5E90C77AF6202FB031137
:105B0000AE60E960686200F06BFD85F84C40F8BD5E
:105B10002DE9F041079C80460E4617469100A522CC
:105B20001D46206BFEF718FC206B002304F13402A5
:105B300000EB8700043820F00701069856B1102BBF
:105B400004D0F75CD7540133002FF8D1002284F839
:105B5000432000E01370002284F858200F2D28BF46
:105B60000F25C5F11003C4E91352C4E90A25626583
:105B700064622461C4E90523A1F1400341F8202CAB
:105B8000064A28F0010523604FF0807341E90325A0
:105B900041F8043C00B10460BDE8F081F95C000804
:105BA000B0B50F490A1D114612688242FBD34C68FA
:105BB00043680D19854202D1234408464B60C4183E
:105BC000944207D14B4CE46EA24203D0D2E90024A8
:105BD000234443600260814218BF0860B0BD00BF2B
:105BE0008400002010B50C460146006141F8044FC6
:105BF000944206D93F4860309A4208D29C4206D36C
:105C00000AE08069D21A824206D23A4864300068BB
:105C100000F0A6FC002010BD012010BD10B5044608
:105C200000F0C2FCA06BB0FA80F0440900F0D8FC90
:105C3000204610BD06480068006880F3088862B6F8
:105C400061B6BFF34F8FBFF36F8F00DF00BF00005F
:105C500008ED00E02748816B096819B1816BC968BC
:105C6000096801E04FF0FF31C1647047080000206F
:105C70002DE9F843FB4D8046D5F83490A86E814558
:105C80002AD2286E016849B3C068C6680468371D07
:105C9000384600F055FC316A3046884796F82800AF
:105CA0004007EED5B0692044A04206D93661706045
:105CB0003946286E00F054FCE3E73046214600F0F8
:105CC000D5FF0028DDD14FF0500080F31188BFF3DD
:105CD0006F8FBFF34F8FFEE7002003E0696EC5E9C9
:105CE00018100120C8F800004846C5F86890BDE8C3
:105CF000F88300BF0800002081B000200090094810
:105D000000684FF0500181F31188BFF36F8FBFF32C
:105D10004F8F013000D0FEE700980028FCD001B082
:105D2000704700BF0000002088B0DFF87C9FDFF8DC
:105D300038A30DF1140807AED9F86000046814B157
:105D4000C068056800E00025D9F830000130C9F8C6
:105D5000300001A8FFF78CFF0746019810B100F052
:105D60001FFF65E024B1BD423ED94FF0000B06E0B5
:105D7000D9F864000068B0FA80F04FEA501BD9F8F7
:105D8000584000F011FC9AF84400FF2804BF00209E
:105D90008AF844009AF84500FF2804BF00208AF8DA
:105DA000450000F01DFCDAF8380078B9D9F81C106D
:105DB00004F12400183100F0EAFB4FF0FF3059469F
:105DC000BBF1000F08BFE81BFFF78CFDFEF7BCFC22
:105DD00000F0E6FE60BBA2484FF080510160BFF3C7
:105DE0004F8FBFF36F8F23E000F0DAFED9F8600029
:105DF000C068C468201D00F0A3FB94F82800410788
:105E000004D400F0FA0084F828000EE0A0693A46B5
:105E10002B4641192046FFF7E5FE30B120462946C2
:105E200000F024FF002800F01181216A20468847F5
:105E3000D9F8587000200790002F00F0EC80D9F8B6
:105E40002C0008B1D9F8300007F124044FF0010B01
:105E500000F0AAFBDAF83850002D58D10798002836
:105E600078D05FEACB7005D0D9F854000590D9F806
:105E70003400069000F0B4FBD9F830000130C9F8C6
:105E8000300000F091FB9AF84400FF2804BF002086
:105E90008AF844009AF84500FF2804BF00208AF8D9
:105EA000450000F09DFB4046314600F049FD60B1E1
:105EB000384600F0DBF800F073FE3846FFF7AEFE20
:105EC0004FF0000B0028C3D036E73846FFF7A6FE98
:105ED000A8B10799204600F0F5FB384600F0C6F857
:105EE00000F05EFE4FF0000B0028B1D15C484FF08F
:105EF00080510160BFF34F8FBFF36F8FA8E7384623
:105F000000F0B4F800F04CFE4FF0000BA0E7DAF818
:105F100040206AB1DAE902011144CAF80C1081424A
:105F200024BFDAF80010CAF80C1001A8FEF702FA34
:105F3000681ECAF83800DAF8100058B1F869FEF7A0
:105F400000FC38B146484FF080510160BFF34F8FDD
:105F5000BFF36F8F00F044FB002D3FF4EDAE019DC9
:105F6000039CB5F1FF3F33DD606910B1201D00F0E7
:105F7000E7FA6846FFF77CFE092D3FF659AF024667
:105F8000DFE805F00505053A2B4105053A2B94F8A5
:105F90002800029F40F001003B4684F82800A069D9
:105FA000C1192046FFF71EFE00283FF441AF216AC9
:105FB0002046884794F8280040077FF539AFA0694C
:105FC000C119204600F052FE00287FF431AF34E0C2
:105FD000029A0499204690472AE7029894F82810DC
:105FE00041F00101A06184F82810E8B18118204631
:105FF0001346FFF7F7FD1BE794F8280000F0FE00BA
:1060000084F8280014E794F828008107F6D4204685
:1060100000F0FCFA0CE74FF0500080F31188BFF35A
:106020006F8FBFF34F8FFEE74FF0500080F3118862
:10603000BFF36F8FBFF34F8FFEE74FF0500080F339
:106040001188BFF36F8FBFF34F8FFEE74FF0500003
:1060500080F31188BFF36F8FBFF34F8FFEE700BF50
:1060600004ED00E00800002050040020F8B50446CC
:1060700000F09AFA94F84560574D012770B2012854
:1060800008DB606A30B1206BFEF75BFB00B16F6428
:10609000013EF3E7FF2084F8450000F0A1FA00F08C
:1060A00083FA94F84460012770B2012808DB206964
:1060B00030B1E069FEF745FB00B16F64013EF3E7E4
:1060C000FF2084F84400BDE8F84000F089BA00BF22
:1060D000F8B5414D296B01312963E96E29B12A795F
:1060E000002A18BF4FF000421DE03C4B00224849F7
:1060F0005C0703F5006603F1070418BF24F00703EB
:10610000C1E9013226F00701A1F10804EC6641E97A
:106110000222E21AE96E5A60C5E91C2201221960C6
:106120002A714FF0004202420FD0002400F038FDE7
:10613000600704BF2046F8BD4FF0500080F311887F
:10614000BFF36F8FBFF34F8FFEE700F108034207E5
:1061500006D020F0070000F110029A42E5D900E0D5
:106160001A462B6F9A42E0D8294E56F8044F6068C1
:1061700037462646904202D23468002CF7D18E4230
:10618000D3D031683C683960811A112911D3B01815
:10619000430708D04FF0500080F31188BFF36F8F92
:1061A000BFF34F8FFEE741607260FFF7F9FC2B6F82
:1061B00070686A6F0834191A2967914238BF696795
:1061C0002979002918BF40F000400021C6E90010DD
:1061D000A86F0130A867A9E7080000203C0A00204A
:1061E0000B4E0CA40EA5F068FEF7D8F90246204627
:1061F0000B4600F081F87069FEF7D0F90246284698
:106200000B4600F079F80A2000F03CFAEBE700BFFB
:1062100084000020B5E7D1B925660D0A0000000012
:10622000B5E7C1F72025660D0A000000F0B54FF470
:1062300000724C788D7802FA00F32E4A166826EA2E
:106240000303136000F1090305FA03F315689BB219
:106250002B4313604FF480731568834025EA0303D2
:10626000136000F1080304FA03F314689BB223439C
:106270000228136005D068B90C78536964F30613DB
:1062800007E00B78546903F0070324F4E04444EA80
:106290000333536143000824D5690F79CE784FF05A
:1062A000010C9C4025EA0404032505EB400507FA90
:1062B00005F5ADB22C435D1C0CFA05F706FA05F5A1
:1062C000BC43ADB22C4304259D40D461AC430225B0
:1062D00005EB40004D79897901FA00F00CFA03F1E1
:1062E00080B22043884305FA03F189B20843D061A4
:1062F000F0BD00BF0404004083B02DE9F04FAAB008
:1063000033AC0DF1CC0800274FF0060987A50FF23A
:10631000082A0EC4CDF8A48009AE01AC017800298A
:1063200000F0E7807F2F80F0E48025292AD1834682
:1063300008F1040E1BF8013F782B58D0582B7DD064
:10634000632B71D0642B24D0662B08F1070C3DD051
:10635000732B2FD02E2B19D18178A1F13002092A6D
:1063600014D803304FF00009A1F13002092A00F2DD
:10637000838009EB890201EB4201A1F1300910F899
:10638000011BF1E7F1550137834654E0F35501371E
:1063900051E0CDF8A4E0AC46D8F80020B2F1FF3FC0
:1063A0007EDD002A4FF00A014FF0F60500F08480F0
:1063B000002090E0CDF8A4E0D8F800000278CAB33D
:1063C0007E2F37D8F25501370130F7E72CF007015F
:1063D000FEF7A2F9FEF7C7F9F0190021635C7A18FD
:1063E000002B67D07E2A65D843540131F6E7CDF8FB
:1063F000A4E047F630000023D8F80020F05302F064
:106400000F00285CE054581C102A03D31209072BF4
:106410000346F4D3023701280CDB2218013812F8A6
:10642000012CF2550137F6E7CDF8A4E0D8F80000CA
:10643000F0550137F0460BF101006FE7CDF8A4E00D
:1064400047F630000023D8F80020F05302F00F0088
:106450001AF80000E054581C102A03D31209072B25
:106460000346F3D302370128E4DB2218013812F87F
:10647000012CF2550137F6E7A0F1010B6629DAD1BC
:106480002CF00701FEF748F9FEF76DF9F01900212D
:10649000635C7A1863B17E2A0AD843540131F7E766
:1064A0002D2052420A21F625F0550137002012E036
:1064B0004FF006091746BEE7302000228DF8040091
:1064C000012008E0B2FBF1F303FB052242F03002A9
:1064D000225401301A46012A01DB0B28F2D365460B
:1064E0000128A7DB2218013812F8012CF2550137D8
:1064F000F6E708490020B84206DA325C4A600A68CA
:106500005206FCD50130F6E72AB0BDE8F04F03B0E3
:10651000704700BF003801403031323334353637F0
:10652000383941424344454600000000303132339F
:1065300034353637383961626364656600000000BF
:10654000D0E9013201699A6053604B68834208BF09
:106550004A600A68013A0A600022026108687047CE
:10656000B0B50C68621C07D000F1080213465268EF
:106570001568A542FAD901E003695A689160C1E93A
:10658000012308615960016801310160B0BD10B597
:106590000268436808619C6801324B608C606160EE
:1065A0000260996010BD00004FF0500080F3118828
:1065B000BFF36F8FBFF34F8F134801684A1C02600F
:1065C00001B17047DC4800680006FAD04FF0500077
:1065D00080F31188BFF36F8FBFF34F8FFEE700BFCB
:1065E0000948016819B10139016009D070474FF0BD
:1065F000500080F31188BFF36F8FBFF34F8FFEE71A
:10660000002080F31188704700000020B0B5B0B1C1
:10661000E74A50F8043C1479002C18BF4FF00044AE
:106620001C420DD0A0F108010D6895B14FF050004B
:1066300080F31188BFF36F8FBFF34F8FFEE7B0BDBC
:106640004FF0500080F31188BFF36F8FBFF34F8F6F
:10665000FEE7A34340F8043C136B0133136350F887
:10666000040C136F184410670846FFF799FA0448A2
:10667000016801310160BDE8B04000F091BA00BF8F
:106680008400002080B5CA490A6B42B14FF0500027
:1066900080F31188BFF36F8FBFF34F8FFEE70A6B54
:1066A00001320A630021FFF71DF900F079FA00B109
:1066B00080BDA1484FF080510160BFF34F8FBFF301
:1066C0006F8F80BD60B110B50C46B949C9691831EA
:1066D000FFF746FF20460121BDE81040FFF702B951
:1066E0004FF0500080F31188BFF36F8FBFF34F8FCF
:1066F000FEE700BF10B5AE48016B11B10121416446
:1067000010BD00218D4B4164016C01EB810203EB54
:10671000820213681BB979B1143A0139F9E7536859
:1067200002F108045B68A342536001D15B685360C7
:10673000DA68C261016410BD4FF0500080F3118827
:10674000BFF36F8FBFF34F8FFEE700BF2DE9F04F10
:1067500085B004460020002C04905FD0002966D04C
:10676000F64F0191F86A00B1386B04F1100A4FF04E
:10677000010B0DF108090DF11008FFF715FFA06BD3
:10678000E16B88425FD3049800286DD05FEACB703C
:1067900003D0786D0290786B0390FFF721FF386B80
:1067A00001303863FFF700FF94F84400FF2804BF6E
:1067B000002084F8440094F84500FF2804BF00201E
:1067C00084F84500FFF70CFF4846414600F0B8F852
:1067D00000284CD1FFF7E8FEA56BE66BFFF700FF42
:1067E000B54214D104995046FFF76CFFFDF7ACFF9A
:1067F00000F0D6F94FF0000B0028BED14E484FF004
:1068000080510160BFF34F8FBFF36F8FB5E7FDF786
:106810009BFF00F0C5F94FF0000BAEE74FF05000C2
:1068200080F31188BFF36F8FBFF34F8FFEE7206CAB
:10683000002895D04FF0500080F31188BFF36F8F80
:10684000BFF34F8FFEE7A66B226CB2B1606801996F
:10685000FDF770FDD4E90101226C104460608842AC
:1068600024BF206860600AE0FFF7BAFE03E0FDF78E
:106870006BFF00F095F900201FE0206800B30120B5
:10688000711CA163616A61B1206BFDF75AFF88B189
:10689000F5494FF080500860BFF34F8FBFF36F8F03
:1068A00008E038B9F0494FF080500860BFF34F8FCF
:1068B000BFF36F8FFFF794FE012005B0BDE8F08FA6
:1068C000A5685DB1F869A8420CD04FF0500080F384
:1068D0001188BFF36F8FBFF34F8FFEE701200021B8
:1068E000A160CDE7286DF0B1013828654FF00100B7
:1068F000F5D1E96AEA6C9142F1D005F1040840460D
:10690000FFF71EFEE86CC0F11001E862A961396C66
:106910008842D44988BF3864FDF720FF4146FFF71D
:1069200036FE0020DBE74FF0500080F31188BFF304
:106930006F8FBFF34F8FFEE704ED00E0A00400204F
:10694000F8B5D8B10C4611B30546FFF72DFED64871
:10695000426B21684B1C0FD0D5E90063476DB742ED
:1069600001D09A421CD2D21A914219D9891A2160B7
:10697000416D2960406B6860002414E04FF05000C6
:1069800080F31188BFF36F8FBFF34F8FFEE74FF097
:10699000500080F31188BFF36F8FBFF34F8FFEE776
:1069A000002020600124FFF71BFE2046F8BD00BF39
:1069B000080000202DE9FE4307464FF400701E46F4
:1069C00090468946FFF784FBB0B104465C20FFF790
:1069D0007FFB98B10546002049468022434685F852
:1069E000590038462C63CDE90065FFF791F8284639
:1069F000BDE8FE43FEF7A0BFBDE8FE832046BDE82C
:106A0000FE43FFF703BE7FB5089DB5B1099CECB10D
:106A10005C260296029E5C2E21D1029E25630226F0
:106A200084F8596003ADCDE90054FFF771F82046B2
:106A3000FEF782FF039804B070BD4FF0500080F362
:106A40001188BFF36F8FBFF34F8FFEE74FF05000F9
:106A500080F31188BFF36F8FBFF34F8FFEE74FF0C6
:106A6000500080F31188BFF36F8FBFF34F8FFEE7A5
:106A70002DE9F8438C4E306B20B1306D002401308D
:106A8000306558E0706B10F10109C6F8349014D3EA
:106A9000B06B006840B14FF0500080F31188BFF335
:106AA0006F8FBFF34F8FFEE7B06BF16BB163F06395
:106AB000706D01307065FFF7CDF8F06C00248145F2
:106AC0002BD3DFF8A081B06B006818B3B06BC0683F
:106AD000C7683D4655F8040F81451DD32846FFF78A
:106AE0002FFDB86A18B107F11800FFF729FDF86A01
:106AF000316C884288BF306400EB8000294608EB87
:106B00008000FFF744FDF86AF169C96A884228BF2E
:106B10000124D8E74FF0FF30F064F0695149C06AB2
:106B200000EB800051F82000012888BF0124706C20
:106B3000002818BF01242046BDE8F8830800002083
:106B400060B170B500F1180504462846FFF7F8FC5F
:106B5000554E306B58B14248443014E04FF050006D
:106B600080F31188BFF36F8FBFF34F8FFEE7251DB2
:106B70002846FFF7E5FCE06A316C8842394988BF56
:106B80003064FDF7EBFD2946FFF701FDE06AF1698E
:106B9000C96A884292BF00200120706470BD00BFA6
:106BA0002DE9F843404D286B60B1FFF7FDFC286BE1
:106BB00001382863286B70B10024FFF711FD2046CF
:106BC000BDE8F8834FF0500080F31188BFF36F8F5A
:106BD000BFF34F8FFEE7A86A0028EDD0204FDFF803
:106BE000848000264FF00109786CE8B1386DC668E2
:106BF00006F11800FFF7A4FC341D2046FFF7A0FCA7
:106C0000F06A296C884288BF286400EB8000214626
:106C100008EB8000FFF7BBFCF06AE969C96A8842AB
:106C200028BFC5F84490DFE70EB1FFF713F82C6DCD
:106C300044B10126FFF71CFF00B16E64013CF9D19D
:106C400000202865686C0028B6D007484FF08051B6
:106C500001240160BFF34F8FBFF36F8FADE700BF1B
:106C600084000020A004002004ED00E090B11FB5D6
:106C70000D4C03460022A06D48B10293CDE90021DE
:106C8000E16A01B1216B6946FFF760FD02461046DB
:106C900004B010BD4FF0500080F31188BFF36F8F28
:106CA000BFF34F8FFEE700BF0800002002E008C8D6
:106CB000121F08C1002AFAD170477047002001E076
:106CC00001C1121F002AFBD1704700000000000024
:106CD0000000010203040607080900000F0000007D
:106CE000086D00080000002008000000AC6C0008DF
:106CF000106D00080800002078160000BC6C000829
:106D00000DDCFFFF00000000AAAAAAAA00127A0068
:04000005080040CDE2
:00000001FF
