:020000040800F2
:10400000E8090020E54000087D500008BD4F000889
:104010007950000891490008B153000800000000E1
:104020000000000000000000000000004D510008EA
:1040300095490008000000004951000809410008A6
:10404000FF400008FF400008FF400008FF40000854
:10405000FF400008FF400008FF400008FF40000844
:1040600000000000FF400008FF400008FF4000087B
:10407000FF400008FF400008FF400008000000006B
:10408000FF400008FF40000800000000FF4000085B
:10409000FF400008FF400008FF400008FF40000804
:1040A000FF400008FF400008FF40000809530008D7
:1040B000FF400008000000000000000000000000B9
:1040C000FF40000800000000FF400008DFF810D0AB
:1040D00000F028FA00F01CFB00480047C962000805
:1040E000E80900200648804706480047FEE7FEE74B
:1040F000FEE7FEE7FEE7FEE7FEE7FEE7FEE7FEE798
:1041000061520008CD40000830B410B50348804724
:1041100030BCAE4630BC024800477047A964000876
:104120004D52000830B50B460146002020220124E4
:1041300009E021FA02F59D4205D303FA02F5491B75
:1041400004FA02F52844151EA2F10102F1DC30BD8B
:104150002DE9F05F0546002092469B4688460646BC
:10416000814640241BE0284641464746224600F04F
:10417000FAF953465A46C01A914110D311461846CF
:10418000224600F0E1F92D1A67EB01084F4622465E
:104190000120002100F0D8F917EB00094E41201E44
:1041A000A4F10104DFDC484631462A464346BDE817
:1041B000F09F2DE9FE4F804681EA0300C00F0C46B8
:1041C000009021F0004123F00045B8EB0200A94126
:1041D00005D24046214690461C460B46024623F037
:1041E0000040104347D0270DC7F30A00C3F30A511C
:1041F0000290401A019040286BDAC3F3130040F498
:10420000801B0098924620B10023D2EB030A63EB97
:104210000B0B01985946C0F14002504600F094F94A
:1042200006460D4650465946019A00F0ACF910EB8F
:1042300008006141002487EA115284EAE7731A43B7
:1042400040D0009A62B3019A012A4FEA075215DC66
:10425000001B61EB02014FF0004202EA0752CDE978
:104260000042001C41F5801132462B4600F0ACF9AB
:1042700003B0BDE8F08F40462146F9E7001B61EB33
:104280000201001C41F5801300185B412018A2F5C3
:10429000001747EB030140EAD570B6196D4111E0F4
:1042A0006D084FEA360645EAC0754FEA0752001B13
:1042B00061EB0201001C41F5801149084FEA300012
:1042C0000019514132462B4603B0BDE8F04F00F0D3
:1042D0006CB90098012240000023D0EB020263EB8E
:1042E000E073009821464FEAE074B8EB000061EB00
:1042F0000401E9E783F000435BE781F0004158E700
:104300002DE9FE4F81EA030404F0004421F000414E
:1043100000944FF0000B23F0004350EA01045ED0FC
:1043200052EA03045BD0C3F30A54C1F30A552C4488
:10433000A4F2F3340194A0FB0254C1F3130141F43D
:104340008011C3F3130343F4801301FB024400FB09
:10435000034E840A970A44EA815447EA8357A4FB30
:10436000076802958D0A05FB07854FEA932C04FB2D
:104370000C542705029D4FEA065847EA1637B5EB5D
:1043800008056EEB070C870E920E47EA811742EA8A
:104390008312A7FB0201B6EB0B0164EB00042B0DAB
:1043A00043EA0C335E1844EB1C50DA465146E7FBF7
:1043B0000201C5F313044FEA0B3343EA14534FEAE7
:1043C0000432019C43EA0603A4F10C040294009C0D
:1043D000CDE900B400F0F8F803B0BDE8F08F00209C
:1043E0000146F9E72DE9F04D81EA030404F0004BA2
:1043F00021F0004514464FF0000A23F0004150EA36
:10440000050220D054EA01021DD0C5F30A57024626
:10441000C5F31303C1F31300C1F30A5640F480152A
:1044200043F48013A7EB0608101BD64608F2FD38AC
:1044300073EB050002D308F1010801E092185B411B
:10444000B8F1000F03DA00200146BDE8F08D00202E
:104450004FF48011064684460EE0171B73EB0507E8
:1044600005D3121B63EB050306434CEA010C490814
:104470004FEA300092185B4150EA0107EDD152EA51
:10448000030012D082EA040083EA0501084305D044
:10449000101BAB4106D20122002306E000224FF0A0
:1044A000004302E06FF0010253101AEB06004CEBE0
:1044B000085110EB0A0041EB0B01BDE8F04D00F094
:1044C00074B8C1F30A52C1F3130140F2FF3341F44F
:1044D00080119A4202DA00200146704740F23343CD
:1044E0009A42A2F2334202DC524200F03CB800F0A1
:1044F0002BB8000030B5041E71F1000404DB4FF04E
:104500000044404264EB0101141E73F1000405DB1A
:104510001C464FF00043524263EB0403994208BF2C
:10452000904230BD064C074D06E0E06840F00103C4
:1045300094E8070098471034AC42F6D3FFF7CAFD61
:104540001C8400083C840008202A04DB203A00FA7E
:1045500002F1002070479140C2F1200320FA03F3DA
:10456000194390407047202A04DB203A21FA02F0D8
:104570000021704721FA02F3D040C2F1200291409D
:10458000084319467047202A06DBCB17203A41FA28
:1045900002F043EAE07306E041FA02F3D040C2F1D0
:1045A0002002914008431946704710B5141E73F15C
:1045B000000408DA401C41F1000192185B411A43E3
:1045C00001D120F0010010BD2DE9F04D92469B462F
:1045D00011B1B1FA81F202E0B0FA80F220329046D5
:1045E000FFF7B2FF04460F4640EA0A0041EA0B011A
:1045F00053465A46084313D0114653EA010019D0D6
:10460000C8F140025046FFF7AEFF05460E46504641
:1046100059464246FFF798FF084305D0012004E0C1
:1046200020463946BDE8F08D0020054346EAE07695
:104630002C4337430A986305E40AA0EB08000022E4
:10464000FD0A44EA47540A3002D500200146E9E752
:10465000010510196941DDE9084500196941BDE806
:10466000F04DA2E72DE9F0410024061B254671F12B
:10467000000605DA01240027D0EB070067EB0101F3
:10468000161E73F1000605DA0027D2EB070201259A
:1046900067EB0303FFF75CFD86460E4617469C4614
:1046A000AC4204D00025D0EB050E65EB010624B129
:1046B0000020D2EB000760EB030C704631463A460F
:1046C0006346BDE8F08140EA01039B0703D009E09F
:1046D00008C9121F08C0042AFAD203E011F8013BEE
:1046E00000F8013B521EF9D27047D2B201E000F847
:1046F000012B491EFBD270470022F6E710B5134686
:104700000A4604461946FFF7F0FF204610BD000098
:1047100070B5054C054D04E020460168084480470B
:10472000241DAC42F8D170BD3C84000840840008D0
:10473000F0B480EA0102D40F4200B2EB410F02D282
:104740000246084611464A0042D0C30DDDB2C1F30D
:10475000C752AD1A202D35DAC1F3160141F400021B
:1047600004B15242C5F1200602FA06F12A41104472
:10477000B3EBD05F23D0C4B1012DA0EBC35009DC53
:10478000F0BC4FF0004202EAC352DBB200F5000079
:1047900000F0CFB8400000F1807000EBC350A0F1F2
:1047A000807040EAD170490009E0490841EAC071CF
:1047B000A0EBC35000F50000400800EBC350F0BC74
:1047C00000F0AEB86142012202EB4101001BF6E7A6
:1047D000F0BC704781F00041AAE780F00040A7E7F5
:1047E00080EA010210B502F00043400022D04A00E6
:1047F0001FD0010E01EB1261C0F35600C2F3560246
:1048000040F4000042F40002A0FB022000047F39C3
:10481000140400D0401C50EA124001D44000491E4C
:10482000C2B20C0604EBD010401C4008802A02D013
:1048300003E0002010BD20F00100002900DA002074
:10484000184310BD30B480EA010202F0004530F098
:10485000004221F0004013D090B1C30DD40DC2F33B
:104860001601C0F31600E41A41F4000140F40002FE
:104870007D34914201D3641C00E04900002C02DA2F
:1048800030BC002070474FF400000023914201D358
:10489000891A034340084FEA4101F7D151B19142CF
:1048A00002D14FF0004105E002D24FF0010101E0DA
:1048B0006FF0010103EBC450284430BC00F030B865
:1048C000002801DBC0F10040002901DBC1F10041FB
:1048D000814201D20120704700207047002801DB8F
:1048E000C0F10040002901DBC1F10041814201D942
:1048F000012070470020704720F00040C10DC0F338
:10490000160040F400007F2901DA00207047962944
:1049100003DCC1F19601C840704796398840704762
:104920000029A8BF7047401C490008BF20F00100C3
:10493000704710B4B0FA80FC00FA0CF050EA0104A1
:1049400004BF10BC704749B1CCF1200421FA04F433
:1049500011FA0CF118BF012121430843A3EB0C010C
:10496000CB1D4FEA00614FEA102042BF002010BC6F
:10497000704700EBC35010440029A4BF10BC70471F
:10498000401C490008BF20F0010010BC7047000027
:10499000FFE7FEE77047000082B0019040F2C05090
:1049A000C2F20000007818B9FFE7002000900FE085
:1049B0000198C0F3C62140F24052C2F20002515C9D
:1049C000C0F3022021FA00F000F001000090FFE7A0
:1049D000009802B07047000080B586B040F2C05029
:1049E000C2F2000080690390FFE700F0D1FA049062
:1049F0000498039988422CD2FFE7EFF310800590CA
:104A00000598029072B640F2C050C2F20000806970
:104A100001900198039988420ED1FFE7049840F273
:104A2000C051C2F200018861086901300861BFF31A
:104A30005F8F0120009002E000200090FFE70298C5
:104A400010B9FFE762B6FFE7009808B9FFE701E099
:104A500008E0FFE7049903A800F050FD0028C4D047
:104A6000FFE7FFE7049806B080BD000080B58CB07A
:104A70004FF60061C0F20201099140F2E001C2F27A
:104A8000000108910790089820B1FFE70798812856
:104A900003D3FFE700200A90AEE00998FFF77CFF00
:104AA00018B9FFE701200A90A6E0FFF795FF0590EF
:104AB000BDF824000990EFF305800B900B9809993D
:104AC00041F40022002818BF114609910898069069
:104AD000079850B9FFE7099805990022002300F0D4
:104AE0008DF8019001980A9086E0079808281BD855
:104AF000FFE70020029003900699079A02A8FFF7AB
:104B0000E2FD079800F00700099941EA004009908A
:104B1000099840F040700599029A039B00F06EF8E6
:104B2000019001980A9067E000F03AFA4FF4E02112
:104B300001EA0040049006980168406803900291E1
:104B40000698083006900798083807900498099945
:104B500008430990099840F080700599029A039BD8
:104B600000F04CF80190019818B9FFE700200A9076
:104B700042E004984FF6017108430990FFE7079857
:104B800009281CD3FFE7069801684068039002914A
:104B900006980830069007980838079009980599F4
:104BA000029A039B00F02AF80190099801300990BD
:104BB000019818B9FFE700200A901DE0DFE7002008
:104BC000029003900699079A02A8FFF77CFD0998C6
:104BD00020F47F4009900798099941EA0020099044
:104BE000099840F000700599029A039B00F006F8BE
:104BF000019001980A90FFE70CB080BD80B58CB0A1
:104C00000A9009910892079307200590FFE70598FD
:104C1000002863D0FFE700F0C7F90490049800F083
:104C20003F0040F24011C2F2000101EB001006907B
:104C300004984FF4700101EA803001900A980199BC
:104C4000084309994FF0805202EAD10108430899BC
:104C50004FF0005202EA9101084307994FF0804259
:104C600002EA5101084340F00060039006980C30BE
:104C7000039900F0B9F903909DF80F004007002850
:104C800027D5FFE7039880F000400390039800F0D9
:104C900000400290099820F00040029908430699CC
:104CA0000860089820F0004002990843069948607F
:104CB000079820F0004002990843069988600698FA
:104CC0000C30039900F05CFB00F084F901200B909C
:104CD00009E0FFE705980138059098E700F070F9C2
:104CE00000200B90FFE70B980CB080BD87B00590BB
:104CF000049103920498FE2804D8FFE70398FF2844
:104D000003D3FFE70020069036E0002002900190D8
:104D1000FFE7019803282CD8FFE705980199C840C0
:104D2000C007F0B1FFE704980090FFE700980399EF
:104D3000884215D8FFE7009800F00701012202FA27
:104D400001F1029A02EBD00040F24052C2F200029E
:104D5000135C19431154FFE7009801300090E5E718
:104D6000FFE7029820300290FFE7019801300190A0
:104D7000CFE701200690FFE707B0704710B588B075
:104D8000002007900121069140F2C054C2F20004B5
:104D9000207040F24050C2F200008021FFF7ACFCCE
:104DA00000F036FCADF81200206A42F26B71CEF2D0
:104DB000A51188420FD0FFE740F2C050C2F20000B8
:104DC00042F26B71CEF2A5110162BDF81210418062
:104DD0000121C1611CE040F2C050C2F200004088D5
:104DE000BDF8121088420AD0FFE7BDF8120040F269
:104DF000C051C2F2000148800120C86107E040F2C2
:104E0000C050C2F20000C1690131C161FFE7FFE794
:104E100040F2C050C2F20000C069012812D1FFE781
:104E200040F2C050C2F20000002141704160816038
:104E3000C16040F24010C2F200004FF48061FFF701
:104E40005BFC20E000200090FFE700983F2819D885
:104E5000FFE7009840F24011C2F2000101EB0010A0
:104E600005900598C07B4007002806D5FFE7059808
:104E7000C16821F04061C160FFE7FFE700980130A1
:104E80000090E2E7FFE740F2C050C2F20000C069C4
:104E9000012818D1FFE7AFF30080012002900298AB
:104EA00020B1FFE700F078F8039002E000200390C3
:104EB000FFE7039840F2C051C2F2000148610020B0
:104EC0008861086117E0AFF300800120029002982A
:104ED00020B1FFE700F060F8039002E000200390AB
:104EE000FFE7039840F2C051C2F200014861002080
:104EF00088610861FFE7029830B3FFE70798002157
:104F0000FE22FFF7F3FE0F20EF21EF22FFF7EEFE68
:104F10000420FE21FE22FFF7E9FEFFF75DFD019070
:104F2000019940F2C050C2F200004369C2694FF6D5
:104F30000070C0F20030FFF761FE069818B1FFE77D
:104F400000F004F8FFE7FFE708B010BD10B582B02D
:104F500040F2C050C2F20000007818B1FFE7012013
:104F6000019013E040F2C050C2F20000012404702E
:104F7000FFF732FD009000994FF60170C0F200304B
:104F800000220023FFF73AFE0194FFE702B010BDB4
:104F900080B500F0F9FF80BD80B501F045FA80BD15
:104FA00080B500F0F9FA80BD80B540F2C050C2F281
:104FB0000000043000F0DAFA80BD0000FFE7FEE7F1
:104FC00080B540F2C050C2F200000C3000F0CEFAC2
:104FD00080BD000080B540F2C050C2F20000083031
:104FE00000F0C4FA80BD000087B0059004910598D8
:104FF00000680390FFE79DF80F004007002803D5E5
:10500000FFE70020069033E00498039901F0004187
:10501000084340F080600290FFE7059902980190F4
:10502000039B019AFFE751E8000F984209D1FFE77F
:10503000FFE741E8002303B106E0BFF35F8F0121E2
:1050400004E0BFF32F8FFFE70021FFE7CA0712B983
:10505000FFE70390FFE701F001008DF803009DF8E2
:105060000300C0070028C6D0FFE702980690FFE7BC
:10507000069807B070470000FFE7FEE770470000A2
:1050800086B00590049100200390059800F0070079
:1050900002900298C0F10700052802D3FFE7042020
:1050A00003E00298C0F10700FFE701900298043086
:1050B000062802D8FFE7002002E002980338FFE745
:1050C000009004980199012202FA01F10139084087
:1050D00000998840039B02FA01F101391940084305
:1050E00006B0704786B0059004910392059800F0D1
:1050F000070002900298C0F10700052802D3FFE7DD
:10510000042003E00298C0F10700FFE70190029835
:105110000430062802D8FFE7002002E00298033896
:10512000FFE7009004980199012202FA01F1013988
:10513000084000998840039B02FA01F101391940A7
:10514000084306B070470000704700007047000039
:1051500080B582B08DF807000020C4F220100090C6
:105160009DF80700012837D1FFE700980021C4F21D
:105170003431FFF7A5FB28B9FFE70020C4F2343033
:105180000090FFE700980021FFF7A8FB18B9FFE7A0
:1051900000200090FFE700980021C4F23431FFF7AF
:1051A00051FB0021C4F2FA41FFF71AFB0021C4F2BF
:1051B000FA31FFF7BDFA0021C4F22011FFF742FBDC
:1051C0000090002001F09CFB0098FFF795FB014642
:1051D000002001F001FC36E000980021C4F23431D7
:1051E000FFF76EFB28B9FFE70020C4F234300090CF
:1051F000FFE700980021FFF771FB18B9FFE70020D7
:105200000090FFE700980021C4F23431FFF71AFB49
:105210000021C4F2FA41FFF7E3FA0021C4F2FA31A7
:10522000FFF786FA0021C4F22011FFF70BFB009074
:10523000022001F065FB0098FFF75EFB01460220AB
:1052400001F0CAFBFFE702B080BD000080B540F26C
:10525000C400C2F200000068804702F04DFB80BD30
:1052600041F20000C4F20200016841F00101016056
:10527000FFE741F20000C4F2020000684008C007E6
:1052800008B9FFE7F5E741F20400C4F20200016843
:1052900021F003010160FFE741F20400C4F20200C3
:1052A00000688008800708B1FFE7F5E741F20000D9
:1052B000C4F2020001684FF6FF72CFF6F2621140AD
:1052C000016041F20400C4F202000021016041F2D9
:1052D0002C00C4F2020041F61071016041F230006E
:1052E000C4F202004FF48011016041F20800C4F2E0
:1052F00002004FF41F0101604EF60850CEF200008C
:105300004FF000610160704780B582B002F02EF965
:10531000A0B3FFE702F022F8ADF80600BDF80600E2
:105320005A280ED1FFE740F24400C2F20000007894
:1053300038B9FFE740F24400C2F2000001210170D9
:105340001BE0BDF80600A5280FD1FFE740F244009E
:10535000C2F200000078012807D1FFE740F24400C4
:10536000C2F200000221017006E040F24400C2F2E5
:10537000000000210170FFE7FFE7FFE702B080BDFA
:1053800085B004900391039820F080600290049807
:10539000029901910199BFF35F8FFFE750E8002F59
:1053A00040E80013002BF9D1FFE7009205B07047E9
:1053B000FFE7FEE781B08DF803009DF903000028A8
:1053C0000FD4FFE79DF9030000F01F01012202FA4C
:1053D00001F140094EF20012CEF2000242F8201014
:1053E000FFE701B0704700004EF60C50CEF200000F
:1053F0000068C0F3022070474EF60C50CEF2000059
:105400000068C0F30220704782B08DF80700009159
:105410009DF9070000280AD4FFE7009800019DF9D4
:1054200007104EF20042CEF2000288540BE00098C2
:1054300000019DF8071001F00F014EF61452CEF254
:1054400000028854FFE702B07047000082B08DF878
:10545000070000919DF9070000280AD4FFE7009893
:1054600000019DF907104EF20042CEF2000288546E
:105470000BE0009800019DF8071001F00F014EF6B7
:105480001452CEF200028854FFE702B070470000C9
:1054900083B00290029800F0070000904EF60C5086
:1054A000CEF200000168019101994FF6FF02114010
:1054B00001910199009A41EA02210022C0F2FA52B8
:1054C000114301910199016003B07047BFF34F8F01
:1054D0004EF60C50CEF20000016801F4E0610422A7
:1054E000C0F2FA5211430160BFF34F8FFFE700BFD4
:1054F000FDE7000080B500F099FE80BD85B040F268
:10550000C052C2F200021832049203900291049A2F
:10551000DDF80CC002980190DCF80000019BFFE769
:1055200052E8001F81420BD1FFE7BFF35F8FFFE717
:1055300042E8003000B106E0BFF35F8F012204E0D3
:10554000BFF32F8FFFE70022FFE7D00718B9FFE76F
:10555000CCF80010FFE702F001008DF803009DF881
:10556000030000F0010005B07047000083B0029016
:10557000029801210191DDF804C0FFE750E8002FF7
:1055800002EB0C0340E800310029F7D1FFE700925D
:10559000009803B07047000082B040F2C050C2F2E1
:1055A000000001300190019801218DF803109DF851
:1055B00003C0FFE7D0E84F2F02EB0C03C0E8413FE8
:1055C0000029F7D1FFE78DF802209DF8020002B014
:1055D0007047000080B582B000F016FF0191009086
:1055E00000F0F2FF80B1FFE700F00EFF01910090A4
:1055F00000F020FF009A019B80185941013041F1D1
:10560000000100900191FFE70098019902B080BD70
:1056100084B048F2D830C0F6000003901820029001
:105620004FF6FF70ADF80600FFE7029890B3FFE772
:105630000398411C03910078BDF8061081EA002010
:10564000ADF8060008200090FFE70098F0B1FFE7F2
:10565000BDF80600000400280DD5FFE7BDF80600E0
:105660004000ADF80600BDF8060041F221014840B7
:10567000ADF8060005E0BDF806004000ADF80600F4
:10568000FFE7FFE7009801380090DEE70298013855
:105690000290CAE7BDF8060004B0704781B0002050
:1056A0008DF803009DF8030041F20401C4F20201E9
:1056B0000A6800F00F0022F0F00242EA00100860D1
:1056C00001B0704781B000208DF803009DF8030001
:1056D00041F20401C4F202010A6800F0070022F45A
:1056E000E06242EA0020086001B0704781B000200B
:1056F0008DF803009DF8030041F20401C4F2020199
:105700000A6800F0070022F4605242EAC0200860F4
:1057100001B0704781B08DF803009DF803000128A7
:1057200009D1FFE741F25400C4F20200016841F0E0
:105730003001016008E041F25400C4F20200016847
:1057400021F030010160FFE701B0704781B08DF8B2
:10575000030001208DF802009DF80300042843D8BF
:10576000DFE800F0030E1D2C37009DF8020041F227
:105770000001C4F202010A6860F300020A6034E02A
:105780009DF8020041F20001C4F202010A6800F033
:10579000010022F4803242EA0040086025E09DF8D2
:1057A000020041F20001C4F202010A6800F00100A7
:1057B00022F0807242EA0060086016E09DF8020064
:1057C00041F22001C4F202010A6860F300020A609B
:1057D0000BE09DF8020041F22401C4F202010A68C4
:1057E00060F300020A6000E0FFE701B070470000CC
:1057F00080B58CB00B9000200A900990089007901B
:105800000690059004900390029000F0D5FA8DF870
:1058100007009DF8070030B1FFE7012824D0FFE71B
:10582000022828D0C1E041F25400C4F2020000680E
:10583000400AC00780B1FFE741F23000C4F2020025
:105840000068400EC00738B1FFE70B9846F60041EC
:10585000C0F2DC21016006E00B9841F20021C0F2A9
:105860007A010160FFE7A7E00B9841F20021C0F246
:105870007A010160A0E041F20400C4F20200006875
:10588000C0F30040089041F22C00C4F2020000680E
:105890000021B1EBD07F47D1FFE741F20400C4F211
:1058A00002000168C1F383410A910068C0F34170AE
:1058B0000990099820B9FFE70A980F2807D1FFE758
:1058C00009980A9901EB001001300A9003E00A9848
:1058D00002300A90FFE7089848B9FFE70A9840F6B7
:1058E0000011C0F23D0148430B9908601BE041F2F2
:1058F0000400C4F202000068400CC00748B1FFE792
:105900000A9840F60011C0F23D0148430B99086027
:1059100008E00A9841F20021C0F27A0148430B994D
:105920000860FFE7FFE73FE041F22C00C4F202000D
:105930000168C1F3031104910168C1F308210391C7
:10594000006800F007000290089830B9FFE740F6C1
:105950000010C0F23D00059015E041F20400C4F2D1
:1059600002000068400CC00730B1FFE740F60010AD
:10597000C0F23D00059005E041F20020C0F27A003F
:105980000590FFE7FFE705980399A0FB0101DDF80B
:1059900010C0029B01229A400CFB02F20023FEF78A
:1059A000D7FB0B990860FFE706E00B9841F2002156
:1059B000C0F27A010160FFE741F20400C4F2020084
:1059C0000168C1F303110791079948F2F032C0F65C
:1059D0000002515C06910B990A68069BDA404A6006
:1059E0000168C1F302210791079948F2004CC0F603
:1059F000000C1CF8011006910B994B68069A23FACB
:105A000002F2CA600168C1F3C221079107991CF82C
:105A1000011006910B994A68069BDA408A6001687A
:105A2000C1F30071079107990068C0F3813040EA23
:105A300081000790079848F20841C0F60001085C11
:105A400006900B988168069AB1FBF2F101610CB0E7
:105A500080BD000082B0019000208DF80300BDF8E9
:105A6000060041F20001C4F202014058019901F020
:105A70001F01C840C00720B9FFE700208DF80300D0
:105A800003E001208DF80300FFE79DF8030002B05A
:105A90007047000082B0019001208DF803009DF84E
:105AA000030001280FD1FFE7019800F01F01012238
:105AB00002FA01F1000C41F20002C4F20202835822
:105AC000194381500FE0019800F01F01012202FAF2
:105AD00001F1000C41F20002C4F20202835823EAF1
:105AE00001018150FFE702B07047000083B0002041
:105AF0008DF80B001D218DF80A1001908DF8030020
:105B00009DF80B00B0B9FFE741F20400C4F20200B7
:105B1000016821F48031016040F60010C0F23D00C0
:105B2000019041F23000C4F20200016841F00071BE
:105B3000016029E041F20400C4F20200016841F46E
:105B4000803101609DF80B0001280ED1FFE741F282
:105B50000020C0F27A00019041F20400C4F2020079
:105B6000016821F4003101600DE040F60010C0F240
:105B70003D00019041F20400C4F20200016841F4CA
:105B800000310160FFE7FFE7019848F26121C0F2B0
:105B90003B0188420CD3FFE7019844F63F31C0F245
:105BA0004C01884204D8FFE700208DF8030068E02C
:105BB000019845F68101C0F24F0188420CD3FFE7FE
:105BC000019845F60F61C0F25F01884204D8FFE7F3
:105BD00001208DF8030053E0019843F29551C0F283
:105BE000770188420CD3FFE7019841F60F31C0F2EC
:105BF0007F01884204D8FFE702208DF803003EE0D1
:105C0000019841F61131C0F27F0188420CD3FFE7C1
:105C100001984BF61F41C0F2BE01884204D8FFE74D
:105C200003208DF8030029E0019846F62931C0F2DF
:105C3000EE0188420CD3FFE701984DF22F71C0F2BC
:105C40003D11884204D8FFE704208DF8030014E0DA
:105C500001984DF23171C0F23D1188420CD3FFE73B
:105C600001984EF6D711C0F2DC11884204D8FFE744
:105C700005208DF80300FFE7FFE7FFE7FFE7FFE7F9
:105C8000FFE79DF80A0000F00F0041F20401C4F2A2
:105C900002010A6822F4701242EA804008609DF80E
:105CA0000A0000F030000A6822F0C04242EA406078
:105CB00008609DF8030041F22C01C4F202010A6859
:105CC00000F0070022F0E06242EA0060086003B0E2
:105CD0007047000041F20000C4F20200016841F088
:105CE00001010160FFE741F20000C4F20200006818
:105CF0004008C00708B9FFE7F5E741F20400C4F225
:105D00000200016821F003010160FFE741F2040095
:105D1000C4F2020000688008800708B1FFE7F5E7D9
:105D200041F20000C4F2020001684FF6FF72CFF6A4
:105D3000F2621140016041F20400C4F2020000214D
:105D4000016041F22C00C4F2020041F610710160C2
:105D500041F23000C4F202004FF48011016041F2C0
:105D60000800C4F202004FF41F01016070470000F8
:105D700081B002208DF803009DF8030041F2040178
:105D8000C4F202010A6860F301020A6000BF00BFAA
:105D900000BF00BF00BF00BF00BF00BF00BF00BF0B
:105DA00000BF00BF00BF00BF00BF00BF00BF00BFFB
:105DB00000BF00BF01B0704741F20400C4F202000E
:105DC0000068C0F38100704742F21000C4F2020084
:105DD000016841F0800101607047000081B003203C
:105DE0008DF8030042F20C00C4F202000068C00704
:105DF00020B1FFE700208DF803001FE042F20C0005
:105E0000C4F2020000688008C00720B1FFE701204B
:105E10008DF8030011E042F20C00C4F202000068A9
:105E20000009C00720B1FFE702208DF8030003E05E
:105E300003208DF80300FFE7FFE7FFE79DF803006D
:105E400001B0704780B582B0019003208DF8030047
:105E5000FFF7C4FF8DF80300FFE79DF80310002053
:105E600029B9FFE70198002818BF0120FFE7C00704
:105E700040B1FFE7FFF7B2FF8DF80300019801384A
:105E80000190EAE7019820B9FFE704208DF80300AC
:105E9000FFE79DF8030002B080BD000010B582B09E
:105EA00043F60000C0F60000019003208DF80300C7
:105EB00042F21004C4F20204206840F002002060A4
:105EC000019842F21401C4F202010860206840F017
:105ED000400020604FF08040FFF7B4FF8DF80300D2
:105EE000206820F00200206002B010BD42F20400E1
:105EF000C4F2020040F22311C4F26751016048F677
:105F0000AB11CCF6EF5101607047000010B584B0C2
:105F100043F60000C0F60000039044F63830C4F2A7
:105F20005410029003208DF8070042F21004C4F2CE
:105F30000204206840F00100206002980399086084
:105F40004FF48010FFF77EFF8DF80700206820F0E7
:105F50000100206004B010BD80B584B002900191B2
:105F6000019840F20001C2F20001884205D1FFE72A
:105F7000029800F045FB039003E04FF0FF300390E0
:105F8000FFE7039804B080BD10B584B000240394EB
:105F9000029400F025FA01900094FFE70098011D9B
:105FA000009180BBFFE7FFF715FB40F2F802C2F259
:105FB0000002D2E90023801859410290039102980F
:105FC000039940F22012C2F20002D2E90023801AA3
:105FD00071EB030009DAFFE740F22010C2F2000083
:105FE000D0E900010391029008E00298039940F281
:105FF0002012C2F20002C2E90001FFE7FFE70198A8
:1060000000F0EAFACAE70298039904B010BD000054
:1060100082B040F20040C4F6000001904FF40060EE
:10602000ADF80200BDF802000199886102B0704726
:1060300081B0009000984FF6FF7101600098002138
:106040008171009801710098417100980121C1711E
:1060500001B0704783B0029001910020ADF80000BC
:1060600001980068ADF80200FFE7BDF802000128C2
:1060700061DBFFE7BDF80200C007002850D0FFE752
:10608000BDF800004100032000FA01F1029A1368F4
:1060900023EA0101116001998979BDF800205200BD
:1060A0009140029A136819431160BDF80010012253
:1060B00002FA01F1029A536823EA01015160019941
:1060C0000979BDF800209140029A53681943516044
:1060D000BDF80010490000FA01F1029A936823EA22
:1060E000010191600199C979BDF8002052009140E9
:1060F000029A936819439160BDF8001049008840E6
:106100000299CA6822EA0000C86001984079BDF887
:106110000010490088400299CA681043C860FFE730
:10612000BDF802004008ADF80200BDF800000130E3
:10613000ADF8000099E703B07047000084B0039009
:106140008DF80B1001208DF80A00002001900090BE
:106150009DF80A109DF80B2002F007029200914072
:1061600001919DF80B10B0EBD10F16D0FFE79DF811
:106170000B0000F0070080000F2101FA00F00399E6
:106180004A6A22EA000048620398406A019908437B
:10619000009000980399486215E09DF80B0000F00C
:1061A000070080000F2101FA00F003990A6A22EA31
:1061B000000008620398006A019908430090009863
:1061C00003990862FFE704B07047000080B540F211
:1061D0004400C2F20000007802280BD1FFE7FFF76D
:1061E00085FEFFF75BFEFFF791FEFFF7EDFD00F088
:1061F000D7F8FFE780BD000080B543F60000C0F689
:106200000000006844F63831C4F25411884207D1C6
:10621000FFE7FFF76BFEFFF741FEFFF7D5FDFFE756
:1062200080BD000080B5FFF7D1FF80BD10B584B000
:1062300001208DF80F0000248DF80E4000F0D0F8FA
:1062400002900194FFE70198011D019180B9FFE7D9
:106250009DF80F0000F0010000F0F4F801208DF827
:106260000E0000F0B5F8FFE7029800F0B5F9EAE794
:1062700001F026F840F2F800C2F200000021C0E967
:10628000001140F20810C2F20000C0E9001140F213
:106290001810C2F20000C0E9001140F22010C2F252
:1062A0000000C0E9001140F22810C2F20000C0E96D
:1062B000001140F23010C2F20000C0E90011AFF34B
:1062C000008004B010BD000080B582B000200190B5
:1062D00000F068F801F0C8FA01F0B0FA01F062FAD3
:1062E00001F016FB01F03EFA01F0BAFB01F03CFBB5
:1062F00000F08AFE40F2C400C2F20000826846F25A
:106300002520C0F600000A21904740F20C00C2F29E
:1063100000004EF2C011C0F2E4010160FFF786FFF9
:10632000FEF72CFDFFF768FF0120FEF711FF0220AA
:10633000FEF70EFF48F21040C0F6000001F0D2FB5D
:10634000FFE740F2C400C2F2000040688047F8E76F
:1063500080B584B01B208DF80F00002002900190C2
:106360000090FFF749F80299019AFEF7BBFE0090F2
:106370009DF90F000099FFF769F89DF90F00FFF7ED
:1063800019F804B080BD000080B582B003208DF8FC
:1063900007009DF80700FFF77BF802B080BD000002
:1063A000FFF794F882B04FF0006001904FF4804006
:1063B0000090019800994FF68072C1F6FF7211406B
:1063C00008434EF60851CEF20001086002B0704753
:1063D0004EF60450CEF200004FF00071016070479D
:1063E00082B0EFF3108001900198009072B600988F
:1063F00002B0704782B0EFF31080019001980090D6
:1064000072B6009802B070474EF21400CEF200004F
:1064100000684EF21801CEF200010968401A4FF0F0
:10642000000161F10001704740F20C00C2F200006F
:10643000006870474EF21400CEF2000000680021A0
:106440007047000080B584B08DF80F00FFE79DF81D
:106450000F00C00708B1FFE724E0FFF7CBFF029071
:1064600000200190FFE70198011D0191C8B9FFE7E5
:106470004EF21000CEF20000002101604EF2140234
:10648000CEF200026FF07F4313604EF21802CEF29C
:106490000002116007210160FFE7029800F0A6F8F2
:1064A000E1E7FFE704B080BD70B58EB0FFF7C2FF33
:1064B000013041F100010C900D91FFF791FF0B901D
:1064C00000200A90FFE70A98011D0A91E8BBFFE748
:1064D0000C980D9940F2F802C2F20002D2E90034A1
:1064E000C0186141C2E90001FFE740F20016C2F2A4
:1064F000000630680C990D9A401842F1000108908E
:1065000009910898099940F20405C2F200052A6829
:106510000023FEF7A7F8079106900698079940F226
:106520000812C2F20002D2E90034C0186141C2E987
:106530000001089806992A6801FB12003060FFE705
:10654000FFE70B9800F048F8BDE7FFF749FF05901B
:1065500000200490FFE70498011D049188BBFFE729
:10656000FFE740F21014C2F2000420680C990D9A63
:10657000401842F10001029003910298039940F201
:106580000805C2F200052A680023FEF76BF80191A6
:1065900000900098019940F21812C2F20002D2E96C
:1065A0000036C0187141C2E90001029800992A68BA
:1065B00001FB12002060FFE7FFE7059800F00CF8F0
:1065C000C9E70EB070BD00004EF60450CEF20000D8
:1065D0000068C0F38060704782B00090009801901E
:1065E000019880F3108802B07047000082B00090DC
:1065F00000980190019880F3108802B07047000065
:1066000010B582B0009040F2DC00C2F200000068D9
:10661000082804D3FFE74FF0FF30019021E00098F5
:1066200040F2DC01C2F200010A68531C0B6040F228
:10663000E003C2F2000398540868082804D0FFE77A
:1066400000980A280AD1FFE740F2DC04C2F20004F5
:106650002068FEF70BFA00202060FFE70098019009
:10666000FFE7019802B010BD80B58AB00020099004
:106670000890079006900590049003900290019076
:10668000FFF79AFB8DF803009DF8030030B1FFE798
:1066900001282AD0FFE7022831D0D6E041F2540089
:1066A000C4F202000068400AC00798B1FFE741F257
:1066B0003000C4F202000068400EC00750B1FFE78E
:1066C00040F20C00C2F2000046F60041C0F2DC21AC
:1066D000016009E040F20C00C2F2000041F200212A
:1066E000C0F27A010160FFE7B9E040F20C00C2F2AB
:1066F000000041F20021C0F27A010160AFE041F2F6
:106700000400C4F202000068C0F30040079041F2A8
:106710002C00C4F2020000680021B1EBD07F50D100
:10672000FFE741F20400C4F202000168C1F38341B3
:1067300009910068C0F341700890089820B9FFE7FC
:1067400009980F2807D1FFE70898099901EB001075
:106750000130099003E0099802300990FFE707989B
:1067600060B9FFE7099840F60011C0F23D014843C7
:1067700040F20C01C2F20001086021E041F2040085
:10678000C4F202000068400CC00760B1FFE709983E
:1067900040F60011C0F23D01484340F20C01C2F244
:1067A000000108600BE0099841F20021C0F27A0173
:1067B000484340F20C01C2F200010860FFE7FFE726
:1067C00042E041F22C00C4F202000168C1F303115F
:1067D00003910168C1F308210291006800F00700ED
:1067E0000190079830B9FFE740F60010C0F23D0075
:1067F000049015E041F20400C4F202000068400C6D
:10680000C00730B1FFE740F60010C0F23D00049031
:1068100005E041F20020C0F27A000490FFE7FFE7B4
:1068200004980299A0FB0101DDF80CC0019B012234
:106830009A400CFB02F20023FDF78AFC40F20C01A7
:10684000C2F200010860FFE709E040F20C00C2F26A
:10685000000041F20021C0F27A010160FFE741F23D
:106860000400C4F202000068C0F30310069006980A
:1068700048F2F031C0F60001085C059040F20C00CF
:10688000C2F200000168059AD14001600AB080BDE3
:1068900081B000208DF803009DF80300042809D181
:1068A000FFE74EF21000CEF20000016841F0040153
:1068B000016008E04EF21000CEF20000016821F005
:1068C00004010160FFE701B07047000083B040F2AF
:1068D0000040C4F20000029040F2CF70019040F2FC
:1068E000AF40009001980299C862009802998862AE
:1068F0000298416941F00101416103B07047000015
:1069000082B040F20041C4F2000101918DF8030011
:1069100001208DF802009DF80300ADF80000BDF8DD
:106920000000062855D8DFE800F0040C1824303C9D
:1069300048009DF8020001990A6A60F300020A62A9
:1069400048E09DF8020001990A6A00F0010022F077
:10695000040242EA800008623CE09DF802000199CE
:106960000A6A00F0010022F0100242EA00100862F8
:1069700030E09DF8020001990A6A00F0010022F05F
:10698000400242EA8010086224E09DF8020001996A
:106990000A6A00F0010022F4807242EA00200862D4
:1069A00018E09DF8020001990A6A00F0010022F443
:1069B000806242EA802008620CE09DF802000199A2
:1069C0000A6A00F0010022F4805242EA00300862B4
:1069D00000E0FFE702B0704784B040F20042C4F22A
:1069E000000203928DF80B0001919DF80B00ADF8A9
:1069F0000200BDF80200062815D8DFE800F00414F4
:106A000008140C1410000198039948630CE00198D5
:106A10000399886308E001980399C86304E001982A
:106A20000399086400E0FFE704B0704782B040F2C9
:106A30000040C4F20000019000208DF803009DF892
:106A4000030001990A6800F0030022F4407242EA50
:106A50000020086002B0704782B040F20040C4F2EB
:106A60000000019000208DF803009DF803000199BB
:106A70000A6800F0070022F0700242EA0010086085
:106A800002B0704782B040F20040C4F200000190B2
:106A900001208DF803009DF8030001990A6860F356
:106AA00000020A6002B0704782B040F20041C4F2B6
:106AB000000101918DF8030000208DF802009DF87F
:106AC0000300ADF80000BDF80000062835D8DFE867
:106AD00000F0043410341C3428009DF802000199A1
:106AE0008A6900F0010022F0080242EAC0008861D1
:106AF00024E09DF8020001998A6900F0010022F467
:106B0000006242EAC020886118E09DF80200019905
:106B1000CA6900F0010022F0080242EAC000C86120
:106B20000CE09DF802000199CA6900F0010022F40E
:106B3000006242EAC020C86100E0FFE702B070478F
:106B400086B040F20042C4F2000205928DF81300B4
:106B500003910020ADF80A00ADF80800ADF806007A
:106B60009DF813000830ADF804009DF813000930BB
:106B7000ADF8020003984078BDF804108840ADF8E5
:106B80000A0003988078BDF802108840ADF808002C
:106B9000BDF80200012101FA00F0059A536823EACA
:106BA00000005060BDF80800059A53681843506013
:106BB000BDF8040001FA00F005994A6822EA0000D5
:106BC0004860BDF80A0005994A68104348609DF87E
:106BD0001300ADF80600BDF80600062835D8DFE83A
:106BE00000F0043410341C34280003980078059910
:106BF0008A6900F0070022F0700242EA0010886102
:106C000024E00398007805998A6900F0070022F4CF
:106C1000E04242EA0030886118E003980078059964
:106C2000CA6900F0070022F0700242EA0010C86151
:106C30000CE0039800780599CA6900F0070022F477
:106C4000E04242EA0030C86100E0FFE79DF813002F
:106C500040000130ADF804009DF81300032101EB62
:106C60004000ADF802000398C078BDF804108840D9
:106C7000ADF80A0003980079BDF802108840ADF81D
:106C80000800BDF80210012000FA01F1059A136A0C
:106C900023EA01011162BDF80810059A136A19432D
:106CA0001162BDF8041000FA01F1059A136A23EA93
:106CB00001011162BDF80A10059A136A19431162A5
:106CC0009DF813104900ADF804109DF8131002222E
:106CD00002EB4101ADF80210039949799DF8133098
:106CE0005B009940ADF80A10039989799DF813303B
:106CF00002EB43029140ADF80810BDF8021000FA13
:106D000001F1059A136A23EA01011162BDF8081026
:106D1000059A136A19431162BDF804108840059959
:106D20000A6A22EA00000862BDF80A0005990A6AA8
:106D30001043086206B0704782B040F20041C4F2CE
:106D4000000101918DF8030000208DF802009DF8EC
:106D50000300ADF80000BDF80000062835D8DFE8D4
:106D600000F0043410341C3428009DF8020001990E
:106D70008A6900F0010022F0040242EA8000886182
:106D800024E09DF8020001998A6900F0010022F4D4
:106D9000806242EA8020886118E09DF80200019933
:106DA000CA6900F0010022F0040242EA8000C861D2
:106DB0000CE09DF802000199CA6900F0010022F47C
:106DC000806242EA8020C86100E0FFE702B07047BD
:106DD00082B040F20040C4F20000019000208DF823
:106DE00003009DF8030001990A6800F0010022F0F9
:106DF000800242EAC010086002B0704782B040F2E0
:106E00000040C4F20000019000208DF803009DF8BE
:106E1000030001994A6800F0070022F0700242EA7C
:106E20000010486002B0704782B040F20040C4F2E7
:106E30000000019000208DF803009DF803000199E7
:106E40008A6800F0010022F0800242EAC0108860E7
:106E500002B0704783B00190ADF8021040F24800D4
:106E6000C2F2000090F8780007282FDCFFE70198B5
:106E700040F24801C2F2000101F1180291F87830A5
:106E800003EB430342F82300BDF8020091F8783089
:106E900003EB430302EB8303D880BDF8020091F8B3
:106EA000783003EB430302EB8303988091F878007A
:106EB00000EB400002EB80000022027291F87800A3
:106EC000013081F878008DF80B2003E001208DF867
:106ED0000B00FFE79DF80B0003B0704783B00190F3
:106EE00040F24800C2F2000090F8780001287BDBF5
:106EF000FFE74EF21000CEF20000016821F0010120
:106F0000016000208DF80300FFE79DF8030040F2C8
:106F10004801C2F2000191F87810884263DAFFE775
:106F20009DF8030000EB400040F24801C2F200016E
:106F300001EB80008069019988424DD1FFE740F262
:106F40004801C2F2000101F1180091F87820013ADD
:106F500081F8782091F8782002EB420250F8222044
:106F60009DF8033003EB430340F8232091F8782089
:106F700002EB420200EB8202D2889DF8033003EB61
:106F8000430300EB8303DA8091F8782002EB42029E
:106F900000EB820292889DF8033003EB430300EB81
:106FA00083039A8091F8781001EB410100EB810195
:106FB000097A9DF8032002EB420200EB8200017285
:106FC0004EF21000CEF20000016841F001010160B4
:106FD00000208DF80B0013E0FFE79DF8030001305F
:106FE0008DF8030091E7FFE74EF21000CEF20000AB
:106FF000016841F00101016001208DF80B00FFE7FD
:107000009DF80B0003B0704710B540F24800C2F283
:10701000000047F28101C0F60001416047F25521AE
:10702000C0F60001016046F65561C0F600018160BE
:1070300046F6DD61C0F60001C16047F2BD11C0F641
:107040000001016147F23511C0F6000141610021E4
:1070500080F87810D0F800C0D0F804E08368C168E8
:107060000269406940F2C404C2F200046061226116
:10707000E160A360C4F804E0C4F800C010BD0000E3
:1070800080B582B000208DF80700FFE79DF807006B
:1070900040F24801C2F2000191F87810884246DAC5
:1070A000FFE79DF8070000EB400040F24801C2F204
:1070B000000101EB8000808B90BBFFE79DF807008B
:1070C00000EB400040F24801C2F2000101EB8000F9
:1070D00090F82000012823D0FFE79DF8070000EB7F
:1070E000400040F24801C2F20001183101EB80007B
:1070F000C28882809DF8070000EB400051F8200014
:1071000068B1FFE79DF8070000EB400040F248013E
:10711000C2F2000101EB800080698047FFE7FFE7D2
:10712000FFE79DF8070001308DF80700AEE702B0D9
:1071300080BD000083B001908DF8031000208DF811
:107140000200FFE79DF8020040F24801C2F2000190
:1071500091F87810884228DAFFE79DF8020000EBEA
:10716000400040F24801C2F2000101EB800080695A
:107170000199884212D1FFE79DF803009DF80210A3
:1071800001EB410140F24802C2F2000202EB810130
:1071900081F8200000208DF80B000AE0FFE79DF841
:1071A000020001308DF80200CCE701208DF80B00C1
:1071B000FFE79DF80B0003B07047000083B001901B
:1071C000ADF8021000208DF80100FFE79DF80100E6
:1071D00040F24801C2F2000191F87810884231DA99
:1071E000FFE79DF8010000EB400040F24801C2F2C9
:1071F000000101EB80008069019988421BD1FFE703
:10720000BDF802009DF8011001EB410140F2480277
:10721000C2F20002183202EB81018880BDF8020040
:107220009DF8011001EB410102EB8101C8800020B3
:107230008DF80B000AE0FFE79DF8010001308DF8A2
:107240000100C3E701208DF80B00FFE79DF80B005C
:1072500003B0704781B000208DF80300FFE79DF870
:10726000030040F24801C2F2000191F87810884210
:1072700023DAFFE79DF8030000EB400040F24801ED
:10728000C2F2000101EB8000808B01280EDBFFE7DA
:107290009DF8030000EB400040F24801C2F20001FB
:1072A00001EB8000818B01398183FFE7FFE79DF8C7
:1072B000030001308DF80300D1E701B070470000F2
:1072C00080B584B0FFF7B0F8039003984DF6836162
:1072D000C4F21B31A0FB0101880C40F20801C2F28C
:1072E00000010860039844F6D351C1F26201A0FB8B
:1072F0000101880940F20401C2F200010860FFF7B1
:107300006FF8029000200190FFE70198011D0191A4
:1073100008BBFFE7FEF738FE40F2F002C2F20002BF
:10732000C2E90001FFE7BFF34F8FBFF36F8FFFE7A5
:10733000FEF72AFE40F2F001C2F20001D1E900128C
:10734000401A40F2E801C2F200010860FFE702982B
:10735000FFF742F9D9E704B080BD000081B043F6E1
:107360000000C4F2010000900098406880B201B0B3
:107370007047000082B043F60000C4F201000190A3
:1073800001208DF803009DF803000199CA6800F000
:10739000010022F4005242EA4030C86002B0704757
:1073A00082B043F60000C4F20100019000208DF885
:1073B00003009DF8030058B9FFE70198416921F4E3
:1073C000807141610198416921F40071416132E0AD
:1073D0009DF8030001280BD1FFE70198416941F4B2
:1073E000807141610198416921F40071416121E09E
:1073F0009DF8030002280BD1FFE70198416921F4B1
:10740000807141610198416941F40071416110E06E
:107410009DF8030003280BD1FFE70198416941F46F
:10742000807141610198416941F400714161FFE758
:10743000FFE7FFE7FFE702B07047000010B58AB032
:1074400043F60004C4F2010409944FF4E1300890BB
:1074500000208DF81F008DF81E0002A8FEF7C8F965
:107460000998A04203D1FFE70498019002E0059833
:107470000190FFE7019800EB800040000899B0FB05
:10748000F1F0009000984CF6CD41CCF6CC41A0FB39
:107490000112D10801EB8101A0EB410004280AD8B8
:1074A000FFE700984CF6CD41CCF6CC41A0FB0101A2
:1074B000C80800900BE000984CF6CD41CCF6CC41CA
:1074C000A0FB0101012000EBD1000090FFE7BDF817
:1074D000000009998A684FF6FF739A431044886048
:1074E0009DF81F000999CA6800F0010022F480523B
:1074F00042EA0030C8609DF81E0009990A6900F050
:10750000030022F4405242EA003008610AB010BD84
:1075100083B043F60000C4F2010002900520C0F2DF
:107520000C00019001208DF803009DF80300012854
:107530000CD1FFE7019800F01F01012202FA01F1CE
:10754000029A000C1358194311500CE0019800F0F6
:107550001F01012202FA01F1029A000C135823EADA
:1075600001011150FFE703B07047000084B043F6FB
:107570000000C4F2010002902020019000208DF84C
:107580000300019801285FD0FFE7022855D0FFE7EC
:10759000042852D0FFE7082837D0FFE7102845D04D
:1075A000FFE720282AD0FFE7402820D0FFE78028E7
:1075B00016D0FFE7B0F5807F0BD0FFE7B0F5007F76
:1075C00049D1FFE702984069C0F380208DF803009D
:1075D00045E002980069C0F380108DF803003EE09A
:1075E0000298C068C0F3C0108DF8030037E002981D
:1075F000C068C0F380108DF8030030E00298C068C6
:10760000C0F340108DF8030029E00298C0684109DA
:107610000120C90729B9FFE70298406900F001007D
:10762000FFE700F001008DF8030018E00298C06841
:10763000C0F300108DF8030011E00298406900F0DB
:1076400001008DF803000AE00298C068C0F3002032
:107650008DF8030003E000208DF80300FFE79DF89C
:107660000300012804D0FFE700208DF80F000DE093
:10767000029800680199084204D0FFE701208DF8C4
:107680000F0003E000208DF80F00FFE79DF80F00CA
:1076900004B0704782B043F60000C4F201000190CC
:1076A00000208DF803009DF8030058B9FFE701980A
:1076B000C16821F40071C1600198C16821F4806142
:1076C000C16021E09DF8030001280BD1FFE701987C
:1076D000C16821F40071C1600198C16841F4806102
:1076E000C16010E09DF8030002280BD1FFE701986C
:1076F000C16841F40071C1600198C16841F48061C2
:10770000C160FFE7FFE7FFE702B0704782B043F6D2
:107710000000C4F20100019001208DF803009DF8E3
:1077200003000199CA6800F0010022F0040242EA55
:107730008000C86002B0704782B043F60000C4F217
:107740000100019001208DF803009DF803000199CC
:10775000CA6800F0010022F0080242EAC000C860D6
:1077600002B0704710B582B06C462046FEF760FC50
:10777000FEF74EFC02208DF8070000208DF8040073
:1077800001218DF806104FF4006100918DF805007D
:1077900040F20040C4F600002146FEF75BFC02B058
:1077A00010BD000080B5FEF7EFFDFDF71DFE0021C6
:1077B000FDF766FC01466FF00B00FDF725FEFDF7B7
:1077C00013FE0021FDF75CFC01466FF00A00FDF797
:1077D0001BFEFDF709FE0021FDF752FC01466FF08C
:1077E0000900FDF711FEFDF7FFFD0021FDF748FC44
:1077F00001466FF00400FDF707FEFDF7F5FD0021DF
:10780000FDF73EFC01466FF00300FDF7FDFDFDF7BF
:10781000EBFD0021FDF734FC01466FF00100FDF7A0
:10782000F3FDFDF7E1FD0F21FDF72AFC01464FF0C6
:10783000FF30FDF7E9FDFEF78BFD80BD80B511201F
:10784000C0F21400FEF726F91220C0F21400FEF771
:1078500021F90E20C0F21800FEF71CF90120C0F239
:107860001C00FEF717F980BD80B5FEF733FA42F22F
:107870000000C4F2020040F2531101600420FDF741
:1078800065FFFFE70120C0F22400FEF7E3F80128BE
:1078900001D0FFE7F6E70020FDF758FFFFE70120E2
:1078A000FEF7D8F8012801D0FFE7F8E7FEF71EF948
:1078B0000220FDF74BFFFFE71920FEF7CBF8012868
:1078C00001D0FFE7F8E7FDF7E9FEFDF70FFFFDF751
:1078D000F9FE0120FDF71EFFFEF74AFAFFE7FEF76B
:1078E0006BFA022801D0FFE7F9E70020FDF712FF4D
:1078F000FEF7BAFE80BD000080B500F001F880BD43
:1079000040F24000C2F2000001680131016070479E
:1079100010B586B00024009401A8FDF769FF029815
:10792000C0080090FEF7B4FF009844F6D351C1F2AE
:107930006201A0FB01014FF0FF3000EB91104EF20D
:107940001401CEF2000108604EF21800CEF20000E1
:1079500004604EF21000CEF20000016841F0030115
:10796000016006B010BD0000F0B585B003AC204644
:10797000FEF75EFB40F20045C4F6000528460421F0
:10798000FEF7DCFB1020039002278DF81270002612
:107990008DF810608DF811608DF81370284621461F
:1079A000FEF758FB28460521FEF7C8FB2020039070
:1079B0008DF812708DF810608DF811608DF81370CD
:1079C00028462146FEF746FBFFF746F8FFF72EF85C
:1079D000FFF7FEF9FEF77AFFFFF726FAFFF70EFA38
:1079E00006258DF8045001278DF809708DF80A607E
:1079F0008DF807608DF808608DF805608DF80660D9
:107A000001AC00202146FFF79BF800200021FEF783
:107A1000E3FF0020FFF748F80020FFF78DF98DF80D
:107A200004508DF809708DF80A608DF807608DF8A4
:107A300008608DF805608DF8066002202146FFF78A
:107A40007FF802200021FEF7C7FF0220FFF72CF885
:107A50000220FFF771F9FFF715F805B0F0BD00003F
:107A600070B582B06C462046FEF7E2FA4FF09040C7
:107A70000921FEF763FB02258DF8075000268DF8DB
:107A800004608DF806504FF4007000908DF805608A
:107A90004FF090402146FEF7DDFA4FF090400A216A
:107AA000FEF74CFB8DF807508DF804608DF80650FA
:107AB0004FF4806000908DF805604FF090402146B3
:107AC000FEF7C8FAFFF7BAFCFFF736FEFFF71EFE17
:107AD000FFF7E0FDFFF764FCFFF71AFDFFF74AFC34
:107AE00002B070BD0FB4054B10B503A9044A02984B
:107AF00000F0DAF810BC5DF814FB0000595F0008D4
:107B00000000002002E008C8121F08C1002AFAD1B4
:107B100070477047002001E001C1121F002AFBD10D
:107B2000704700002DE9FF5F82B00021DDE90430DD
:107B3000020DDDF840B0034318D044F61050A2F215
:107B4000FF3242431514119801281FD0A5EB0B00FA
:107B5000401C5FEA000A4FF000064E4FDFF83891F4
:107B6000B046504615D5CAF1000413E0119801241F
:107B70004AA3012801D16FEA0B010298119AC0E9CA
:107B80000031C0E9024206B0BDE8F09FCBF1000031
:107B9000DFE704460021404A491842EB0450CDE992
:107BA000001012E0E00707D032463B464046494607
:107BB000FCF7A6FB8046894632463B4610461946EE
:107BC000FCF79EFB06460F466410002CEAD1DDE967
:107BD0000401DDE90023BAF1000F06DAFCF790FB9F
:107BE00042464B46FCF78CFB05E0FCF7FBFB4246AC
:107BF0004B46FCF7F7FB04460E460022284BFCF7E9
:107C000079FC03D84FF0FF30014607E00022254BF6
:107C100020463146FCF7CDFAFCF753FC102409E06E
:107C2000002C0ADB0A220023FCF792FA039B303275
:107C30001A55641E50EA0102F2D1641C039AC4F181
:107C400011031444119A012A03D0012208430DD1D3
:107C50000AE0084304D000204FF0110B119072E7A6
:107C6000A3EB0B056D1E0DE05B4504DD4FF000023C
:107C700005F1010504E003DA4FF00002A5F101056A
:107C8000002AECD002981199C0E90231C0E9004500
:107C900079E70000000014400000F03F30000000D1
:107CA0000000F0430000E03F2DE9FF4F95B09B46F8
:107CB0008946064600250FE2252877D1002427466D
:107CC000F84A0121059400E0044316F8013F203BE7
:107CD00001FA03F01042F7D130782A2811D06FF062
:107CE0002F033078A0F13002092A16D8059A44F003
:107CF000020402EB820203EB42021044761C059060
:107D0000EFE759F8042B0592002A03DA504244F4B5
:107D10000054059044F00204761C30782E2816D1C9
:107D200016F8010F44F004042A280DD06FF02F023A
:107D30003078A0F13003092B09D807EB870302EB59
:107D40004303C718761CF3E759F8047B761C307898
:107D50006C280FD006DC4C2817D068280DD06A2874
:107D600014D104E0742810D07A280FD10DE044F427
:107D700000140AE044F4801401E044F440147278E2
:107D8000824202D104F58014761C761C3078662875
:107D90000BD013DC582877D009DC002875D0452893
:107DA000F6D04628F4D047281AD19DE118E0632880
:107DB00035D0642879D0652812D195E1702873D028
:107DC00008DC6728F1D069286FD06E280DD06F28A5
:107DD00006D1B5E073282CD0752875D0782874D0DA
:107DE0005A46179990476D1C75E1C4F3025002285A
:107DF00009D003280DD0D9F8001004280DD00D604B
:107E000009F1040967E1D9F80010EA17C1E9005245
:107E1000F6E7D9F800100D80F2E70D70F0E719F8D9
:107E2000041B8DF8001000208DF80100EA460120A7
:107E300003E059F804AB4FF0FF3061074FF0000149
:107E400002D40DE008F101018846B9420FDA8045FD
:107E5000F8DB1AF808100029F4D108E008F1010154
:107E600088468142FADB1AF808100029F6D10598F5
:107E70005B46A0EB080721463846179A00F094FAB3
:107E8000284400EB080507E04DE029E10DE01AF871
:107E9000010B5A4617999047B8F10108F7D25B4693
:107EA00021463846179A13E142E00A220092C4F3B1
:107EB00002524FF0000A022A08D059F804CB032AD4
:107EC0004FEAEC710AD00DE029E02AE009F1070140
:107ED00021F00702F2E802C1914609E00FFA8CFC9A
:107EE0004FEAEC71042A03D14FFA8CFC4FEAEC7193
:107EF000002907DA0A460021DCF1000C61EB0201DF
:107F00002D2202E0220504D52B228DF80420012227
:107F100003E0E20701D02022F7E7904659E00A216A
:107F200002E010220DE010214FF0000A00910BE05A
:107F300010224FF0000A44F004040827009203E0E6
:107F400008224FF0000A0092C4F30252022A05D020
:107F500059F804CB0021032A08D009E009F10701F0
:107F600021F00702F2E802C1914605E01FFA8CFCFD
:107F7000042A01D10CF0FF0C4FF00008220728D58D
:107F8000702806D0009B83F0100353EA0A0305D043
:107F90000EE040228DF80420012208E05CEA010294
:107FA00006D030228DF804208DF80500022290467C
:107FB000009B83F0080353EA0A030AD15CEA01023A
:107FC00001D1620705D530228DF804204FF0010859
:107FD0007F1E582804D034A003900EA802900DE014
:107FE00036A0F9E753466046009AFCF7B1F884469C
:107FF0000398825C0298401E029002705CEA0100C5
:10800000F0D1029806A9081A00F1200A600702D5EB
:1080100024F4803400E00127574502DDA7EB0A0075
:1080200000E0002000EB0A01009005984144401A4E
:108030000590E00306D45B462146179A059800F0A8
:10804000B3F90544002706E001A85A46C05D179918
:1080500090476D1C7F1C4745F6DBE0030CD55B4663
:108060002146179A059800F09FF9054404E0302056
:108070005A46179990476D1C0099481E0090002998
:10808000F5DC08E0029802995A460078491C0291F2
:10809000179990476D1CBAF10001AAF1010AF1DCB1
:1080A00065E10000092801003031323334353637BC
:1080B0003839616263646566000000003031323334
:1080C00034353637383941424344454600000000D4
:1080D00000F058F90544761C307800287FF4ECADA8
:1080E00019B02846BDE8F08F620700D4062709F1D1
:1080F000070222F0070CFCE80223E14603F00048E7
:108100005FEA080C02D00FF2702C0DE05FEA045C0D
:1081100002D50FF2682C07E05FEAC47C02D00FF2B0
:10812000602C01E0AFF2700C4FF0FF3823F00043F9
:10813000CDF850C065280CD006DC452809D046286B
:108140001DD047283DD13DE0662818D067287ED154
:1081500038E00021112F01DB112000E0781CCDE96F
:10816000000106A90EA8FFF7DDFCDDE90F010E9A5C
:1081700003910021009207F1010A04914DE04FF0B4
:1081800000400097CDE9011006A90EA8FFF7CAFC30
:10819000DDE90F0203920E9B11990022DDF80CA07D
:1081A0000093049211B9791C00EB010AB7EB0A00A5
:1081B00004D4C0F1FF3007F1010A0490AAEB0700D4
:1081C000019044E0012F00DA01270021112F01DD89
:1081D000112000E03846CDE9000106A90EA8FFF7FE
:1081E000A1FCDDE90F010E9A039100210491009298
:1081F000BA4621070CD40399514500DA8A46BAF1F0
:10820000010F05DD009AAAF10101515C302908D067
:10821000B84202DA10F1040F06DA0121CDE90110AB
:1082200015E0AAF10101E9E7002805DC0499014401
:108230000491AAEB000102E0411C514500DD8A4691
:108240000499401A401C01904FF000400290200712
:1082500004D40198504501DBCDF8048000208DF84E
:108260004F0002980DF14F07B0F1004F25D02B20A1
:108270000E9002984FF0020800280CDA404202905B
:108280002D200E9007E00A210298FBF74BFF3031BA
:10829000029007F8011DB8F10001A8F10108F2DC15
:1082A00002980028EFD1791E0E980870307800F0FF
:1082B000200040F0450007F8020D12A8C01B00F195
:1082C00007081498007800B1012000EB0A0101981A
:1082D00001EBE07105984144401A401E0590E0030F
:1082E00006D45B462146179A059800F05DF80544D0
:1082F0001498007818B15A46179990476D1CE003FE
:1083000024D55B462146179A059800F04DF80544A0
:108310001CE00498002807DBDDE90301884203DD47
:108320000098405C179901E0179930205A46904711
:10833000049805F10105401C04900198401E01902D
:1083400004D12E205A46179990476D1CBAF10001AE
:10835000AAF1010ADDDC05E017F8010B5A4617996E
:1083600090476D1CB8F10001A8F10108F4DC5B46F0
:108370002146179A0598ABE62D0000002B0000005F
:10838000200000002DE9F041044600251E46174656
:10839000880404D405E039462020B0476D1C641ED3
:1083A000F9D52846BDE8F0812DE9F04104460025C5
:1083B0001E469046C80301D5302700E020278804D8
:1083C00004D505E041463846B0476D1C641EF9D51A
:1083D0002846BDE8F08100000100010140000000D6
:1083E0004001002040050020C005002003000000DF
:1083F0000000000000000000010203040607080955
:10840000000000000102030402040608020C081028
:108410006465627567206C6F670D0A004084000810
:108420000000002040000000047B00088084000859
:1084300040000020A8090000147B0008B9D0FFFF0D
:1084400000000000010000000100000000127A009E
:10845000000000000000000000000000000000001C
:10846000000000000000000000000000000000000C
:1084700000000000000000000000000000000000FC
:04000005080040CDE2
:00000001FF
