:020000040800F2
:1000000068060020690100081D03000815030008A8
:10001000190300080F030008D503000800000000C2
:100020000000000000000000000000006103000864
:1000300013030008000000005F03000863030008CA
:100040008301000883010008830100088301000880
:100050008301000883010008830100088301000870
:1000600000000000830100088301000883010008EC
:1000700083010008830100088301000800000000DC
:10008000D10300088301000800000000830100087C
:100090008301000883010008830100088301000830
:1000A000830100088301000883010008D3030008CE
:1000B00083010008000000000000000000000000B4
:1000C00083010008000000008301000800F002F82E
:1000D00000F03AF80AA090E8000C82448344AAF1A8
:1000E0000107DA4501D100F02FF8AFF2090EBAE8A6
:1000F0000F0013F0010F18BFFB1A43F0010318475C
:10010000C80F0000E80F0000103A24BF78C878C17B
:10011000FAD8520724BF30C830C144BF04680C600D
:10012000704700000023002400250026103A28BF55
:1001300078C1FBD8520728BF30C148BF0B60704759
:100140001FB51FBD10B510BD00F0A8F81146FFF790
:10015000F7FF00F031FC00F0C6F803B4FFF7F2FF40
:1001600003BC00F0CDF8000009488047094800476B
:10017000FEE7FEE7FEE7FEE7FEE7FEE7FEE7FEE757
:10018000FEE7FEE704480549054A064B70470000B4
:1001900065030008CD000008680000206806002004
:1001A000680200206802002053EA020C00F0698017
:1001B0002DE9F04B4FF00006002B1FBFB3FA83F57B
:1001C00003FA05F424FA05F65E4012BF1643B2FAAC
:1001D00082F502FA05F4C5F120051EBF22FA05FCDE
:1001E00044EA0C04203556EA044C4FEA144418BF84
:1001F000641C4FF000084FF00009904271EB030CB3
:1002000039D3002919BFB1FA81F701FA07F6B0FA1C
:1002100080F700FA07F6C7F120071EBF20FA07FC97
:1002200046EA0C062037B6FBF4FCA7EB0507103FA7
:1002300007F01F0BCBF120060CFA0BFB2CFA06F68D
:1002400044BFB3460026202FA4BF5E464FF0000BEC
:100250005BEA060C08BF4FF0010B19EB0B09ABFB77
:10026000027C48EB0608C01B06FB02CC0BFB03CC50
:1002700071EB0C01C1E70B46024641464846BDE81A
:10028000F08B13B54FF000004FF00001AFF300808A
:10029000BDE81C407047704770477047754600F0D6
:1002A0002BF8AE4605006946534620F00700854608
:1002B00018B020B5FFF766FFBDE820404FF00006FC
:1002C0004FF000074FF000084FF0000B21F007013E
:1002D000AC46ACE8C009ACE8C009ACE8C009ACE881
:1002E000C0098D46704710B50446AFF30080204624
:1002F000BDE81040FFF731BF004870470400002000
:1003000001491820ABBEFEE726000200704700BF7F
:10031000FEE7704700BFFEE700BFFEE77047F0B59D
:1003200003460C4603F00701C1F10700042801D978
:10033000042001E0C1F107000646081D072801D28C
:10034000002000E0C81E05460120B040401E2040AD
:10035000A8400127AF407F1E17403843F0BD7047CB
:10036000704770471748006820F00100401C15498D
:10037000086000BF13480068C0F340000028F9D0AF
:100380001048406820F003000E49486000BF0D4847
:100390004068C0F381000028F9D10A4800680A4982
:1003A0000840084908600020486041F61070C862A3
:1003B0004FF4801008634FF41F008860C80303499E
:1003C0000860704700100240FFFFF2FE08ED00E0F9
:1003D0007047704700BFFEE702480068C0F3022084
:1003E000704700000CED00E010B5002804DB0A07A0
:1003F000130E054A135406E00A07140E034A00F0D0
:100400000F031B1FD45410BD00E400E018ED00E002
:100410000349496860F30711014A516070470000C1
:10042000001002400349496860F30A21014A516003
:1004300070470000001002400349496860F3CD2175
:10044000014A51607047000000100240012807D1A6
:100450000749496D21F030013031054A516505E009
:100460000349496D21F03001014A51657047000090
:1004700000100240052827D2DFE800F0030A111817
:100480001F00134A126861F30002114B1A601CE04E
:100490000F4A126861F310420D4B1A6015E00C4AC6
:1004A000126861F318620A4B1A600EE0084A126A79
:1004B00061F30002064B1A6207E0054A526A61F3D3
:1004C0000002034B5A6200E000BF00BF704700000B
:1004D000001002402DE9F04F85B004460025AA46E1
:1004E000AB460026A946002004900390029001909C
:1004F00000F0F2F90090009820B1012812D00228F3
:1005000075D112E05648406DC0F3402038B15448D0
:10051000006BC0F3406010B15248206001E05248C7
:10052000206067E05048206064E04D484068C0F3B8
:10053000004B4B48C06AC00F30BB49484068C0F30D
:10054000834547484068C0F3417ABAF1000F01D1B2
:100550000F2D04D14FEA0A10401C054400E0AD1CE9
:10056000BBF1000F03D14148684320603DE03C48A7
:100570004068C0F3404018B13C486843206034E014
:1005800039486843206030E03548C06AC0F3031042
:1005900003903348C06AC0F3082002903048C06A14
:1005A00000F007000190BBF1000F02D12F4804902A
:1005B00009E02B484068C0F3404010B12B4804903C
:1005C00001E0294804900121019801FA00F0039903
:1005D00000FB01FC02990498A0FB017001466246F1
:1005E00000233846FFF7E0FD206003E0FFE71E48E8
:1005F000206000BF00BF1A484068C0F303161C48C3
:1006000010F80690206820FA09F0606014484068ED
:10061000C0F30226174810F80690606820FA09F027
:10062000E0600F484068C0F3C226134810F80690F7
:10063000606820FA09F0A06009484068C0F30076BD
:1006400007484068C0F3813040EA86060B4810F83E
:100650000690A068B0FBF9F0206105B0BDE8F08F0E
:1006600000100240006CDC0200127A0000093D001C
:1006700090100008A0100008A8100008B010000892
:1006800010B501460020094B03EB1142126801F03E
:100690001F040123A3401A4001F01F040123A340BB
:1006A0009A4200D000E0012010BD0000001002407E
:1006B00030B50024002500E0641C1120FFF7E0FFA6
:1006C000012802D0B4F5405FF6D31120FFF7D8FF20
:1006D000012801D0002500E00125284630BD00009A
:1006E00010B501290DD10E4B03EB1042126800F03A
:1006F0001F040123A3401A43094C04EB10431A6062
:100700000CE0074B03EB1042126800F01F040123BA
:10071000A3409A43024C04EB10431A6010BD000042
:100720000010024030B502460020002372B9354C5B
:10073000646824F48034334D6C6033482C46246B59
:1007400024F0007404F100742C6319E02D4C6468EB
:1007500024F4803404F580342A4D6C60012A06D1DB
:100760002A482C46646824F400346C6008E026486B
:10077000244C646824F4003404F50034214D6C608A
:10078000234CA04204D9234CA04201D2002326E0EE
:10079000214CA04204D9214CA04201D201231EE0E9
:1007A0001F4CA04204D91F4CA04201D2022316E0E4
:1007B0001C4CA04204D91C4CA04201D203230EE0E1
:1007C0001A4CA04204D91A4CA04201D2042306E0DC
:1007D000174CA04203D9174CA04200D20523094C64
:1007E000646861F39544074D6C600D09054C6468BD
:1007F00065F35E74034D6C602C46E46A63F31A641F
:10080000EC6230BD0010024000093D0000127A0089
:1008100060823B00404B4C0080584F00105E5F00F0
:1008200094357700101B7F0020BCBE00286BEE00C3
:1008300030D73D01D8E9DC011648006820F00100FE
:10084000401C1449086000BF12480068C0F3400013
:100850000028F9D00F48406820F003000D49486097
:1008600000BF0C484068C0F381000028F9D1094856
:10087000006809490840074908600020486041F6BF
:100880001070C8624FF4801008634FF41F00886036
:100890007047000000100240FFFFF2FE0D4949685A
:1008A00060F301010B4A516000BF00BF00BF00BFF1
:1008B00000BF00BF00BF00BF00BF00BF00BF00BF40
:1008C00000BF00BF00BF00BF00BF00BF00BF00BF30
:1008D000704700000010024002484068C0F38100E9
:1008E00070470000001002404FF6FF7101600021C8
:1008F0008171017141710121C171704770B50A4662
:1009000000211488A3B233E003F001046CB304683F
:100910004E000325B540AC43046094794D00AC40D3
:1009200005682C430460446801258D40AC43446055
:10093000446815798D402C43446084684E0003253B
:10094000B540AC438460D4794D00AC4085682C43FD
:100950008460C4684E000325B540AC43C46054793C
:100960004D00AC40C5682C43C4605B104C1CA1B268
:10097000002BC9DC70BDF0B5002300244D07ED0E3F
:1009800002FA05F3CD105DB1456A4E07F70E0F264A
:10099000BE40B5434562456A45EA030444620AE045
:1009A000056A4E07F70E0F26BE40B5430562056A7D
:1009B00045EA03040462F0BD00F082FA00F062FA36
:1009C00000F0F6F900F010FB00F0EAFA00BFFEE7D5
:1009D0002DE9F0470B4614464FF0000C00BF2C4A9F
:1009E0001268C2F302211D4626460A46C2F10709D3
:1009F000B9F1040F02D94FF0040901E0C2F107096F
:100A0000C84602F10409B9F1070F02D24FF00009FC
:100A100001E0A2F103094F464FF0010909FA08F974
:100A2000A9F1010909EA050909FA07F94FF0010AD4
:100A30000AFA07FAAAF1010A0AEA060A49EA0A09C1
:100A4000CC4601466246002904DB15072E0E114DE7
:100A50006E5407E015072F0E0D4D0C3501F00F06F3
:100A6000361FAF5500BF014600290DDB00BF00BF98
:100A700001F01F050122AA404D09AD0005F1E02556
:100A8000C5F8002100BF00BF00BFBDE8F08700002F
:100A90000CED00E000E400E000BF00F00702064BB0
:100AA00019684FF6FF031940044B0B4343EA022138
:100AB000014B196000BF70470CED00E00000FA0523
:100AC0000349096860F30821014A1160704700007A
:100AD000007000402DE9FF5F002400250026A1469C
:100AE000A246A3460020039002900190FFF7F4FE77
:100AF0000090009820B1012814D0022874D115E08C
:100B00004348406DC0F3402040B14148006BC0F302
:100B1000406018B13F484049086002E03F483E4904
:100B2000086065E03D483C49086061E0384840683D
:100B3000C0F300463648C06AC00F20BB3448406846
:100B4000C0F3834432484068C0F341750DB90F2C9F
:100B500003D12801401C044400E0A41C26B93048FD
:100B600060432D4908603DE029484068C0F340409B
:100B700020B12B4860432849086033E02748604390
:100B8000254908602EE02248C06AC0F30310039094
:100B90001F48C06AC0F3082002901D48C06A00F0D8
:100BA0000700019016B9DFF878B009E018484068EE
:100BB000C0F3404010B1DFF868B001E0DFF85CB08E
:100BC0000121019801FA00F0039900FB01FC029851
:100BD000ABFB00700146624600233846FFF7E4FA9B
:100BE0000D49086004E0FFE70C480B49086000BFAE
:100BF00000BF07484068C0F303190A4810F809A06D
:100C00000548006820FA0AF003490860BDE8FF9F24
:100C100000100240006CDC020000002000127A008C
:100C200000093D00B8100008C1628262436923F0E8
:100C300001035B1C43617047026861F30922026093
:100C40007047026861F3061202607047026861F340
:100C5000000202607047026861F3C71202607047C9
:100C6000426861F3061242607047826861F3C712FE
:100C700082607047C26861F34D32C260704741B90B
:100C8000426922F480724261426922F40072426138
:100C900027E001290AD1426922F4807202F58072AC
:100CA0004261426922F4007242611AE002290AD1CB
:100CB000426922F480724261426922F4007202F5B4
:100CC000007242610DE003290BD1426922F4807267
:100CD00002F580724261426922F4007202F50072EC
:100CE000426170472DE9F04385B004460F469046B7
:100CF00099466846FFF7EEFB1448844201D1029EF4
:100D000000E0039E06EB86004000B0FBF7F50A20EA
:100D1000B5FBF0F100FB1150052803D20A20B5FB0A
:100D2000F0F503E00A20B5FBF0F0451CA06865F380
:100D30000F00A060E06868F30C30E060206969F3A0
:100D40000D30206105B0BDE8F0830000003801409F
:100D500041B9C26822F40072C260C26822F48062A3
:100D6000C2601AE001290AD1C26822F40072C2608E
:100D7000C26822F4806202F58062C2600DE002293E
:100D80000BD1C26822F4007202F50072C260C26820
:100D900022F4806202F58062C2607047C26861F32B
:100DA0008202C2607047C26861F3C302C2607047CA
:100DB00070B50320FFF770FEFFF70EFB054600221B
:100DC0001146FFF7ACFA044621466FF00B00FFF71F
:100DD0000BFBFFF701FB054600221146FFF79FFAC8
:100DE000044621466FF00A00FFF7FEFAFFF7F4FA17
:100DF000054600221146FFF792FA044621466FF09D
:100E00000900FFF7F1FAFFF7E7FA0546002211465D
:100E1000FFF785FA044621466FF00400FFF7E4FA75
:100E2000FFF7DAFA054600221146FFF778FA044682
:100E300021466FF00300FFF7D7FAFFF7CDFA05461A
:100E400000221146FFF76BFA044621466FF00100BD
:100E5000FFF7CAFAFFF7C0FA054600220F21FFF795
:100E60005EFA044621464FF0FF30FFF7BDFA00223C
:100E700001211020FFF7ACFD002211461B20FFF7D7
:100E8000A7FD70BD10B501210A48FFF729FC01211B
:100E90000848801CFFF724FC01210648401DFFF78D
:100EA0001FFC01210448FFF71BFC01210348FFF749
:100EB00017FC10BD110014000E00180001001C00EA
:100EC00010B5FFF7B9FC40F2531032490860012118
:100ED0004FF01C10FFF704FC0120FFF7F1FD2E4836
:100EE000FFF7CEFB48B901210320FFF7C3FA00BF8B
:100EF0002948FFF7C5FB0028FAD00020FFF7E0FDE6
:100F000000214FF01C10FFF7EBFB01210420FFF73D
:100F1000B1FA00BF2148FFF7B3FB0128FAD1012144
:100F20000846FFF7A7FA00BFFFF7C2FB0028FBD077
:100F300001210020FFF79EFA00BF0120FFF7A0FB70
:100F40000128FAD11D210020FFF7ECFB012102202E
:100F5000FFF790FA00BF1920FFF792FB0128FAD1A2
:100F60000020FFF755FA0020FFF766FA0020FFF790
:100F700059FA0120FFF76AFA0220FFF78FFC00BF41
:100F8000FFF7AAFC0228FBD10020FFF75FFAFFF76A
:100F9000A1FD10BD0020024001002000010024003E
:100FA00010B542F6DF6242F210710E48FFF73CFEC8
:100FB00000210C48FFF745FE00210A48FFF73CFEE0
:100FC00000210848FFF747FE00210648FFF74DFEC5
:100FD00000210448FFF744FE01210248FFF736FED6
:100FE00010BD0000000400401CB56846FFF77CFC03
:100FF00001220921C806FFF7BEFC02208DF8070078
:1010000000208DF8040002208DF8060000020090F8
:1010100000208DF8050069464FF09040FFF76EFC08
:1010200001220A214FF09040FFF7A5FC02208DF825
:10103000070000208DF8040002208DF80600400211
:10104000009000208DF8050069464FF09040FFF7B2
:1010500055FC00231A464FF4E1310C48FFF742FEDD
:1010600001210A48FFF79FFE01210848FFF796FE7D
:1010700000210648FFF76CFE00210448FFF7FFFD42
:1010800001210248FFF7F6FD1CBD000000380140B9
:101090000000000000000000010203040607080928
:1010A000000000000102030400000000010203042C
:1010B00002040608020C08100000000000000000F6
:1010C0000102030406070809E810000800000020D8
:1010D0000400000008010008EC10000804000020D3
:0C10E000640600002401000800127A00E1
:04000005080000CD22
:00000001FF
